{
  "_format": "hh-sol-artifact-1",
  "contractName": "LiquidStaking",
  "sourceName": "contracts/LiquidStaking.sol",
  "abi": [
    {
      "inputs": [],
      "stateMutability": "nonpayable",
      "type": "constructor"
    },
    {
      "inputs": [],
      "name": "OperationNotSupported",
      "type": "error"
    },
    {
      "anonymous": false,
      "inputs": [
        {
          "indexed": true,
          "internalType": "uint256",
          "name": "currLogSeq",
          "type": "uint256"
        },
        {
          "indexed": false,
          "internalType": "string",
          "name": "fromPrincipalPubkey",
          "type": "string"
        },
        {
          "indexed": false,
          "internalType": "string",
          "name": "toNodeID",
          "type": "string"
        },
        {
          "indexed": false,
          "internalType": "uint256",
          "name": "startTime",
          "type": "uint256"
        },
        {
          "indexed": false,
          "internalType": "uint256",
          "name": "endTime",
          "type": "uint256"
        },
        {
          "indexed": false,
          "internalType": "uint256",
          "name": "amount",
          "type": "uint256"
        },
        {
          "indexed": false,
          "internalType": "string",
          "name": "rewardPubkey",
          "type": "string"
        }
      ],
      "name": "AddDelegator",
      "type": "event"
    },
    {
      "anonymous": false,
      "inputs": [
        {
          "indexed": true,
          "internalType": "uint256",
          "name": "currLogSeq",
          "type": "uint256"
        },
        {
          "indexed": false,
          "internalType": "string",
          "name": "srcPubkey",
          "type": "string"
        },
        {
          "indexed": false,
          "internalType": "string",
          "name": "destPubkey",
          "type": "string"
        },
        {
          "indexed": false,
          "internalType": "string",
          "name": "srcChain",
          "type": "string"
        },
        {
          "indexed": false,
          "internalType": "string",
          "name": "destChain",
          "type": "string"
        },
        {
          "indexed": false,
          "internalType": "uint256",
          "name": "amount",
          "type": "uint256"
        }
      ],
      "name": "ExportAvax",
      "type": "event"
    },
    {
      "anonymous": false,
      "inputs": [
        {
          "indexed": true,
          "internalType": "uint256",
          "name": "currLogSeq",
          "type": "uint256"
        },
        {
          "indexed": false,
          "internalType": "string",
          "name": "srcPubkey",
          "type": "string"
        },
        {
          "indexed": false,
          "internalType": "string",
          "name": "destPubkey",
          "type": "string"
        },
        {
          "indexed": false,
          "internalType": "string",
          "name": "srcChain",
          "type": "string"
        },
        {
          "indexed": false,
          "internalType": "string",
          "name": "destChain",
          "type": "string"
        }
      ],
      "name": "ImportAvax",
      "type": "event"
    },
    {
      "anonymous": false,
      "inputs": [
        {
          "indexed": false,
          "internalType": "address",
          "name": "account",
          "type": "address"
        }
      ],
      "name": "Paused",
      "type": "event"
    },
    {
      "anonymous": false,
      "inputs": [
        {
          "indexed": false,
          "internalType": "uint256",
          "name": "amount",
          "type": "uint256"
        }
      ],
      "name": "ReceivedPrincipal",
      "type": "event"
    },
    {
      "anonymous": false,
      "inputs": [
        {
          "indexed": false,
          "internalType": "uint256",
          "name": "amount",
          "type": "uint256"
        }
      ],
      "name": "ReceivedRewards",
      "type": "event"
    },
    {
      "anonymous": false,
      "inputs": [
        {
          "indexed": true,
          "internalType": "bytes32",
          "name": "role",
          "type": "bytes32"
        },
        {
          "indexed": true,
          "internalType": "bytes32",
          "name": "previousAdminRole",
          "type": "bytes32"
        },
        {
          "indexed": true,
          "internalType": "bytes32",
          "name": "newAdminRole",
          "type": "bytes32"
        }
      ],
      "name": "RoleAdminChanged",
      "type": "event"
    },
    {
      "anonymous": false,
      "inputs": [
        {
          "indexed": true,
          "internalType": "bytes32",
          "name": "role",
          "type": "bytes32"
        },
        {
          "indexed": true,
          "internalType": "address",
          "name": "account",
          "type": "address"
        },
        {
          "indexed": true,
          "internalType": "address",
          "name": "sender",
          "type": "address"
        }
      ],
      "name": "RoleGranted",
      "type": "event"
    },
    {
      "anonymous": false,
      "inputs": [
        {
          "indexed": true,
          "internalType": "bytes32",
          "name": "role",
          "type": "bytes32"
        },
        {
          "indexed": true,
          "internalType": "address",
          "name": "account",
          "type": "address"
        },
        {
          "indexed": true,
          "internalType": "address",
          "name": "sender",
          "type": "address"
        }
      ],
      "name": "RoleRevoked",
      "type": "event"
    },
    {
      "anonymous": false,
      "inputs": [
        {
          "indexed": true,
          "internalType": "uint256",
          "name": "currLogSeq",
          "type": "uint256"
        },
        {
          "indexed": false,
          "internalType": "string",
          "name": "fromPubkey",
          "type": "string"
        },
        {
          "indexed": false,
          "internalType": "uint256",
          "name": "amount",
          "type": "uint256"
        }
      ],
      "name": "SubmitPrincipal",
      "type": "event"
    },
    {
      "anonymous": false,
      "inputs": [
        {
          "indexed": true,
          "internalType": "uint256",
          "name": "currLogSeq",
          "type": "uint256"
        },
        {
          "indexed": false,
          "internalType": "string",
          "name": "fromPubkey",
          "type": "string"
        },
        {
          "indexed": false,
          "internalType": "uint256",
          "name": "amount",
          "type": "uint256"
        }
      ],
      "name": "SubmitRewards",
      "type": "event"
    },
    {
      "anonymous": false,
      "inputs": [
        {
          "indexed": false,
          "internalType": "address",
          "name": "account",
          "type": "address"
        }
      ],
      "name": "Unpaused",
      "type": "event"
    },
    {
      "anonymous": false,
      "inputs": [
        {
          "indexed": true,
          "internalType": "uint256",
          "name": "seq",
          "type": "uint256"
        }
      ],
      "name": "UpdatedSignLogSeq",
      "type": "event"
    },
    {
      "stateMutability": "nonpayable",
      "type": "fallback"
    },
    {
      "inputs": [],
      "name": "BOT_ROLE",
      "outputs": [
        {
          "internalType": "bytes32",
          "name": "",
          "type": "bytes32"
        }
      ],
      "stateMutability": "view",
      "type": "function"
    },
    {
      "inputs": [],
      "name": "DEFAULT_ADMIN_ROLE",
      "outputs": [
        {
          "internalType": "bytes32",
          "name": "",
          "type": "bytes32"
        }
      ],
      "stateMutability": "view",
      "type": "function"
    },
    {
      "inputs": [],
      "name": "MIN_AVAX_DEPOSIT",
      "outputs": [
        {
          "internalType": "uint256",
          "name": "",
          "type": "uint256"
        }
      ],
      "stateMutability": "view",
      "type": "function"
    },
    {
      "inputs": [],
      "name": "MIN_TOKEN_WITHDRAWAL",
      "outputs": [
        {
          "internalType": "uint256",
          "name": "",
          "type": "uint256"
        }
      ],
      "stateMutability": "view",
      "type": "function"
    },
    {
      "inputs": [
        {
          "internalType": "uint256",
          "name": "id",
          "type": "uint256"
        }
      ],
      "name": "claim",
      "outputs": [],
      "stateMutability": "nonpayable",
      "type": "function"
    },
    {
      "inputs": [
        {
          "internalType": "address",
          "name": "",
          "type": "address"
        },
        {
          "internalType": "uint256",
          "name": "",
          "type": "uint256"
        }
      ],
      "name": "claimReqs",
      "outputs": [
        {
          "internalType": "uint256",
          "name": "id",
          "type": "uint256"
        },
        {
          "internalType": "address",
          "name": "user",
          "type": "address"
        },
        {
          "internalType": "uint256",
          "name": "weiToReturn",
          "type": "uint256"
        },
        {
          "internalType": "uint256",
          "name": "deadline",
          "type": "uint256"
        }
      ],
      "stateMutability": "view",
      "type": "function"
    },
    {
      "inputs": [
        {
          "internalType": "address",
          "name": "user",
          "type": "address"
        }
      ],
      "name": "claims",
      "outputs": [
        {
          "components": [
            {
              "internalType": "uint256",
              "name": "id",
              "type": "uint256"
            },
            {
              "internalType": "address",
              "name": "user",
              "type": "address"
            },
            {
              "internalType": "uint256",
              "name": "weiToReturn",
              "type": "uint256"
            },
            {
              "internalType": "uint256",
              "name": "deadline",
              "type": "uint256"
            }
          ],
          "internalType": "struct ClaimRequest.Data[50]",
          "name": "",
          "type": "tuple[50]"
        }
      ],
      "stateMutability": "view",
      "type": "function"
    },
    {
      "inputs": [],
      "name": "config",
      "outputs": [
        {
          "components": [
            {
              "internalType": "string",
              "name": "pubkey",
              "type": "string"
            },
            {
              "internalType": "address",
              "name": "addr",
              "type": "address"
            }
          ],
          "internalType": "struct Account.Data",
          "name": "principalAcc",
          "type": "tuple"
        },
        {
          "components": [
            {
              "internalType": "string",
              "name": "pubkey",
              "type": "string"
            },
            {
              "internalType": "address",
              "name": "addr",
              "type": "address"
            }
          ],
          "internalType": "struct Account.Data",
          "name": "rewardAcc",
          "type": "tuple"
        },
        {
          "components": [
            {
              "components": [
                {
                  "internalType": "uint64",
                  "name": "numerator",
                  "type": "uint64"
                },
                {
                  "internalType": "uint64",
                  "name": "denominator",
                  "type": "uint64"
                }
              ],
              "internalType": "struct Fee.Data",
              "name": "reward",
              "type": "tuple"
            },
            {
              "components": [
                {
                  "internalType": "uint64",
                  "name": "numerator",
                  "type": "uint64"
                },
                {
                  "internalType": "uint64",
                  "name": "denominator",
                  "type": "uint64"
                }
              ],
              "internalType": "struct Fee.Data",
              "name": "deposit",
              "type": "tuple"
            },
            {
              "components": [
                {
                  "internalType": "uint64",
                  "name": "numerator",
                  "type": "uint64"
                },
                {
                  "internalType": "uint64",
                  "name": "denominator",
                  "type": "uint64"
                }
              ],
              "internalType": "struct Fee.Data",
              "name": "delayedUnstake",
              "type": "tuple"
            },
            {
              "components": [
                {
                  "internalType": "uint16",
                  "name": "minBasisFee",
                  "type": "uint16"
                },
                {
                  "internalType": "uint16",
                  "name": "maxBasisFee",
                  "type": "uint16"
                },
                {
                  "internalType": "uint256",
                  "name": "liquidityTarget",
                  "type": "uint256"
                },
                {
                  "components": [
                    {
                      "internalType": "uint64",
                      "name": "numerator",
                      "type": "uint64"
                    },
                    {
                      "internalType": "uint64",
                      "name": "denominator",
                      "type": "uint64"
                    }
                  ],
                  "internalType": "struct Fee.Data",
                  "name": "treasuryCut",
                  "type": "tuple"
                }
              ],
              "internalType": "struct InstantUnstakeFee.Data",
              "name": "instantUnstake",
              "type": "tuple"
            }
          ],
          "internalType": "struct FeeDistribution.Data",
          "name": "fee",
          "type": "tuple"
        },
        {
          "internalType": "address",
          "name": "treasuryAcc",
          "type": "address"
        }
      ],
      "stateMutability": "view",
      "type": "function"
    },
    {
      "inputs": [
        {
          "internalType": "string",
          "name": "toNodeID",
          "type": "string"
        },
        {
          "internalType": "uint256",
          "name": "pChainAmount",
          "type": "uint256"
        }
      ],
      "name": "delegate",
      "outputs": [],
      "stateMutability": "nonpayable",
      "type": "function"
    },
    {
      "inputs": [],
      "name": "deposit",
      "outputs": [],
      "stateMutability": "payable",
      "type": "function"
    },
    {
      "inputs": [],
      "name": "exchangeRate",
      "outputs": [
        {
          "internalType": "uint256",
          "name": "totalWei",
          "type": "uint256"
        },
        {
          "internalType": "uint256",
          "name": "poolTokenSupply",
          "type": "uint256"
        }
      ],
      "stateMutability": "view",
      "type": "function"
    },
    {
      "inputs": [
        {
          "internalType": "uint256",
          "name": "poolTokens",
          "type": "uint256"
        }
      ],
      "name": "getInstantUnstakeFee",
      "outputs": [
        {
          "internalType": "uint16",
          "name": "",
          "type": "uint16"
        }
      ],
      "stateMutability": "view",
      "type": "function"
    },
    {
      "inputs": [
        {
          "internalType": "bytes32",
          "name": "role",
          "type": "bytes32"
        }
      ],
      "name": "getRoleAdmin",
      "outputs": [
        {
          "internalType": "bytes32",
          "name": "",
          "type": "bytes32"
        }
      ],
      "stateMutability": "view",
      "type": "function"
    },
    {
      "inputs": [
        {
          "internalType": "bytes32",
          "name": "role",
          "type": "bytes32"
        },
        {
          "internalType": "uint256",
          "name": "index",
          "type": "uint256"
        }
      ],
      "name": "getRoleMember",
      "outputs": [
        {
          "internalType": "address",
          "name": "",
          "type": "address"
        }
      ],
      "stateMutability": "view",
      "type": "function"
    },
    {
      "inputs": [
        {
          "internalType": "bytes32",
          "name": "role",
          "type": "bytes32"
        }
      ],
      "name": "getRoleMemberCount",
      "outputs": [
        {
          "internalType": "uint256",
          "name": "",
          "type": "uint256"
        }
      ],
      "stateMutability": "view",
      "type": "function"
    },
    {
      "inputs": [
        {
          "internalType": "bytes32",
          "name": "role",
          "type": "bytes32"
        },
        {
          "internalType": "address",
          "name": "account",
          "type": "address"
        }
      ],
      "name": "grantRole",
      "outputs": [],
      "stateMutability": "nonpayable",
      "type": "function"
    },
    {
      "inputs": [
        {
          "internalType": "bytes32",
          "name": "role",
          "type": "bytes32"
        },
        {
          "internalType": "address",
          "name": "account",
          "type": "address"
        }
      ],
      "name": "hasRole",
      "outputs": [
        {
          "internalType": "bool",
          "name": "",
          "type": "bool"
        }
      ],
      "stateMutability": "view",
      "type": "function"
    },
    {
      "inputs": [
        {
          "internalType": "contract IStakedAVAXToken",
          "name": "poolToken_",
          "type": "address"
        },
        {
          "internalType": "contract ILiquidityPool",
          "name": "lp_",
          "type": "address"
        },
        {
          "components": [
            {
              "components": [
                {
                  "internalType": "string",
                  "name": "pubkey",
                  "type": "string"
                },
                {
                  "internalType": "address",
                  "name": "addr",
                  "type": "address"
                }
              ],
              "internalType": "struct Account.Data",
              "name": "principalAcc",
              "type": "tuple"
            },
            {
              "components": [
                {
                  "internalType": "string",
                  "name": "pubkey",
                  "type": "string"
                },
                {
                  "internalType": "address",
                  "name": "addr",
                  "type": "address"
                }
              ],
              "internalType": "struct Account.Data",
              "name": "rewardAcc",
              "type": "tuple"
            },
            {
              "components": [
                {
                  "components": [
                    {
                      "internalType": "uint64",
                      "name": "numerator",
                      "type": "uint64"
                    },
                    {
                      "internalType": "uint64",
                      "name": "denominator",
                      "type": "uint64"
                    }
                  ],
                  "internalType": "struct Fee.Data",
                  "name": "reward",
                  "type": "tuple"
                },
                {
                  "components": [
                    {
                      "internalType": "uint64",
                      "name": "numerator",
                      "type": "uint64"
                    },
                    {
                      "internalType": "uint64",
                      "name": "denominator",
                      "type": "uint64"
                    }
                  ],
                  "internalType": "struct Fee.Data",
                  "name": "deposit",
                  "type": "tuple"
                },
                {
                  "components": [
                    {
                      "internalType": "uint64",
                      "name": "numerator",
                      "type": "uint64"
                    },
                    {
                      "internalType": "uint64",
                      "name": "denominator",
                      "type": "uint64"
                    }
                  ],
                  "internalType": "struct Fee.Data",
                  "name": "delayedUnstake",
                  "type": "tuple"
                },
                {
                  "components": [
                    {
                      "internalType": "uint16",
                      "name": "minBasisFee",
                      "type": "uint16"
                    },
                    {
                      "internalType": "uint16",
                      "name": "maxBasisFee",
                      "type": "uint16"
                    },
                    {
                      "internalType": "uint256",
                      "name": "liquidityTarget",
                      "type": "uint256"
                    },
                    {
                      "components": [
                        {
                          "internalType": "uint64",
                          "name": "numerator",
                          "type": "uint64"
                        },
                        {
                          "internalType": "uint64",
                          "name": "denominator",
                          "type": "uint64"
                        }
                      ],
                      "internalType": "struct Fee.Data",
                      "name": "treasuryCut",
                      "type": "tuple"
                    }
                  ],
                  "internalType": "struct InstantUnstakeFee.Data",
                  "name": "instantUnstake",
                  "type": "tuple"
                }
              ],
              "internalType": "struct FeeDistribution.Data",
              "name": "fee",
              "type": "tuple"
            },
            {
              "internalType": "address",
              "name": "treasuryAcc",
              "type": "address"
            }
          ],
          "internalType": "struct Config.Data",
          "name": "config_",
          "type": "tuple"
        }
      ],
      "name": "initialize",
      "outputs": [],
      "stateMutability": "nonpayable",
      "type": "function"
    },
    {
      "inputs": [],
      "name": "nextLogSeq",
      "outputs": [
        {
          "internalType": "uint256",
          "name": "",
          "type": "uint256"
        }
      ],
      "stateMutability": "view",
      "type": "function"
    },
    {
      "inputs": [],
      "name": "pause",
      "outputs": [],
      "stateMutability": "nonpayable",
      "type": "function"
    },
    {
      "inputs": [],
      "name": "paused",
      "outputs": [
        {
          "internalType": "bool",
          "name": "",
          "type": "bool"
        }
      ],
      "stateMutability": "view",
      "type": "function"
    },
    {
      "inputs": [
        {
          "internalType": "uint256",
          "name": "pRewardBalance",
          "type": "uint256"
        }
      ],
      "name": "periodicUpdate",
      "outputs": [],
      "stateMutability": "nonpayable",
      "type": "function"
    },
    {
      "inputs": [
        {
          "internalType": "bytes32",
          "name": "role",
          "type": "bytes32"
        },
        {
          "internalType": "address",
          "name": "account",
          "type": "address"
        }
      ],
      "name": "renounceRole",
      "outputs": [],
      "stateMutability": "nonpayable",
      "type": "function"
    },
    {
      "inputs": [
        {
          "internalType": "bytes32",
          "name": "role",
          "type": "bytes32"
        },
        {
          "internalType": "address",
          "name": "account",
          "type": "address"
        }
      ],
      "name": "revokeRole",
      "outputs": [],
      "stateMutability": "nonpayable",
      "type": "function"
    },
    {
      "inputs": [
        {
          "internalType": "address",
          "name": "admin",
          "type": "address"
        }
      ],
      "name": "sendAllAvaxTo",
      "outputs": [],
      "stateMutability": "nonpayable",
      "type": "function"
    },
    {
      "inputs": [
        {
          "internalType": "uint256",
          "name": "seq",
          "type": "uint256"
        }
      ],
      "name": "setSignLogSeq",
      "outputs": [],
      "stateMutability": "nonpayable",
      "type": "function"
    },
    {
      "inputs": [],
      "name": "signLogSeq",
      "outputs": [
        {
          "internalType": "uint256",
          "name": "",
          "type": "uint256"
        }
      ],
      "stateMutability": "view",
      "type": "function"
    },
    {
      "inputs": [],
      "name": "submitPrincipal",
      "outputs": [],
      "stateMutability": "payable",
      "type": "function"
    },
    {
      "inputs": [],
      "name": "submitRewards",
      "outputs": [],
      "stateMutability": "payable",
      "type": "function"
    },
    {
      "inputs": [
        {
          "internalType": "bytes4",
          "name": "interfaceId",
          "type": "bytes4"
        }
      ],
      "name": "supportsInterface",
      "outputs": [
        {
          "internalType": "bool",
          "name": "",
          "type": "bool"
        }
      ],
      "stateMutability": "view",
      "type": "function"
    },
    {
      "inputs": [
        {
          "internalType": "address",
          "name": "",
          "type": "address"
        },
        {
          "internalType": "address",
          "name": "from",
          "type": "address"
        },
        {
          "internalType": "address",
          "name": "to",
          "type": "address"
        },
        {
          "internalType": "uint256",
          "name": "amount",
          "type": "uint256"
        },
        {
          "internalType": "bytes",
          "name": "userData",
          "type": "bytes"
        },
        {
          "internalType": "bytes",
          "name": "",
          "type": "bytes"
        }
      ],
      "name": "tokensReceived",
      "outputs": [],
      "stateMutability": "nonpayable",
      "type": "function"
    },
    {
      "inputs": [],
      "name": "unpause",
      "outputs": [],
      "stateMutability": "nonpayable",
      "type": "function"
    },
    {
      "inputs": [
        {
          "components": [
            {
              "components": [
                {
                  "internalType": "string",
                  "name": "pubkey",
                  "type": "string"
                },
                {
                  "internalType": "address",
                  "name": "addr",
                  "type": "address"
                }
              ],
              "internalType": "struct Account.Data",
              "name": "principalAcc",
              "type": "tuple"
            },
            {
              "components": [
                {
                  "internalType": "string",
                  "name": "pubkey",
                  "type": "string"
                },
                {
                  "internalType": "address",
                  "name": "addr",
                  "type": "address"
                }
              ],
              "internalType": "struct Account.Data",
              "name": "rewardAcc",
              "type": "tuple"
            },
            {
              "components": [
                {
                  "components": [
                    {
                      "internalType": "uint64",
                      "name": "numerator",
                      "type": "uint64"
                    },
                    {
                      "internalType": "uint64",
                      "name": "denominator",
                      "type": "uint64"
                    }
                  ],
                  "internalType": "struct Fee.Data",
                  "name": "reward",
                  "type": "tuple"
                },
                {
                  "components": [
                    {
                      "internalType": "uint64",
                      "name": "numerator",
                      "type": "uint64"
                    },
                    {
                      "internalType": "uint64",
                      "name": "denominator",
                      "type": "uint64"
                    }
                  ],
                  "internalType": "struct Fee.Data",
                  "name": "deposit",
                  "type": "tuple"
                },
                {
                  "components": [
                    {
                      "internalType": "uint64",
                      "name": "numerator",
                      "type": "uint64"
                    },
                    {
                      "internalType": "uint64",
                      "name": "denominator",
                      "type": "uint64"
                    }
                  ],
                  "internalType": "struct Fee.Data",
                  "name": "delayedUnstake",
                  "type": "tuple"
                },
                {
                  "components": [
                    {
                      "internalType": "uint16",
                      "name": "minBasisFee",
                      "type": "uint16"
                    },
                    {
                      "internalType": "uint16",
                      "name": "maxBasisFee",
                      "type": "uint16"
                    },
                    {
                      "internalType": "uint256",
                      "name": "liquidityTarget",
                      "type": "uint256"
                    },
                    {
                      "components": [
                        {
                          "internalType": "uint64",
                          "name": "numerator",
                          "type": "uint64"
                        },
                        {
                          "internalType": "uint64",
                          "name": "denominator",
                          "type": "uint64"
                        }
                      ],
                      "internalType": "struct Fee.Data",
                      "name": "treasuryCut",
                      "type": "tuple"
                    }
                  ],
                  "internalType": "struct InstantUnstakeFee.Data",
                  "name": "instantUnstake",
                  "type": "tuple"
                }
              ],
              "internalType": "struct FeeDistribution.Data",
              "name": "fee",
              "type": "tuple"
            },
            {
              "internalType": "address",
              "name": "treasuryAcc",
              "type": "address"
            }
          ],
          "internalType": "struct Config.Data",
          "name": "config_",
          "type": "tuple"
        }
      ],
      "name": "updateConfig",
      "outputs": [],
      "stateMutability": "nonpayable",
      "type": "function"
    },
    {
      "stateMutability": "payable",
      "type": "receive"
    }
  ],
  "bytecode": "0x60806040523480156200001157600080fd5b50600054610100900460ff166200002f5760005460ff161562000039565b62000039620000de565b620000a15760405162461bcd60e51b815260206004820152602e60248201527f496e697469616c697a61626c653a20636f6e747261637420697320616c72656160448201526d191e481a5b9a5d1a585b1a5e995960921b606482015260840160405180910390fd5b600054610100900460ff16158015620000c4576000805461ffff19166101011790555b8015620000d7576000805461ff00191690555b5062000102565b6000620000f630620000fc60201b620028c11760201c565b15905090565b3b151590565b615b9480620001126000396000f3fe6080604052600436106102015760003560e01c806379502c551161011d578063a217fddf116100b0578063ca15c8731161007f578063d547741f11610064578063d547741f14610692578063e6f96633146106b2578063f773d87d146106ba57610238565b8063ca15c8731461066a578063d0e30db01461068a57610238565b8063a217fddf146105d4578063b1503774146105e9578063b67586171461061d578063c6788bdd1461063d57610238565b806391d14854116100ec57806391d148541461054b57806395a6bb3c1461059e57806395dca2bc146105b7578063a0948264146105bf57610238565b806379502c55146104ac5780638456cb59146104d157806386872bde146104e65780639010d07c1461050657610238565b8063379607f5116101955780634bec9453116101645780634bec94531461042a5780634e0995ab1461045d578063597ad452146104745780635c975abb1461049457610238565b8063379607f5146103a35780633ba0b9a9146103c35780633f4ba83a146103f557806343b188781461040a57610238565b806307ebe003116101d157806307ebe00314610313578063248a9ca3146103335780632f2ff15d1461036357806336568abe1461038357610238565b806223de291461027757806301ffc9a71461029957806302f8ffd1146102ce57806303f24de1146102f357610238565b36610238576040517f29a270f500000000000000000000000000000000000000000000000000000000815260040160405180910390fd5b34801561024457600080fd5b506040517f29a270f500000000000000000000000000000000000000000000000000000000815260040160405180910390fd5b34801561028357600080fd5b50610297610292366004614e24565b61070f565b005b3480156102a557600080fd5b506102b96102b4366004614f6c565b610b2a565b60405190151581526020015b60405180910390f35b3480156102da57600080fd5b506102e561010a5481565b6040519081526020016102c5565b3480156102ff57600080fd5b5061029761030e366004615010565b610b86565b34801561031f57600080fd5b5061029761032e366004614f01565b610e29565b34801561033f57600080fd5b506102e561034e366004614f01565b60009081526065602052604090206001015490565b34801561036f57600080fd5b5061029761037e366004614f1a565b610ef6565b34801561038f57600080fd5b5061029761039e366004614f1a565b610f1c565b3480156103af57600080fd5b506102976103be366004614f01565b610fcf565b3480156103cf57600080fd5b5061010c5461010d546103e0919082565b604080519283526020830191909152016102c5565b34801561040157600080fd5b50610297611346565b34801561041657600080fd5b50610297610425366004614f01565b61135d565b34801561043657600080fd5b5061044a610445366004614f01565b611548565b60405161ffff90911681526020016102c5565b34801561046957600080fd5b506102e561010b5481565b34801561048057600080fd5b5061029761048f366004614e07565b6115b7565b3480156104a057600080fd5b5060c95460ff166102b9565b3480156104b857600080fd5b506104c1611696565b6040516102c594939291906156e9565b3480156104dd57600080fd5b506102976118fd565b3480156104f257600080fd5b50610297610501366004614fae565b611911565b34801561051257600080fd5b50610526610521366004614f4a565b611a3a565b60405173ffffffffffffffffffffffffffffffffffffffff90911681526020016102c5565b34801561055757600080fd5b506102b9610566366004614f1a565b600091825260656020908152604080842073ffffffffffffffffffffffffffffffffffffffff93909316845291905290205460ff1690565b3480156105aa57600080fd5b506102e564e8d4a5100081565b610297611a59565b3480156105cb57600080fd5b506102e5611d76565b3480156105e057600080fd5b506102e5600081565b3480156105f557600080fd5b506102e57f6d5c9827c1f410bbb61d3b2a0a34b6b30492d9a1fd38588edca7ec4562ab9c9b81565b34801561062957600080fd5b506102976106383660046150e3565b611d8e565b34801561064957600080fd5b5061065d610658366004614e07565b611da5565b6040516102c59190615360565b34801561067657600080fd5b506102e5610685366004614f01565b611e55565b610297611e6c565b34801561069e57600080fd5b506102976106ad366004614f1a565b612654565b61029761267a565b3480156106c657600080fd5b506106da6106d5366004614ed5565b612870565b6040805194855273ffffffffffffffffffffffffffffffffffffffff90931660208501529183015260608201526080016102c5565b60c95460ff1615610781576040517f08c379a000000000000000000000000000000000000000000000000000000000815260206004820152601060248201527f5061757361626c653a207061757365640000000000000000000000000000000060448201526064015b60405180910390fd5b60fb5473ffffffffffffffffffffffffffffffffffffffff163314610828576040517f08c379a000000000000000000000000000000000000000000000000000000000815260206004820152602e60248201527f7874616b653a20746f6b656e7352656365697665642063616c6c65642062792060448201527f756e6b6e6f776e2073656e6465720000000000000000000000000000000000006064820152608401610778565b73ffffffffffffffffffffffffffffffffffffffff87166108cb576040517f08c379a000000000000000000000000000000000000000000000000000000000815260206004820152602b60248201527f7874616b653a20746f6b656e7352656365697665642066726f6d20746865207a60448201527f65726f20616464726573730000000000000000000000000000000000000000006064820152608401610778565b73ffffffffffffffffffffffffffffffffffffffff8716301415610971576040517f08c379a000000000000000000000000000000000000000000000000000000000815260206004820152602160248201527f7874616b653a20746f6b656e7352656365697665642066726f6d20697473656c60448201527f66000000000000000000000000000000000000000000000000000000000000006064820152608401610778565b604080517f7874616b653a20746f6b656e73526563656976656420666f722061646472657360208201527f733a20000000000000000000000000000000000000000000000000000000000081830152606088901b7fffffffffffffffffffffffffffffffffffffffff00000000000000000000000016604382015281516037818303018152605790910190915273ffffffffffffffffffffffffffffffffffffffff87163014610a4e576040517f08c379a000000000000000000000000000000000000000000000000000000000815260040161077891906153cb565b50604080517f7874616b653a204578706563746564206d696e207769746864726177616c3a20602082015264e8d4a510009181018290527f2c20676f743a2000000000000000000000000000000000000000000000000000606082015260678101879052908610159060870160405160208183030381529060405290610b01576040517f08c379a000000000000000000000000000000000000000000000000000000000815260040161077891906153cb565b5082610b1657610b1187866128c7565b610b20565b610b208786612b46565b5050505050505050565b60007fffffffff0000000000000000000000000000000000000000000000000000000082167f5a05180f000000000000000000000000000000000000000000000000000000001480610b805750610b8082612e13565b92915050565b60c95460ff1615610bf3576040517f08c379a000000000000000000000000000000000000000000000000000000000815260206004820152601060248201527f5061757361626c653a20706175736564000000000000000000000000000000006044820152606401610778565b7f6d5c9827c1f410bbb61d3b2a0a34b6b30492d9a1fd38588edca7ec4562ab9c9b610c1e8133612eaa565b61010b54610c2d90600161589f565b61010a5414610cbe576040517f08c379a000000000000000000000000000000000000000000000000000000000815260206004820152603560248201527f7874616b653a20616c6c2065786563757461626c65206c6f677320686176656e60448201527f2774206265656e206578656375746564207965742100000000000000000000006064820152608401610778565b610ccd633b9aca0060196158f2565b821015610cdf633b9aca0060196158f2565b604080517f7874616b653a204578706563746564206d696e2064656c65676174696f6e3a206020820152908101919091527f2c20676f743a200000000000000000000000000000000000000000000000000060608201526067810184905260870160405160208183030381529060405290610d87576040517f08c379a000000000000000000000000000000000000000000000000000000000815260040161077891906153cb565b504760fe541115610e1a576040517f08c379a000000000000000000000000000000000000000000000000000000000815260206004820152603260248201527f7874616b653a2043616e27742069737375652064656c65676174696f6e2e205560448201527f6e73617469736669656420636c61696d732e00000000000000000000000000006064820152608401610778565b610e248383612f7c565b505050565b60c95460ff1615610e96576040517f08c379a000000000000000000000000000000000000000000000000000000000815260206004820152601060248201527f5061757361626c653a20706175736564000000000000000000000000000000006044820152606401610778565b7f6d5c9827c1f410bbb61d3b2a0a34b6b30492d9a1fd38588edca7ec4562ab9c9b610ec18133612eaa565b61010b82905560405182907f35120097366493406f2303b5402a4389f4749b66945cfa7a8771a1974e49750890600090a25050565b600082815260656020526040902060010154610f128133612eaa565b610e248383613010565b73ffffffffffffffffffffffffffffffffffffffff81163314610fc1576040517f08c379a000000000000000000000000000000000000000000000000000000000815260206004820152602f60248201527f416363657373436f6e74726f6c3a2063616e206f6e6c792072656e6f756e636560448201527f20726f6c657320666f722073656c6600000000000000000000000000000000006064820152608401610778565b610fcb8282613032565b5050565b60c95460ff161561103c576040517f08c379a000000000000000000000000000000000000000000000000000000000815260206004820152601060248201527f5061757361626c653a20706175736564000000000000000000000000000000006044820152606401610778565b60006110483383613054565b33600090815261010e6020526040812091925090826032811061106d5761106d615ade565b604080516080810182526004929092029290920180548252600181015473ffffffffffffffffffffffffffffffffffffffff16602083018190526002820154938301939093526003015460608201529150331461114c576040517f08c379a000000000000000000000000000000000000000000000000000000000815260206004820152602360248201527f7874616b653a2043616e277420636c61696d20666f7220736f6d656f6e65206560448201527f6c736500000000000000000000000000000000000000000000000000000000006064820152608401610778565b428160600151106111df576040517f08c379a000000000000000000000000000000000000000000000000000000000815260206004820152602260248201527f7874616b653a2043616e277420636c61696d206265666f726520646561646c6960448201527f6e650000000000000000000000000000000000000000000000000000000000006064820152608401610778565b8060400151471015611273576040517f08c379a000000000000000000000000000000000000000000000000000000000815260206004820152603960248201527f7874616b653a20436f6e74726163742068617320696e73756666696369656e7460448201527f2062616c616e636520746f207361746973667920636c61696d000000000000006064820152608401610778565b806040015160fe60008282546112899190615952565b909155505033600090815261010e6020526040902082603281106112af576112af615ade565b6000600491909102919091018181556001810180547fffffffffffffffffffffffff0000000000000000000000000000000000000000169055600281018290556003018190556020820151604080840151905173ffffffffffffffffffffffffffffffffffffffff909216926108fc8215029290818181858888f19350505050158015611340573d6000803e3d6000fd5b50505050565b60006113528133612eaa565b61135a61315f565b50565b60c95460ff16156113ca576040517f08c379a000000000000000000000000000000000000000000000000000000000815260206004820152601060248201527f5061757361626c653a20706175736564000000000000000000000000000000006044820152606401610778565b7f6d5c9827c1f410bbb61d3b2a0a34b6b30492d9a1fd38588edca7ec4562ab9c9b6113f58133612eaa565b61010b5461140490600161589f565b61010a5414611495576040517f08c379a000000000000000000000000000000000000000000000000000000000815260206004820152603560248201527f7874616b653a20616c6c2065786563757461626c65206c6f677320686176656e60448201527f2774206265656e206578656375746564207965742100000000000000000000006064820152608401610778565b476114a9670de0b6b3a764000060016158f2565b83106114b8576114b88361323b565b8060fe5410156114f657600060fe54826114d29190615952565b90506114e7670de0b6b3a764000060196158f2565b8110611340576113408161334e565b611500838261589f565b60fe541115610e24576000838260fe5461151a9190615952565b6115249190615952565b9050611539670de0b6b3a764000060016158f2565b81106113405761134081613425565b60fc5460009073ffffffffffffffffffffffffffffffffffffffff16318161157261010c85613514565b9050600082821061159157506101065462010000900461ffff166115af565b600061159d8385615952565b90506115ab6101068261355c565b9150505b949350505050565b60006115c38133612eaa565b60405173ffffffffffffffffffffffffffffffffffffffff8316904780156108fc02916000818181858888f19350505050158015611605573d6000803e3d6000fd5b5060fc546040517f53c333cd00000000000000000000000000000000000000000000000000000000815273ffffffffffffffffffffffffffffffffffffffff848116600483015290911680316024830152906353c333cd90604401600060405180830381600087803b15801561167a57600080fd5b505af115801561168e573d6000803e3d6000fd5b505050505050565b60ff806000016040518060400160405290816000820180546116b7906159ca565b80601f01602080910402602001604051908101604052809291908181526020018280546116e3906159ca565b80156117305780601f1061170557610100808354040283529160200191611730565b820191906000526020600020905b81548152906001019060200180831161171357829003601f168201915b50505091835250506001919091015473ffffffffffffffffffffffffffffffffffffffff16602090910152604080518082019091526002830180549293928290829061177b906159ca565b80601f01602080910402602001604051908101604052809291908181526020018280546117a7906159ca565b80156117f45780601f106117c9576101008083540402835291602001916117f4565b820191906000526020600020905b8154815290600101906020018083116117d757829003601f168201915b50505091835250506001919091015473ffffffffffffffffffffffffffffffffffffffff9081166020928301526040805160c081018252600486015467ffffffffffffffff80821660808085019182526801000000000000000093849004831660a08601529084528451808601865260058a01548084168252849004831681890152848801528451808601865260068a015480841682528490048316818901528486015284519081018552600789015461ffff808216835262010000909104168188015260088901548186015284518086019095526009890154808316865292909204169483019490945260608481019290925290810192909252600a90930154919290911684565b60006119098133612eaa565b61135a6135ca565b600054610100900460ff1661192c5760005460ff1615611930565b303b155b6119bc576040517f08c379a000000000000000000000000000000000000000000000000000000000815260206004820152602e60248201527f496e697469616c697a61626c653a20636f6e747261637420697320616c72656160448201527f647920696e697469616c697a65640000000000000000000000000000000000006064820152608401610778565b600054610100900460ff161580156119fb57600080547fffffffffffffffffffffffffffffffffffffffffffffffffffffffffffff0000166101011790555b611a0684848461368a565b801561134057600080547fffffffffffffffffffffffffffffffffffffffffffffffffffffffffffff00ff16905550505050565b6000828152609760205260408120611a529083613754565b9392505050565b60c95460ff1615611ac6576040517f08c379a000000000000000000000000000000000000000000000000000000000815260206004820152601060248201527f5061757361626c653a20706175736564000000000000000000000000000000006044820152606401610778565b6101025473ffffffffffffffffffffffffffffffffffffffff163314611b48576040517f08c379a000000000000000000000000000000000000000000000000000000000815260206004820152601560248201527f7874616b653a20756e6b6e6f776e2073656e64657200000000000000000000006044820152606401610778565b611b5b670de0b6b3a764000060016158f2565b341015611b71670de0b6b3a764000060016158f2565b6040517f7874616b653a204578706563746564206d696e205032433a2000000000000000602082015260398101919091527f2c20676f743a2000000000000000000000000000000000000000000000000000605982015234606082015260800160405160208183030381529060405290611c18576040517f08c379a000000000000000000000000000000000000000000000000000000000815260040161077891906153cb565b506000611c2761010334613760565b90506000813461010c60000154611c3e919061589f565b611c489190615952565b61010d54611c5690846158f2565b611c6091906158b7565b9050611c8e604051806040016040528034815260200183815250600061010c6137929092919063ffffffff16565b60fb54610109546040517fdcdc7dd000000000000000000000000000000000000000000000000000000000815273ffffffffffffffffffffffffffffffffffffffff9182166004820152602481018490526080604482015260006084820181905260a0606483015260a482015291169063dcdc7dd09060c401600060405180830381600087803b158015611d2157600080fd5b505af1158015611d35573d6000803e3d6000fd5b505050507f9f8f0f9252d89a1f4d3d5de3a164a75579c92b5b745179b8c348a579c4ec3cf934604051611d6a91815260200190565b60405180910390a15050565b611d8b620f4240670de0b6b3a76400006158b7565b81565b6000611d9a8133612eaa565b610fcb60ff83613825565b611dad614c87565b73ffffffffffffffffffffffffffffffffffffffff8216600090815261010e6020526040808220815161064081019092529091603290835b82821015611e4a57604080516080810182526004840286018054825260018082015473ffffffffffffffffffffffffffffffffffffffff1660208085019190915260028301549484019490945260039091015460608301529083529092019101611de5565b505050509050919050565b6000818152609760205260408120610b80906138f1565b60c95460ff1615611ed9576040517f08c379a000000000000000000000000000000000000000000000000000000000815260206004820152601060248201527f5061757361626c653a20706175736564000000000000000000000000000000006044820152606401610778565b611eee620f4240670de0b6b3a76400006158b7565b341015611f06620f4240670de0b6b3a76400006158b7565b34604051602001611f959291907f7874616b653a204578706563746564206d696e696d756d206465706f7369743a81527f2000000000000000000000000000000000000000000000000000000000000000602082015260218101929092527f2c20676f743a20000000000000000000000000000000000000000000000000006041830152604882015260680190565b60405160208183030381529060405290611fdc576040517f08c379a000000000000000000000000000000000000000000000000000000000815260040161077891906153cb565b50346000611fec61010c836138fb565b90506000611ffc61010483613760565b9050600061200a8284615952565b60fb5460fc546040517f70a0823100000000000000000000000000000000000000000000000000000000815273ffffffffffffffffffffffffffffffffffffffff91821660048201529293506000926120c29291909116906370a082319060240160206040518083038186803b15801561208357600080fd5b505afa158015612097573d6000803e3d6000fd5b505050506040513d601f19601f820116820180604052508101906120bb919061513c565b859061392b565b905080156124c0576000818514156120db5750846120ea565b6120e761010c83613514565b90505b60fc60009054906101000a900473ffffffffffffffffffffffffffffffffffffffff1673ffffffffffffffffffffffffffffffffffffffff166315488b88826040518263ffffffff1660e01b81526004016000604051808303818588803b15801561215457600080fd5b505af1158015612168573d6000803e3d6000fd5b505050505080866121799190615952565b95508183116122495760fb5460fc546040517f62ad1b8300000000000000000000000000000000000000000000000000000000815273ffffffffffffffffffffffffffffffffffffffff91821660048201523360248201526044810186905260a06064820152600060a4820181905260c0608483015260c48201529116906362ad1b839060e401600060405180830381600087803b15801561221a57600080fd5b505af115801561222e573d6000803e3d6000fd5b50505050828261223e9190615952565b91506000925061230c565b60fb5460fc546040517f62ad1b8300000000000000000000000000000000000000000000000000000000815273ffffffffffffffffffffffffffffffffffffffff91821660048201523360248201526044810185905260a06064820152600060a4820181905260c0608483015260c48201529116906362ad1b839060e401600060405180830381600087803b1580156122e157600080fd5b505af11580156122f5573d6000803e3d6000fd5b5050505081836123059190615952565b9250600091505b60008211801561231c5750600084115b156124be578184116123f55760fb5460fc54610109546040517f62ad1b8300000000000000000000000000000000000000000000000000000000815273ffffffffffffffffffffffffffffffffffffffff928316600482015290821660248201526044810187905260a06064820152600060a4820181905260c0608483015260c48201529116906362ad1b839060e401600060405180830381600087803b1580156123c657600080fd5b505af11580156123da573d6000803e3d6000fd5b5050505083826123ea9190615952565b9150600093506124be565b60fb5460fc54610109546040517f62ad1b8300000000000000000000000000000000000000000000000000000000815273ffffffffffffffffffffffffffffffffffffffff928316600482015290821660248201526044810185905260a06064820152600060a4820181905260c0608483015260c48201529116906362ad1b839060e401600060405180830381600087803b15801561249357600080fd5b505af11580156124a7573d6000803e3d6000fd5b5050505081846124b79190615952565b9350600091505b505b6124ed604051806040016040528087815260200185856124e0919061589f565b905261010c906000613792565b811561259a5760fb546040517fdcdc7dd0000000000000000000000000000000000000000000000000000000008152336004820152602481018490526080604482015260006084820181905260a0606483015260a482015273ffffffffffffffffffffffffffffffffffffffff9091169063dcdc7dd09060c401600060405180830381600087803b15801561258157600080fd5b505af1158015612595573d6000803e3d6000fd5b505050505b821561264d5760fb54610109546040517fdcdc7dd000000000000000000000000000000000000000000000000000000000815273ffffffffffffffffffffffffffffffffffffffff9182166004820152602481018690526080604482015260006084820181905260a0606483015260a482015291169063dcdc7dd09060c4015b600060405180830381600087803b15801561263457600080fd5b505af1158015612648573d6000803e3d6000fd5b505050505b5050505050565b6000828152606560205260409020600101546126708133612eaa565b610e248383613032565b60c95460ff16156126e7576040517f08c379a000000000000000000000000000000000000000000000000000000000815260206004820152601060248201527f5061757361626c653a20706175736564000000000000000000000000000000006044820152606401610778565b6101005473ffffffffffffffffffffffffffffffffffffffff163314612769576040517f08c379a000000000000000000000000000000000000000000000000000000000815260206004820152601560248201527f7874616b653a20756e6b6e6f776e2073656e64657200000000000000000000006044820152606401610778565b61277c670de0b6b3a764000060016158f2565b341015612792670de0b6b3a764000060016158f2565b6040517f7874616b653a204578706563746564206d696e205032433a2000000000000000602082015260398101919091527f2c20676f743a2000000000000000000000000000000000000000000000000000605982015234606082015260800160405160208183030381529060405290612839576040517f08c379a000000000000000000000000000000000000000000000000000000000815260040161077891906153cb565b506040513481527f3e381d9455624317e454137f789dc81c3387337c0bb3dcb01cd62392554d5d57906020015b60405180910390a1565b61010e602052816000526040600020816032811061288d57600080fd5b6004020180546001820154600283015460039093015491945073ffffffffffffffffffffffffffffffffffffffff16925084565b3b151590565b60006128d561010583613760565b905060006128e38284615952565b905060006128f361010c83613514565b9050604051806080016040528060fd5481526020018673ffffffffffffffffffffffffffffffffffffffff1681526020018281526020014262127500612939919061589f565b612946906201518061589f565b905273ffffffffffffffffffffffffffffffffffffffff8616600090815261010e6020526040902061297787613941565b6032811061298757612987615ade565b600402016000820151816000015560208201518160010160006101000a81548173ffffffffffffffffffffffffffffffffffffffff021916908373ffffffffffffffffffffffffffffffffffffffff16021790555060408201518160020155606082015181600301559050508060fe6000828254612a05919061589f565b909155505060fd8054906000612a1a83615a18565b90915550506040805180820190915281815260208101839052612a429061010c906001613792565b60fb54604080517ffe9d93030000000000000000000000000000000000000000000000000000000081526004810185905260248101919091526000604482015273ffffffffffffffffffffffffffffffffffffffff9091169063fe9d930390606401600060405180830381600087803b158015612abe57600080fd5b505af1158015612ad2573d6000803e3d6000fd5b505060fb54610109546040517f9bd9bbc600000000000000000000000000000000000000000000000000000000815273ffffffffffffffffffffffffffffffffffffffff918216600482015260248101889052606060448201526000606482015291169250639bd9bbc6915060840161261a565b6000612b5182611548565b90506000612b6361ffff831684613a38565b90506000612b7d612b748386615952565b61010c90613514565b60fc5490915073ffffffffffffffffffffffffffffffffffffffff1631811115612c03576040517f08c379a000000000000000000000000000000000000000000000000000000000815260206004820152601d60248201527f7874616b653a20696e73756666696369656e74206c69717569646974790000006044820152606401610778565b8015612c965760fc546040517f53c333cd00000000000000000000000000000000000000000000000000000000815273ffffffffffffffffffffffffffffffffffffffff878116600483015260248201849052909116906353c333cd90604401600060405180830381600087803b158015612c7d57600080fd5b505af1158015612c91573d6000803e3d6000fd5b505050505b6000612ca461010884613760565b90508015612d4a5760fb54610109546040517f9bd9bbc600000000000000000000000000000000000000000000000000000000815273ffffffffffffffffffffffffffffffffffffffff9182166004820152602481018490526060604482015260006064820152911690639bd9bbc690608401600060405180830381600087803b158015612d3157600080fd5b505af1158015612d45573d6000803e3d6000fd5b505050505b60fb5460fc5473ffffffffffffffffffffffffffffffffffffffff91821691639bd9bbc69116612d7a8489615952565b6040517fffffffff0000000000000000000000000000000000000000000000000000000060e085901b16815273ffffffffffffffffffffffffffffffffffffffff909216600483015260248201526060604482015260006064820152608401600060405180830381600087803b158015612df357600080fd5b505af1158015612e07573d6000803e3d6000fd5b50505050505050505050565b60007fffffffff0000000000000000000000000000000000000000000000000000000082167f7965db0b000000000000000000000000000000000000000000000000000000001480610b8057507f01ffc9a7000000000000000000000000000000000000000000000000000000007fffffffff00000000000000000000000000000000000000000000000000000000831614610b80565b600082815260656020908152604080832073ffffffffffffffffffffffffffffffffffffffff8516845290915290205460ff16610fcb57612f028173ffffffffffffffffffffffffffffffffffffffff166014613a4b565b612f0d836020613a4b565b604051602001612f1e9291906152df565b604080517fffffffffffffffffffffffffffffffffffffffffffffffffffffffffffffffe0818403018152908290527f08c379a0000000000000000000000000000000000000000000000000000000008252610778916004016153cb565b6000612f8a42610e1061589f565b90506000612f9b826212750061589f565b612fa790610e1061589f565b61010a54604051919250907fc4f8dcb175edd2d287c0f4a45eaae7003bd541365fb64b80e2b6e27f3ea6331690612fec9060ff908890879087908a90610101906153de565b60405180910390a261010a805490600061300583615a18565b919050555050505050565b61301a8282613c8e565b6000828152609760205260409020610e249082613d82565b61303c8282613da4565b6000828152609760205260409020610e249082613e5f565b60008060005b60328110156130d65773ffffffffffffffffffffffffffffffffffffffff8516600090815261010e60205260409020816032811061309a5761309a615ade565b6004020191506130a982613e81565b1580156130b65750815484145b156130c4579150610b809050565b806130ce81615a18565b91505061305a565b506040517f08c379a000000000000000000000000000000000000000000000000000000000815260206004820152602a60248201527f7874616b653a2052657175657374656420636c61696d206e6f7420666f756e6460448201527f20666f7220757365722e000000000000000000000000000000000000000000006064820152608401610778565b60c95460ff166131cb576040517f08c379a000000000000000000000000000000000000000000000000000000000815260206004820152601460248201527f5061757361626c653a206e6f74207061757365640000000000000000000000006044820152606401610778565b60c980547fffffffffffffffffffffffffffffffffffffffffffffffffffffffffffffff001690557f5db9ee0a495bf2e6ff9c91a7834c1ba4fdd244a5e8aa4e537bd38aeae4b073aa335b60405173ffffffffffffffffffffffffffffffffffffffff9091168152602001612866565b61010a547fb04ddaee13e68c74d352d11a70e613e403b1b24538ca6622e4c58d426bdbdc1d61010180613272633b9aca00866158b7565b60405161328193929190615627565b60405180910390a261010a805490600061329a83615a18565b909155505061010a546040517f806bd3a4b5612a7b8b03ea3f60b7372355920d3fbe794808fcb12f928af828ea906132d790610101908190615587565b60405180910390a261010a80549060006132f083615a18565b909155505061010a546040517fea61e513a1092d60f8828ae83ba208fe6dd45ee90763fb7537170504af26a69a9061332d906101019085906156c7565b60405180910390a261010a805490600061334683615a18565b919050555050565b6101005460405173ffffffffffffffffffffffffffffffffffffffff9091169082156108fc029083906000818181858888f19350505050158015613396573d6000803e3d6000fd5b5061010a546040517fb04ddaee13e68c74d352d11a70e613e403b1b24538ca6622e4c58d426bdbdc1d906133d09060ff90819086906154da565b60405180910390a261010a80549060006133e983615a18565b909155505061010a546040517f806bd3a4b5612a7b8b03ea3f60b7372355920d3fbe794808fcb12f928af828ea9061332d9060ff908190615436565b61010a547fb04ddaee13e68c74d352d11a70e613e403b1b24538ca6622e4c58d426bdbdc1d60ff8061345b633b9aca00866158b7565b60405161346a93929190615627565b60405180910390a261010a805490600061348383615a18565b909155505061010a546040517f806bd3a4b5612a7b8b03ea3f60b7372355920d3fbe794808fcb12f928af828ea906134bf9060ff908190615587565b60405180910390a261010a80549060006134d883615a18565b909155505061010a546040517f10836ebf82fff7ae8e49aa9295a9f32f12d3ed29cd7ac83f3c191da020e6434a9061332d9060ff9085906156c7565b8154600090819061352590846158f2565b600185015490915080821080613539575080155b1561354957600092505050610b80565b61355381836158b7565b95945050505050565b6000826001015482106135755750815461ffff16610b80565b6001830154835483906135959061ffff808216916201000090041661592f565b61ffff166135a391906158f2565b6135ad91906158b7565b83546135c3919062010000900461ffff1661592f565b9050610b80565b60c95460ff1615613637576040517f08c379a000000000000000000000000000000000000000000000000000000000815260206004820152601060248201527f5061757361626c653a20706175736564000000000000000000000000000000006044820152606401610778565b60c980547fffffffffffffffffffffffffffffffffffffffffffffffffffffffffffffff001660011790557f62e78cea01bee320cd4e420270b5ea74000d11b0c9f74754ebdbfc544b05a2586132163390565b600054610100900460ff16613721576040517f08c379a000000000000000000000000000000000000000000000000000000000815260206004820152602b60248201527f496e697469616c697a61626c653a20636f6e7472616374206973206e6f74206960448201527f6e697469616c697a696e670000000000000000000000000000000000000000006064820152608401610778565b613729613edc565b613731613edc565b613739613edc565b613741613edc565b613749613f75565b610e24838383614036565b6000611a528383614206565b815460009067ffffffffffffffff6801000000000000000082048116916137889116846158f2565b611a5291906158b7565b60008160018111156137a6576137a6615a80565b14156137e9578151835484906000906137c090849061589f565b909155505060208201516001840180546000906137de90849061589f565b90915550610e249050565b8151835484906000906137fd908490615952565b9091555050602082015160018401805460009061381b908490615952565b9091555050505050565b6138396138328280615861565b8390614230565b6138536138496020830183615861565b6002840190614230565b6138636004830160408301614255565b60006138776101c083016101a08401614e07565b73ffffffffffffffffffffffffffffffffffffffff1614610fcb576138a46101c082016101a08301614e07565b600a8301805473ffffffffffffffffffffffffffffffffffffffff929092167fffffffffffffffffffffffff00000000000000000000000000000000000000009092169190911790555050565b6000610b80825490565b8154600090158061390e57506001830154155b1561391a575080610b80565b8254600184015461378890846158f2565b600081831061393a5781611a52565b5090919050565b6000805b60328110156139af5773ffffffffffffffffffffffffffffffffffffffff8316600090815261010e6020526040902061399290826032811061398957613989615ade565b60040201613e81565b1561399d5792915050565b806139a781615a18565b915050613945565b506040517f08c379a000000000000000000000000000000000000000000000000000000000815260206004820152602c60248201527f7874616b653a205573657220686173207265616368656420746865206d61782060448201527f636c61696d206c696d69742e00000000000000000000000000000000000000006064820152608401610778565b600061271061378861ffff8516846158f2565b60606000613a5a8360026158f2565b613a6590600261589f565b67ffffffffffffffff811115613a7d57613a7d615b0d565b6040519080825280601f01601f191660200182016040528015613aa7576020820181803683370190505b5090507f300000000000000000000000000000000000000000000000000000000000000081600081518110613ade57613ade615ade565b60200101907effffffffffffffffffffffffffffffffffffffffffffffffffffffffffffff1916908160001a9053507f780000000000000000000000000000000000000000000000000000000000000081600181518110613b4157613b41615ade565b60200101907effffffffffffffffffffffffffffffffffffffffffffffffffffffffffffff1916908160001a9053506000613b7d8460026158f2565b613b8890600161589f565b90505b6001811115613c25577f303132333435363738396162636465660000000000000000000000000000000085600f1660108110613bc957613bc9615ade565b1a60f81b828281518110613bdf57613bdf615ade565b60200101907effffffffffffffffffffffffffffffffffffffffffffffffffffffffffffff1916908160001a90535060049490941c93613c1e81615995565b9050613b8b565b508315611a52576040517f08c379a000000000000000000000000000000000000000000000000000000000815260206004820181905260248201527f537472696e67733a20686578206c656e67746820696e73756666696369656e746044820152606401610778565b600082815260656020908152604080832073ffffffffffffffffffffffffffffffffffffffff8516845290915290205460ff16610fcb57600082815260656020908152604080832073ffffffffffffffffffffffffffffffffffffffff85168452909152902080547fffffffffffffffffffffffffffffffffffffffffffffffffffffffffffffff00166001179055613d243390565b73ffffffffffffffffffffffffffffffffffffffff168173ffffffffffffffffffffffffffffffffffffffff16837f2f8788117e7eff1d82e926ec794901d17c78024a50270940304540a733656f0d60405160405180910390a45050565b6000611a528373ffffffffffffffffffffffffffffffffffffffff841661428f565b600082815260656020908152604080832073ffffffffffffffffffffffffffffffffffffffff8516845290915290205460ff1615610fcb57600082815260656020908152604080832073ffffffffffffffffffffffffffffffffffffffff8516808552925280832080547fffffffffffffffffffffffffffffffffffffffffffffffffffffffffffffff0016905551339285917ff6391f5c32d9c69d2a47ea670b442974b53935d1edc7fd64eb21e047a839171b9190a45050565b6000611a528373ffffffffffffffffffffffffffffffffffffffff84166142de565b8054600090158015613eab5750600182015473ffffffffffffffffffffffffffffffffffffffff16155b8015613eb957506002820154155b8015613ec757506003820154155b15613ed457506001919050565b506000919050565b600054610100900460ff16613f73576040517f08c379a000000000000000000000000000000000000000000000000000000000815260206004820152602b60248201527f496e697469616c697a61626c653a20636f6e7472616374206973206e6f74206960448201527f6e697469616c697a696e670000000000000000000000000000000000000000006064820152608401610778565b565b600054610100900460ff1661400c576040517f08c379a000000000000000000000000000000000000000000000000000000000815260206004820152602b60248201527f496e697469616c697a61626c653a20636f6e7472616374206973206e6f74206960448201527f6e697469616c697a696e670000000000000000000000000000000000000000006064820152608401610778565b60c980547fffffffffffffffffffffffffffffffffffffffffffffffffffffffffffffff00169055565b600054610100900460ff166140cd576040517f08c379a000000000000000000000000000000000000000000000000000000000815260206004820152602b60248201527f496e697469616c697a61626c653a20636f6e7472616374206973206e6f74206960448201527f6e697469616c697a696e670000000000000000000000000000000000000000006064820152608401610778565b60fb805473ffffffffffffffffffffffffffffffffffffffff8086167fffffffffffffffffffffffff00000000000000000000000000000000000000009283161790925560fc805492851692909116919091179055600160fd55600060fe5561413760ff826143d1565b600061010c81905561010d55600161010a55600061010b556040517f29965a1d00000000000000000000000000000000000000000000000000000000815230600482018190527fb281fc8c12954d22544db45de3159a39272895b169a852b314f9cc762e44c53b60248301526044820152731820a4b7618bde71dce8cdc73aab6c95905fad24906329965a1d90606401600060405180830381600087803b1580156141e157600080fd5b505af11580156141f5573d6000803e3d6000fd5b50505050610e246000801b33613010565b600082600001828154811061421d5761421d615ade565b9060005260206000200154905092915050565b614239816143e4565b15614242575050565b61424b81614429565b610fcb828261452d565b61425f8282614599565b61426f6001830160408301614599565b61427f6002830160808301614599565b610fcb6003830160c083016145be565b60008181526001830160205260408120546142d657508154600181810184556000848152602080822090930184905584548482528286019093526040902091909155610b80565b506000610b80565b600081815260018301602052604081205480156143c7576000614302600183615952565b855490915060009061431690600190615952565b905081811461437b57600086600001828154811061433657614336615ade565b906000526020600020015490508087600001848154811061435957614359615ade565b6000918252602080832090910192909255918252600188019052604090208390555b855486908061438c5761438c615aaf565b600190038181906000526020600020016000905590558560010160008681526020019081526020016000206000905560019350505050610b80565b6000915050610b80565b6143da816146a8565b610fcb828261478e565b60006143f082806157fc565b1590508015610b805750600061440c6040840160208501614e07565b73ffffffffffffffffffffffffffffffffffffffff161492915050565b61443381806157fc565b1515905061449d576040517f08c379a000000000000000000000000000000000000000000000000000000000815260206004820152601b60248201527f6163636f756e743a207075626b657920697320726571756972656400000000006044820152606401610778565b60006144af6040830160208401614e07565b73ffffffffffffffffffffffffffffffffffffffff16141561135a576040517f08c379a000000000000000000000000000000000000000000000000000000000815260206004820152601960248201527f6163636f756e743a2061646472206973207265717569726564000000000000006044820152606401610778565b61453d6040820160208301614e07565b6001830180547fffffffffffffffffffffffff00000000000000000000000000000000000000001673ffffffffffffffffffffffffffffffffffffffff9290921691909117905561458e81806157fc565b610e24918491614cee565b6145a2816147de565b156145ab575050565b6145b481614820565b610fcb8282614985565b6145dc6145ce6020830183615118565b61271061ffff919091161190565b61461c576145ed6020820182615118565b82547fffffffffffffffffffffffffffffffffffffffffffffffffffffffffffff00001661ffff919091161782555b61462f6145ce6040830160208401615118565b614679576146436040820160208301615118565b825461ffff9190911662010000027fffffffffffffffffffffffffffffffffffffffffffffffffffffffff0000ffff9091161782555b68056bc75e2d6310000081604001351061469857604081013560018301555b610fcb6002830160608301614599565b6146ba6146b58280615861565b614429565b6146ca6146b56020830183615861565b6146d681604001614a1b565b60006146ea6101c083016101a08401614e07565b73ffffffffffffffffffffffffffffffffffffffff16141561135a576040517f08c379a000000000000000000000000000000000000000000000000000000000815260206004820152603260248201527f636f6e6669673a207472656173757279206163636f756e742063616e2774206260448201527f6520746865207a65726f206164647265737300000000000000000000000000006064820152608401610778565b6147a261479b8280615861565b839061452d565b6147bc6147b26020830183615861565b600284019061452d565b6147cc6004830160408301614a48565b6138a46101c082016101a08301614e07565b60006147ed6020830183615155565b67ffffffffffffffff16158015610b80575061480f6040830160208401615155565b67ffffffffffffffff161592915050565b6148306040820160208301615155565b67ffffffffffffffff166148c6576040517f08c379a000000000000000000000000000000000000000000000000000000000815260206004820152602160248201527f6665653a2064656e6f6d696e61746f72206d757374206265206e6f6e2d7a657260448201527f6f000000000000000000000000000000000000000000000000000000000000006064820152608401610778565b6148d66040820160208301615155565b67ffffffffffffffff166148ed6020830183615155565b67ffffffffffffffff16111561135a576040517f08c379a000000000000000000000000000000000000000000000000000000000815260206004820152603860248201527f6665653a206e756d657261746f72206d757374206265206c657373207468616e60448201527f206f7220657175616c20746f2064656e6f6d696e61746f7200000000000000006064820152608401610778565b6149926020820182615155565b82547fffffffffffffffffffffffffffffffffffffffffffffffff00000000000000001667ffffffffffffffff919091161782556149d66040820160208301615155565b825467ffffffffffffffff9190911668010000000000000000027fffffffffffffffffffffffffffffffff0000000000000000ffffffffffffffff9091161790915550565b614a2481614820565b614a3081604001614820565b614a3c81608001614820565b61135a8160c001614a82565b614a528282614985565b614a626001830160408301614985565b614a726002830160808301614985565b610fcb6003830160c08301614b57565b614a9b614a926020830183615118565b61ffff16614bf1565b614aae614a926040830160208401615118565b68056bc75e2d6310000081604001351015614b4b576040517f08c379a000000000000000000000000000000000000000000000000000000000815260206004820152603f60248201527f696e7374616e74556e7374616b654665653a206c69717569646974792074617260448201527f6765742073686f756c64206265206174206c65617374203130302041564158006064820152608401610778565b61135a81606001614820565b614b646020820182615118565b82547fffffffffffffffffffffffffffffffffffffffffffffffffffffffffffff00001661ffff91909116178255614ba26040820160208301615118565b825461ffff9190911662010000027fffffffffffffffffffffffffffffffffffffffffffffffffffffffff0000ffff90911617825560408101356001830155610fcb6002830160608301614985565b61271061ffff8216111561135a576040517f08c379a000000000000000000000000000000000000000000000000000000000815260206004820152602c60248201527f62617369734665653a206e756d657261746f722063616e2774206265206d6f7260448201527f65207468616e20313030303000000000000000000000000000000000000000006064820152608401610778565b6040518061064001604052806032905b614cd8604051806080016040528060008152602001600073ffffffffffffffffffffffffffffffffffffffff16815260200160008152602001600081525090565b815260200190600190039081614c975790505090565b828054614cfa906159ca565b90600052602060002090601f016020900481019282614d1c5760008555614d80565b82601f10614d53578280017fffffffffffffffffffffffffffffffffffffffffffffffffffffffffffffff00823516178555614d80565b82800160010185558215614d80579182015b82811115614d80578235825591602001919060010190614d65565b50614d8c929150614d90565b5090565b5b80821115614d8c5760008155600101614d91565b60008083601f840112614db757600080fd5b50813567ffffffffffffffff811115614dcf57600080fd5b602083019150836020828501011115614de757600080fd5b9250929050565b60006101c08284031215614e0157600080fd5b50919050565b600060208284031215614e1957600080fd5b8135611a5281615b3c565b60008060008060008060008060c0898b031215614e4057600080fd5b8835614e4b81615b3c565b97506020890135614e5b81615b3c565b96506040890135614e6b81615b3c565b955060608901359450608089013567ffffffffffffffff80821115614e8f57600080fd5b614e9b8c838d01614da5565b909650945060a08b0135915080821115614eb457600080fd5b50614ec18b828c01614da5565b999c989b5096995094979396929594505050565b60008060408385031215614ee857600080fd5b8235614ef381615b3c565b946020939093013593505050565b600060208284031215614f1357600080fd5b5035919050565b60008060408385031215614f2d57600080fd5b823591506020830135614f3f81615b3c565b809150509250929050565b60008060408385031215614f5d57600080fd5b50508035926020909101359150565b600060208284031215614f7e57600080fd5b81357fffffffff0000000000000000000000000000000000000000000000000000000081168114611a5257600080fd5b600080600060608486031215614fc357600080fd5b8335614fce81615b3c565b92506020840135614fde81615b3c565b9150604084013567ffffffffffffffff811115614ffa57600080fd5b61500686828701614dee565b9150509250925092565b6000806040838503121561502357600080fd5b823567ffffffffffffffff8082111561503b57600080fd5b818501915085601f83011261504f57600080fd5b81358181111561506157615061615b0d565b604051601f82017fffffffffffffffffffffffffffffffffffffffffffffffffffffffffffffffe0908116603f011681019083821181831017156150a7576150a7615b0d565b816040528281528860208487010111156150c057600080fd5b826020860160208301376000602093820184015298969091013596505050505050565b6000602082840312156150f557600080fd5b813567ffffffffffffffff81111561510c57600080fd5b6115af84828501614dee565b60006020828403121561512a57600080fd5b813561ffff81168114611a5257600080fd5b60006020828403121561514e57600080fd5b5051919050565b60006020828403121561516757600080fd5b813567ffffffffffffffff81168114611a5257600080fd5b60008151808452615197816020860160208601615969565b601f017fffffffffffffffffffffffffffffffffffffffffffffffffffffffffffffffe0169290920160200192915050565b8054600090600181811c90808316806151e357607f831692505b602080841082141561521e577f4e487b7100000000000000000000000000000000000000000000000000000000600052602260045260246000fd5b83885260208801828015615239576001811461526857615293565b7fffffffffffffffffffffffffffffffffffffffffffffffffffffffffffffff00871682528282019750615293565b60008981526020902060005b8781101561528d57815484820152908601908401615274565b83019850505b5050505050505092915050565b60008151604084526152b5604085018261517f565b60209384015173ffffffffffffffffffffffffffffffffffffffff16949093019390935250919050565b7f416363657373436f6e74726f6c3a206163636f756e7420000000000000000000815260008351615317816017850160208801615969565b7f206973206d697373696e6720726f6c65200000000000000000000000000000006017918401918201528351615354816028840160208801615969565b01602801949350505050565b6119008101818360005b60328110156153c25781518051845260208082015173ffffffffffffffffffffffffffffffffffffffff168186015260408083015190860152606091820151918501919091526080909301929091019060010161536a565b50505092915050565b602081526000611a52602083018461517f565b60c0815260006153f160c08301896151c9565b8281036020840152615403818961517f565b905086604084015285606084015284608084015282810360a084015261542981856151c9565b9998505050505050505050565b60808152600061544960808301856151c9565b828103602084015261545b81856151c9565b9050828103604084015261549981600181527f4300000000000000000000000000000000000000000000000000000000000000602082015260400190565b8381036060850152600181527f5000000000000000000000000000000000000000000000000000000000000000602082015290506040810195945050505050565b60a0815260006154ed60a08301866151c9565b82810360208401526154ff81866151c9565b9050828103604084015261553d81600181527f4300000000000000000000000000000000000000000000000000000000000000602082015260400190565b8381036060850152600181527f500000000000000000000000000000000000000000000000000000000000000060208201529050604081015b915050826080830152949350505050565b60808152600061559a60808301856151c9565b82810360208401526155ac81856151c9565b905082810360408401526155ea81600181527f5000000000000000000000000000000000000000000000000000000000000000602082015260400190565b8381036060850152600181527f43000000000000000000000000000000000000000000000000000000000000006020820152905060408101613553565b60a08152600061563a60a08301866151c9565b828103602084015261564c81866151c9565b9050828103604084015261568a81600181527f5000000000000000000000000000000000000000000000000000000000000000602082015260400190565b8381036060850152600181527f43000000000000000000000000000000000000000000000000000000000000006020820152905060408101615576565b6040815260006156da60408301856151c9565b90508260208301529392505050565b60006101c08083526156fd818401886152a0565b9050828103602084015261571181876152a0565b915050615739604083018551805167ffffffffffffffff908116835260209182015116910152565b60208401516157626080840182805167ffffffffffffffff908116835260209182015116910152565b506040840151805167ffffffffffffffff90811660c085015260208201511660e084015250606084810151805161ffff908116610100860152602082015116610120850152604081015161014085015201516157d9610160840182805167ffffffffffffffff908116835260209182015116910152565b5073ffffffffffffffffffffffffffffffffffffffff83166101a0830152613553565b60008083357fffffffffffffffffffffffffffffffffffffffffffffffffffffffffffffffe184360301811261583157600080fd5b83018035915067ffffffffffffffff82111561584c57600080fd5b602001915036819003821315614de757600080fd5b600082357fffffffffffffffffffffffffffffffffffffffffffffffffffffffffffffffc183360301811261589557600080fd5b9190910192915050565b600082198211156158b2576158b2615a51565b500190565b6000826158ed577f4e487b7100000000000000000000000000000000000000000000000000000000600052601260045260246000fd5b500490565b6000817fffffffffffffffffffffffffffffffffffffffffffffffffffffffffffffffff048311821515161561592a5761592a615a51565b500290565b600061ffff8381169083168181101561594a5761594a615a51565b039392505050565b60008282101561596457615964615a51565b500390565b60005b8381101561598457818101518382015260200161596c565b838111156113405750506000910152565b6000816159a4576159a4615a51565b507fffffffffffffffffffffffffffffffffffffffffffffffffffffffffffffffff0190565b600181811c908216806159de57607f821691505b60208210811415614e01577f4e487b7100000000000000000000000000000000000000000000000000000000600052602260045260246000fd5b60007fffffffffffffffffffffffffffffffffffffffffffffffffffffffffffffffff821415615a4a57615a4a615a51565b5060010190565b7f4e487b7100000000000000000000000000000000000000000000000000000000600052601160045260246000fd5b7f4e487b7100000000000000000000000000000000000000000000000000000000600052602160045260246000fd5b7f4e487b7100000000000000000000000000000000000000000000000000000000600052603160045260246000fd5b7f4e487b7100000000000000000000000000000000000000000000000000000000600052603260045260246000fd5b7f4e487b7100000000000000000000000000000000000000000000000000000000600052604160045260246000fd5b73ffffffffffffffffffffffffffffffffffffffff8116811461135a57600080fdfea26469706673582212200a832b961648ddd42be9bfa58acfb5b762f82d86e645498c6033919c9a5e748364736f6c63430008070033",
  "linkReferences": {},
  "deployedLinkReferences": {}
}