{
  "_format": "hh-sol-artifact-1",
  "contractName": "LiquidStaking",
  "sourceName": "contracts/LiquidStaking.sol",
  "abi": [
    {
      "inputs": [],
      "stateMutability": "nonpayable",
      "type": "constructor"
    },
    {
      "inputs": [],
      "name": "OperationNotSupported",
      "type": "error"
    },
    {
      "anonymous": false,
      "inputs": [
        {
          "indexed": true,
          "internalType": "uint256",
          "name": "currLogSeq",
          "type": "uint256"
        },
        {
          "indexed": false,
          "internalType": "string",
          "name": "fromPrincipalPubkey",
          "type": "string"
        },
        {
          "indexed": false,
          "internalType": "string",
          "name": "toNodeID",
          "type": "string"
        },
        {
          "indexed": false,
          "internalType": "uint256",
          "name": "startTime",
          "type": "uint256"
        },
        {
          "indexed": false,
          "internalType": "uint256",
          "name": "endTime",
          "type": "uint256"
        },
        {
          "indexed": false,
          "internalType": "uint256",
          "name": "amount",
          "type": "uint256"
        },
        {
          "indexed": false,
          "internalType": "string",
          "name": "rewardPubkey",
          "type": "string"
        }
      ],
      "name": "AddDelegator",
      "type": "event"
    },
    {
      "anonymous": false,
      "inputs": [
        {
          "indexed": true,
          "internalType": "uint256",
          "name": "currLogSeq",
          "type": "uint256"
        },
        {
          "indexed": false,
          "internalType": "string",
          "name": "srcPubkey",
          "type": "string"
        },
        {
          "indexed": false,
          "internalType": "string",
          "name": "destPubkey",
          "type": "string"
        },
        {
          "indexed": false,
          "internalType": "string",
          "name": "srcChain",
          "type": "string"
        },
        {
          "indexed": false,
          "internalType": "string",
          "name": "destChain",
          "type": "string"
        },
        {
          "indexed": false,
          "internalType": "uint256",
          "name": "amount",
          "type": "uint256"
        }
      ],
      "name": "ExportAvax",
      "type": "event"
    },
    {
      "anonymous": false,
      "inputs": [
        {
          "indexed": true,
          "internalType": "uint256",
          "name": "currLogSeq",
          "type": "uint256"
        },
        {
          "indexed": false,
          "internalType": "string",
          "name": "srcPubkey",
          "type": "string"
        },
        {
          "indexed": false,
          "internalType": "string",
          "name": "destPubkey",
          "type": "string"
        },
        {
          "indexed": false,
          "internalType": "string",
          "name": "srcChain",
          "type": "string"
        },
        {
          "indexed": false,
          "internalType": "string",
          "name": "destChain",
          "type": "string"
        }
      ],
      "name": "ImportAvax",
      "type": "event"
    },
    {
      "anonymous": false,
      "inputs": [
        {
          "indexed": false,
          "internalType": "address",
          "name": "account",
          "type": "address"
        }
      ],
      "name": "Paused",
      "type": "event"
    },
    {
      "anonymous": false,
      "inputs": [
        {
          "indexed": false,
          "internalType": "uint256",
          "name": "amount",
          "type": "uint256"
        }
      ],
      "name": "ReceivedPrincipal",
      "type": "event"
    },
    {
      "anonymous": false,
      "inputs": [
        {
          "indexed": false,
          "internalType": "uint256",
          "name": "amount",
          "type": "uint256"
        }
      ],
      "name": "ReceivedRewards",
      "type": "event"
    },
    {
      "anonymous": false,
      "inputs": [
        {
          "indexed": true,
          "internalType": "bytes32",
          "name": "role",
          "type": "bytes32"
        },
        {
          "indexed": true,
          "internalType": "bytes32",
          "name": "previousAdminRole",
          "type": "bytes32"
        },
        {
          "indexed": true,
          "internalType": "bytes32",
          "name": "newAdminRole",
          "type": "bytes32"
        }
      ],
      "name": "RoleAdminChanged",
      "type": "event"
    },
    {
      "anonymous": false,
      "inputs": [
        {
          "indexed": true,
          "internalType": "bytes32",
          "name": "role",
          "type": "bytes32"
        },
        {
          "indexed": true,
          "internalType": "address",
          "name": "account",
          "type": "address"
        },
        {
          "indexed": true,
          "internalType": "address",
          "name": "sender",
          "type": "address"
        }
      ],
      "name": "RoleGranted",
      "type": "event"
    },
    {
      "anonymous": false,
      "inputs": [
        {
          "indexed": true,
          "internalType": "bytes32",
          "name": "role",
          "type": "bytes32"
        },
        {
          "indexed": true,
          "internalType": "address",
          "name": "account",
          "type": "address"
        },
        {
          "indexed": true,
          "internalType": "address",
          "name": "sender",
          "type": "address"
        }
      ],
      "name": "RoleRevoked",
      "type": "event"
    },
    {
      "anonymous": false,
      "inputs": [
        {
          "indexed": true,
          "internalType": "uint256",
          "name": "currLogSeq",
          "type": "uint256"
        },
        {
          "indexed": false,
          "internalType": "string",
          "name": "fromPubkey",
          "type": "string"
        },
        {
          "indexed": false,
          "internalType": "uint256",
          "name": "amount",
          "type": "uint256"
        }
      ],
      "name": "SubmitPrincipal",
      "type": "event"
    },
    {
      "anonymous": false,
      "inputs": [
        {
          "indexed": true,
          "internalType": "uint256",
          "name": "currLogSeq",
          "type": "uint256"
        },
        {
          "indexed": false,
          "internalType": "string",
          "name": "fromPubkey",
          "type": "string"
        },
        {
          "indexed": false,
          "internalType": "uint256",
          "name": "amount",
          "type": "uint256"
        }
      ],
      "name": "SubmitRewards",
      "type": "event"
    },
    {
      "anonymous": false,
      "inputs": [
        {
          "indexed": false,
          "internalType": "address",
          "name": "account",
          "type": "address"
        }
      ],
      "name": "Unpaused",
      "type": "event"
    },
    {
      "anonymous": false,
      "inputs": [
        {
          "indexed": true,
          "internalType": "uint256",
          "name": "seq",
          "type": "uint256"
        }
      ],
      "name": "UpdatedSignLogSeq",
      "type": "event"
    },
    {
      "stateMutability": "nonpayable",
      "type": "fallback"
    },
    {
      "inputs": [],
      "name": "BOT_ROLE",
      "outputs": [
        {
          "internalType": "bytes32",
          "name": "",
          "type": "bytes32"
        }
      ],
      "stateMutability": "view",
      "type": "function"
    },
    {
      "inputs": [],
      "name": "DEFAULT_ADMIN_ROLE",
      "outputs": [
        {
          "internalType": "bytes32",
          "name": "",
          "type": "bytes32"
        }
      ],
      "stateMutability": "view",
      "type": "function"
    },
    {
      "inputs": [
        {
          "internalType": "uint256",
          "name": "id",
          "type": "uint256"
        }
      ],
      "name": "claim",
      "outputs": [],
      "stateMutability": "nonpayable",
      "type": "function"
    },
    {
      "inputs": [
        {
          "internalType": "address",
          "name": "",
          "type": "address"
        },
        {
          "internalType": "uint256",
          "name": "",
          "type": "uint256"
        }
      ],
      "name": "claimReqs",
      "outputs": [
        {
          "internalType": "uint256",
          "name": "id",
          "type": "uint256"
        },
        {
          "internalType": "address",
          "name": "user",
          "type": "address"
        },
        {
          "internalType": "uint256",
          "name": "weiToReturn",
          "type": "uint256"
        },
        {
          "internalType": "uint256",
          "name": "deadline",
          "type": "uint256"
        }
      ],
      "stateMutability": "view",
      "type": "function"
    },
    {
      "inputs": [
        {
          "internalType": "address",
          "name": "user",
          "type": "address"
        }
      ],
      "name": "claims",
      "outputs": [
        {
          "components": [
            {
              "internalType": "uint256",
              "name": "id",
              "type": "uint256"
            },
            {
              "internalType": "address",
              "name": "user",
              "type": "address"
            },
            {
              "internalType": "uint256",
              "name": "weiToReturn",
              "type": "uint256"
            },
            {
              "internalType": "uint256",
              "name": "deadline",
              "type": "uint256"
            }
          ],
          "internalType": "struct ClaimRequest.Data[50]",
          "name": "",
          "type": "tuple[50]"
        }
      ],
      "stateMutability": "view",
      "type": "function"
    },
    {
      "inputs": [],
      "name": "config",
      "outputs": [
        {
          "components": [
            {
              "internalType": "string",
              "name": "pubkey",
              "type": "string"
            },
            {
              "internalType": "address",
              "name": "addr",
              "type": "address"
            }
          ],
          "internalType": "struct Account.Data",
          "name": "principalAcc",
          "type": "tuple"
        },
        {
          "components": [
            {
              "internalType": "string",
              "name": "pubkey",
              "type": "string"
            },
            {
              "internalType": "address",
              "name": "addr",
              "type": "address"
            }
          ],
          "internalType": "struct Account.Data",
          "name": "rewardAcc",
          "type": "tuple"
        },
        {
          "components": [
            {
              "components": [
                {
                  "internalType": "uint64",
                  "name": "numerator",
                  "type": "uint64"
                },
                {
                  "internalType": "uint64",
                  "name": "denominator",
                  "type": "uint64"
                }
              ],
              "internalType": "struct Fee.Data",
              "name": "reward",
              "type": "tuple"
            },
            {
              "components": [
                {
                  "internalType": "uint64",
                  "name": "numerator",
                  "type": "uint64"
                },
                {
                  "internalType": "uint64",
                  "name": "denominator",
                  "type": "uint64"
                }
              ],
              "internalType": "struct Fee.Data",
              "name": "deposit",
              "type": "tuple"
            },
            {
              "components": [
                {
                  "internalType": "uint64",
                  "name": "numerator",
                  "type": "uint64"
                },
                {
                  "internalType": "uint64",
                  "name": "denominator",
                  "type": "uint64"
                }
              ],
              "internalType": "struct Fee.Data",
              "name": "delayedUnstake",
              "type": "tuple"
            },
            {
              "components": [
                {
                  "internalType": "uint16",
                  "name": "minBasisFee",
                  "type": "uint16"
                },
                {
                  "internalType": "uint16",
                  "name": "maxBasisFee",
                  "type": "uint16"
                },
                {
                  "internalType": "uint256",
                  "name": "liquidityTarget",
                  "type": "uint256"
                },
                {
                  "components": [
                    {
                      "internalType": "uint64",
                      "name": "numerator",
                      "type": "uint64"
                    },
                    {
                      "internalType": "uint64",
                      "name": "denominator",
                      "type": "uint64"
                    }
                  ],
                  "internalType": "struct Fee.Data",
                  "name": "treasuryCut",
                  "type": "tuple"
                }
              ],
              "internalType": "struct InstantUnstakeFee.Data",
              "name": "instantUnstake",
              "type": "tuple"
            }
          ],
          "internalType": "struct FeeDistribution.Data",
          "name": "fee",
          "type": "tuple"
        },
        {
          "internalType": "address",
          "name": "treasuryAcc",
          "type": "address"
        }
      ],
      "stateMutability": "view",
      "type": "function"
    },
    {
      "inputs": [
        {
          "internalType": "string",
          "name": "toNodeID",
          "type": "string"
        },
        {
          "internalType": "uint256",
          "name": "pChainAmount",
          "type": "uint256"
        }
      ],
      "name": "delegate",
      "outputs": [],
      "stateMutability": "nonpayable",
      "type": "function"
    },
    {
      "inputs": [],
      "name": "deposit",
      "outputs": [],
      "stateMutability": "payable",
      "type": "function"
    },
    {
      "inputs": [],
      "name": "exchangeRate",
      "outputs": [
        {
          "internalType": "uint256",
          "name": "totalWei",
          "type": "uint256"
        },
        {
          "internalType": "uint256",
          "name": "poolTokenSupply",
          "type": "uint256"
        }
      ],
      "stateMutability": "view",
      "type": "function"
    },
    {
      "inputs": [
        {
          "internalType": "bytes32",
          "name": "role",
          "type": "bytes32"
        }
      ],
      "name": "getRoleAdmin",
      "outputs": [
        {
          "internalType": "bytes32",
          "name": "",
          "type": "bytes32"
        }
      ],
      "stateMutability": "view",
      "type": "function"
    },
    {
      "inputs": [
        {
          "internalType": "bytes32",
          "name": "role",
          "type": "bytes32"
        },
        {
          "internalType": "uint256",
          "name": "index",
          "type": "uint256"
        }
      ],
      "name": "getRoleMember",
      "outputs": [
        {
          "internalType": "address",
          "name": "",
          "type": "address"
        }
      ],
      "stateMutability": "view",
      "type": "function"
    },
    {
      "inputs": [
        {
          "internalType": "bytes32",
          "name": "role",
          "type": "bytes32"
        }
      ],
      "name": "getRoleMemberCount",
      "outputs": [
        {
          "internalType": "uint256",
          "name": "",
          "type": "uint256"
        }
      ],
      "stateMutability": "view",
      "type": "function"
    },
    {
      "inputs": [
        {
          "internalType": "bytes32",
          "name": "role",
          "type": "bytes32"
        },
        {
          "internalType": "address",
          "name": "account",
          "type": "address"
        }
      ],
      "name": "grantRole",
      "outputs": [],
      "stateMutability": "nonpayable",
      "type": "function"
    },
    {
      "inputs": [
        {
          "internalType": "bytes32",
          "name": "role",
          "type": "bytes32"
        },
        {
          "internalType": "address",
          "name": "account",
          "type": "address"
        }
      ],
      "name": "hasRole",
      "outputs": [
        {
          "internalType": "bool",
          "name": "",
          "type": "bool"
        }
      ],
      "stateMutability": "view",
      "type": "function"
    },
    {
      "inputs": [
        {
          "internalType": "contract IStakedAVAXToken",
          "name": "poolToken_",
          "type": "address"
        },
        {
          "internalType": "contract ILiquidityPool",
          "name": "lp_",
          "type": "address"
        },
        {
          "components": [
            {
              "components": [
                {
                  "internalType": "string",
                  "name": "pubkey",
                  "type": "string"
                },
                {
                  "internalType": "address",
                  "name": "addr",
                  "type": "address"
                }
              ],
              "internalType": "struct Account.Data",
              "name": "principalAcc",
              "type": "tuple"
            },
            {
              "components": [
                {
                  "internalType": "string",
                  "name": "pubkey",
                  "type": "string"
                },
                {
                  "internalType": "address",
                  "name": "addr",
                  "type": "address"
                }
              ],
              "internalType": "struct Account.Data",
              "name": "rewardAcc",
              "type": "tuple"
            },
            {
              "components": [
                {
                  "components": [
                    {
                      "internalType": "uint64",
                      "name": "numerator",
                      "type": "uint64"
                    },
                    {
                      "internalType": "uint64",
                      "name": "denominator",
                      "type": "uint64"
                    }
                  ],
                  "internalType": "struct Fee.Data",
                  "name": "reward",
                  "type": "tuple"
                },
                {
                  "components": [
                    {
                      "internalType": "uint64",
                      "name": "numerator",
                      "type": "uint64"
                    },
                    {
                      "internalType": "uint64",
                      "name": "denominator",
                      "type": "uint64"
                    }
                  ],
                  "internalType": "struct Fee.Data",
                  "name": "deposit",
                  "type": "tuple"
                },
                {
                  "components": [
                    {
                      "internalType": "uint64",
                      "name": "numerator",
                      "type": "uint64"
                    },
                    {
                      "internalType": "uint64",
                      "name": "denominator",
                      "type": "uint64"
                    }
                  ],
                  "internalType": "struct Fee.Data",
                  "name": "delayedUnstake",
                  "type": "tuple"
                },
                {
                  "components": [
                    {
                      "internalType": "uint16",
                      "name": "minBasisFee",
                      "type": "uint16"
                    },
                    {
                      "internalType": "uint16",
                      "name": "maxBasisFee",
                      "type": "uint16"
                    },
                    {
                      "internalType": "uint256",
                      "name": "liquidityTarget",
                      "type": "uint256"
                    },
                    {
                      "components": [
                        {
                          "internalType": "uint64",
                          "name": "numerator",
                          "type": "uint64"
                        },
                        {
                          "internalType": "uint64",
                          "name": "denominator",
                          "type": "uint64"
                        }
                      ],
                      "internalType": "struct Fee.Data",
                      "name": "treasuryCut",
                      "type": "tuple"
                    }
                  ],
                  "internalType": "struct InstantUnstakeFee.Data",
                  "name": "instantUnstake",
                  "type": "tuple"
                }
              ],
              "internalType": "struct FeeDistribution.Data",
              "name": "fee",
              "type": "tuple"
            },
            {
              "internalType": "address",
              "name": "treasuryAcc",
              "type": "address"
            }
          ],
          "internalType": "struct Config.Data",
          "name": "config_",
          "type": "tuple"
        }
      ],
      "name": "initialize",
      "outputs": [],
      "stateMutability": "nonpayable",
      "type": "function"
    },
    {
      "inputs": [],
      "name": "nextLogSeq",
      "outputs": [
        {
          "internalType": "uint256",
          "name": "",
          "type": "uint256"
        }
      ],
      "stateMutability": "view",
      "type": "function"
    },
    {
      "inputs": [],
      "name": "pause",
      "outputs": [],
      "stateMutability": "nonpayable",
      "type": "function"
    },
    {
      "inputs": [],
      "name": "paused",
      "outputs": [
        {
          "internalType": "bool",
          "name": "",
          "type": "bool"
        }
      ],
      "stateMutability": "view",
      "type": "function"
    },
    {
      "inputs": [
        {
          "internalType": "uint256",
          "name": "pRewardBalance",
          "type": "uint256"
        }
      ],
      "name": "periodicUpdate",
      "outputs": [],
      "stateMutability": "nonpayable",
      "type": "function"
    },
    {
      "inputs": [
        {
          "internalType": "bytes32",
          "name": "role",
          "type": "bytes32"
        },
        {
          "internalType": "address",
          "name": "account",
          "type": "address"
        }
      ],
      "name": "renounceRole",
      "outputs": [],
      "stateMutability": "nonpayable",
      "type": "function"
    },
    {
      "inputs": [
        {
          "internalType": "bytes32",
          "name": "role",
          "type": "bytes32"
        },
        {
          "internalType": "address",
          "name": "account",
          "type": "address"
        }
      ],
      "name": "revokeRole",
      "outputs": [],
      "stateMutability": "nonpayable",
      "type": "function"
    },
    {
      "inputs": [
        {
          "internalType": "address",
          "name": "admin",
          "type": "address"
        }
      ],
      "name": "sendAllAvaxTo",
      "outputs": [],
      "stateMutability": "nonpayable",
      "type": "function"
    },
    {
      "inputs": [
        {
          "internalType": "uint256",
          "name": "seq",
          "type": "uint256"
        }
      ],
      "name": "setSignLogSeq",
      "outputs": [],
      "stateMutability": "nonpayable",
      "type": "function"
    },
    {
      "inputs": [],
      "name": "signLogSeq",
      "outputs": [
        {
          "internalType": "uint256",
          "name": "",
          "type": "uint256"
        }
      ],
      "stateMutability": "view",
      "type": "function"
    },
    {
      "inputs": [],
      "name": "submitPrincipal",
      "outputs": [],
      "stateMutability": "payable",
      "type": "function"
    },
    {
      "inputs": [],
      "name": "submitRewards",
      "outputs": [],
      "stateMutability": "payable",
      "type": "function"
    },
    {
      "inputs": [
        {
          "internalType": "bytes4",
          "name": "interfaceId",
          "type": "bytes4"
        }
      ],
      "name": "supportsInterface",
      "outputs": [
        {
          "internalType": "bool",
          "name": "",
          "type": "bool"
        }
      ],
      "stateMutability": "view",
      "type": "function"
    },
    {
      "inputs": [
        {
          "internalType": "address",
          "name": "",
          "type": "address"
        },
        {
          "internalType": "address",
          "name": "from",
          "type": "address"
        },
        {
          "internalType": "address",
          "name": "to",
          "type": "address"
        },
        {
          "internalType": "uint256",
          "name": "amount",
          "type": "uint256"
        },
        {
          "internalType": "bytes",
          "name": "userData",
          "type": "bytes"
        },
        {
          "internalType": "bytes",
          "name": "",
          "type": "bytes"
        }
      ],
      "name": "tokensReceived",
      "outputs": [],
      "stateMutability": "nonpayable",
      "type": "function"
    },
    {
      "inputs": [],
      "name": "unpause",
      "outputs": [],
      "stateMutability": "nonpayable",
      "type": "function"
    },
    {
      "inputs": [
        {
          "components": [
            {
              "components": [
                {
                  "internalType": "string",
                  "name": "pubkey",
                  "type": "string"
                },
                {
                  "internalType": "address",
                  "name": "addr",
                  "type": "address"
                }
              ],
              "internalType": "struct Account.Data",
              "name": "principalAcc",
              "type": "tuple"
            },
            {
              "components": [
                {
                  "internalType": "string",
                  "name": "pubkey",
                  "type": "string"
                },
                {
                  "internalType": "address",
                  "name": "addr",
                  "type": "address"
                }
              ],
              "internalType": "struct Account.Data",
              "name": "rewardAcc",
              "type": "tuple"
            },
            {
              "components": [
                {
                  "components": [
                    {
                      "internalType": "uint64",
                      "name": "numerator",
                      "type": "uint64"
                    },
                    {
                      "internalType": "uint64",
                      "name": "denominator",
                      "type": "uint64"
                    }
                  ],
                  "internalType": "struct Fee.Data",
                  "name": "reward",
                  "type": "tuple"
                },
                {
                  "components": [
                    {
                      "internalType": "uint64",
                      "name": "numerator",
                      "type": "uint64"
                    },
                    {
                      "internalType": "uint64",
                      "name": "denominator",
                      "type": "uint64"
                    }
                  ],
                  "internalType": "struct Fee.Data",
                  "name": "deposit",
                  "type": "tuple"
                },
                {
                  "components": [
                    {
                      "internalType": "uint64",
                      "name": "numerator",
                      "type": "uint64"
                    },
                    {
                      "internalType": "uint64",
                      "name": "denominator",
                      "type": "uint64"
                    }
                  ],
                  "internalType": "struct Fee.Data",
                  "name": "delayedUnstake",
                  "type": "tuple"
                },
                {
                  "components": [
                    {
                      "internalType": "uint16",
                      "name": "minBasisFee",
                      "type": "uint16"
                    },
                    {
                      "internalType": "uint16",
                      "name": "maxBasisFee",
                      "type": "uint16"
                    },
                    {
                      "internalType": "uint256",
                      "name": "liquidityTarget",
                      "type": "uint256"
                    },
                    {
                      "components": [
                        {
                          "internalType": "uint64",
                          "name": "numerator",
                          "type": "uint64"
                        },
                        {
                          "internalType": "uint64",
                          "name": "denominator",
                          "type": "uint64"
                        }
                      ],
                      "internalType": "struct Fee.Data",
                      "name": "treasuryCut",
                      "type": "tuple"
                    }
                  ],
                  "internalType": "struct InstantUnstakeFee.Data",
                  "name": "instantUnstake",
                  "type": "tuple"
                }
              ],
              "internalType": "struct FeeDistribution.Data",
              "name": "fee",
              "type": "tuple"
            },
            {
              "internalType": "address",
              "name": "treasuryAcc",
              "type": "address"
            }
          ],
          "internalType": "struct Config.Data",
          "name": "config_",
          "type": "tuple"
        }
      ],
      "name": "updateConfig",
      "outputs": [],
      "stateMutability": "nonpayable",
      "type": "function"
    },
    {
      "stateMutability": "payable",
      "type": "receive"
    }
  ],
  "bytecode": "0x60806040523480156200001157600080fd5b50600054610100900460ff166200002f5760005460ff161562000039565b62000039620000de565b620000a15760405162461bcd60e51b815260206004820152602e60248201527f496e697469616c697a61626c653a20636f6e747261637420697320616c72656160448201526d191e481a5b9a5d1a585b1a5e995960921b606482015260840160405180910390fd5b600054610100900460ff16158015620000c4576000805461ffff19166101011790555b8015620000d7576000805461ff00191690555b5062000102565b6000620000f630620000fc60201b620026c71760201c565b15905090565b3b151590565b6159c380620001126000396000f3fe6080604052600436106101d05760003560e01c806379502c55116100f7578063b150377411610095578063d0e30db011610064578063d0e30db0146105f8578063d547741f14610600578063e6f9663314610620578063f773d87d1461062857610207565b8063b150377414610557578063b67586171461058b578063c6788bdd146105ab578063ca15c873146105d857610207565b80639010d07c116100d15780639010d07c146104a257806391d14854146104e757806395dca2bc1461053a578063a217fddf1461054257610207565b806379502c55146104485780638456cb591461046d57806386872bde1461048257610207565b806336568abe1161016f57806343b188781161013e57806343b18878146103d95780634e0995ab146103f9578063597ad452146104105780635c975abb1461043057610207565b806336568abe14610352578063379607f5146103725780633ba0b9a9146103925780633f4ba83a146103c457610207565b806303f24de1116101ab57806303f24de1146102c257806307ebe003146102e2578063248a9ca3146103025780632f2ff15d1461033257610207565b806223de291461024657806301ffc9a71461026857806302f8ffd11461029d57610207565b36610207576040517f29a270f500000000000000000000000000000000000000000000000000000000815260040160405180910390fd5b34801561021357600080fd5b506040517f29a270f500000000000000000000000000000000000000000000000000000000815260040160405180910390fd5b34801561025257600080fd5b50610266610261366004614c4b565b61067d565b005b34801561027457600080fd5b50610288610283366004614d93565b610a97565b60405190151581526020015b60405180910390f35b3480156102a957600080fd5b506102b461010a5481565b604051908152602001610294565b3480156102ce57600080fd5b506102666102dd366004614e37565b610af3565b3480156102ee57600080fd5b506102666102fd366004614d28565b610d96565b34801561030e57600080fd5b506102b461031d366004614d28565b60009081526065602052604090206001015490565b34801561033e57600080fd5b5061026661034d366004614d41565b610e63565b34801561035e57600080fd5b5061026661036d366004614d41565b610e89565b34801561037e57600080fd5b5061026661038d366004614d28565b610f3c565b34801561039e57600080fd5b5061010c5461010d546103af919082565b60408051928352602083019190915201610294565b3480156103d057600080fd5b506102666112b3565b3480156103e557600080fd5b506102666103f4366004614d28565b6112ca565b34801561040557600080fd5b506102b461010b5481565b34801561041c57600080fd5b5061026661042b366004614c2e565b6114b5565b34801561043c57600080fd5b5060c95460ff16610288565b34801561045457600080fd5b5061045d611594565b6040516102949493929190615518565b34801561047957600080fd5b506102666117fb565b34801561048e57600080fd5b5061026661049d366004614dd5565b61180f565b3480156104ae57600080fd5b506104c26104bd366004614d71565b611938565b60405173ffffffffffffffffffffffffffffffffffffffff9091168152602001610294565b3480156104f357600080fd5b50610288610502366004614d41565b600091825260656020908152604080842073ffffffffffffffffffffffffffffffffffffffff93909316845291905290205460ff1690565b610266611957565b34801561054e57600080fd5b506102b4600081565b34801561056357600080fd5b506102b47f6d5c9827c1f410bbb61d3b2a0a34b6b30492d9a1fd38588edca7ec4562ab9c9b81565b34801561059757600080fd5b506102666105a6366004614f0a565b611c74565b3480156105b757600080fd5b506105cb6105c6366004614c2e565b611c8b565b604051610294919061518f565b3480156105e457600080fd5b506102b46105f3366004614d28565b611d3b565b610266611d52565b34801561060c57600080fd5b5061026661061b366004614d41565b61245a565b610266612480565b34801561063457600080fd5b50610648610643366004614cfc565b612676565b6040805194855273ffffffffffffffffffffffffffffffffffffffff9093166020850152918301526060820152608001610294565b60c95460ff16156106ef576040517f08c379a000000000000000000000000000000000000000000000000000000000815260206004820152601060248201527f5061757361626c653a207061757365640000000000000000000000000000000060448201526064015b60405180910390fd5b60fb5473ffffffffffffffffffffffffffffffffffffffff163314610796576040517f08c379a000000000000000000000000000000000000000000000000000000000815260206004820152602e60248201527f7874616b653a20746f6b656e7352656365697665642063616c6c65642062792060448201527f756e6b6e6f776e2073656e64657200000000000000000000000000000000000060648201526084016106e6565b73ffffffffffffffffffffffffffffffffffffffff8716610839576040517f08c379a000000000000000000000000000000000000000000000000000000000815260206004820152602b60248201527f7874616b653a20746f6b656e7352656365697665642066726f6d20746865207a60448201527f65726f206164647265737300000000000000000000000000000000000000000060648201526084016106e6565b73ffffffffffffffffffffffffffffffffffffffff87163014156108df576040517f08c379a000000000000000000000000000000000000000000000000000000000815260206004820152602160248201527f7874616b653a20746f6b656e7352656365697665642066726f6d20697473656c60448201527f660000000000000000000000000000000000000000000000000000000000000060648201526084016106e6565b604080517f7874616b653a20746f6b656e73526563656976656420666f722061646472657360208201527f733a20000000000000000000000000000000000000000000000000000000000081830152606088901b7fffffffffffffffffffffffffffffffffffffffff00000000000000000000000016604382015281516037818303018152605790910190915273ffffffffffffffffffffffffffffffffffffffff871630146109bc576040517f08c379a00000000000000000000000000000000000000000000000000000000081526004016106e691906151fa565b50604080517f7874616b653a204578706563746564206d696e207769746864726177616c3a206020820152633b9aca009181018290527f2c20676f743a2000000000000000000000000000000000000000000000000000606082015260678101879052908610159060870160405160208183030381529060405290610a6e576040517f08c379a00000000000000000000000000000000000000000000000000000000081526004016106e691906151fa565b5082610a8357610a7e87866126cd565b610a8d565b610a8d878661294c565b5050505050505050565b60007fffffffff0000000000000000000000000000000000000000000000000000000082167f5a05180f000000000000000000000000000000000000000000000000000000001480610aed5750610aed82612c52565b92915050565b60c95460ff1615610b60576040517f08c379a000000000000000000000000000000000000000000000000000000000815260206004820152601060248201527f5061757361626c653a207061757365640000000000000000000000000000000060448201526064016106e6565b7f6d5c9827c1f410bbb61d3b2a0a34b6b30492d9a1fd38588edca7ec4562ab9c9b610b8b8133612ce9565b61010b54610b9a9060016156ce565b61010a5414610c2b576040517f08c379a000000000000000000000000000000000000000000000000000000000815260206004820152603560248201527f7874616b653a20616c6c2065786563757461626c65206c6f677320686176656e60448201527f2774206265656e2065786563757465642079657421000000000000000000000060648201526084016106e6565b610c3a633b9aca006019615721565b821015610c4c633b9aca006019615721565b604080517f7874616b653a204578706563746564206d696e2064656c65676174696f6e3a206020820152908101919091527f2c20676f743a200000000000000000000000000000000000000000000000000060608201526067810184905260870160405160208183030381529060405290610cf4576040517f08c379a00000000000000000000000000000000000000000000000000000000081526004016106e691906151fa565b504760fe541115610d87576040517f08c379a000000000000000000000000000000000000000000000000000000000815260206004820152603260248201527f7874616b653a2043616e27742069737375652064656c65676174696f6e2e205560448201527f6e73617469736669656420636c61696d732e000000000000000000000000000060648201526084016106e6565b610d918383612dbb565b505050565b60c95460ff1615610e03576040517f08c379a000000000000000000000000000000000000000000000000000000000815260206004820152601060248201527f5061757361626c653a207061757365640000000000000000000000000000000060448201526064016106e6565b7f6d5c9827c1f410bbb61d3b2a0a34b6b30492d9a1fd38588edca7ec4562ab9c9b610e2e8133612ce9565b61010b82905560405182907f35120097366493406f2303b5402a4389f4749b66945cfa7a8771a1974e49750890600090a25050565b600082815260656020526040902060010154610e7f8133612ce9565b610d918383612e4f565b73ffffffffffffffffffffffffffffffffffffffff81163314610f2e576040517f08c379a000000000000000000000000000000000000000000000000000000000815260206004820152602f60248201527f416363657373436f6e74726f6c3a2063616e206f6e6c792072656e6f756e636560448201527f20726f6c657320666f722073656c66000000000000000000000000000000000060648201526084016106e6565b610f388282612e71565b5050565b60c95460ff1615610fa9576040517f08c379a000000000000000000000000000000000000000000000000000000000815260206004820152601060248201527f5061757361626c653a207061757365640000000000000000000000000000000060448201526064016106e6565b6000610fb53383612e93565b33600090815261010e60205260408120919250908260328110610fda57610fda61590d565b604080516080810182526004929092029290920180548252600181015473ffffffffffffffffffffffffffffffffffffffff1660208301819052600282015493830193909352600301546060820152915033146110b9576040517f08c379a000000000000000000000000000000000000000000000000000000000815260206004820152602360248201527f7874616b653a2043616e277420636c61696d20666f7220736f6d656f6e65206560448201527f6c7365000000000000000000000000000000000000000000000000000000000060648201526084016106e6565b4281606001511061114c576040517f08c379a000000000000000000000000000000000000000000000000000000000815260206004820152602260248201527f7874616b653a2043616e277420636c61696d206265666f726520646561646c6960448201527f6e6500000000000000000000000000000000000000000000000000000000000060648201526084016106e6565b80604001514710156111e0576040517f08c379a000000000000000000000000000000000000000000000000000000000815260206004820152603960248201527f7874616b653a20436f6e74726163742068617320696e73756666696369656e7460448201527f2062616c616e636520746f207361746973667920636c61696d0000000000000060648201526084016106e6565b806040015160fe60008282546111f69190615781565b909155505033600090815261010e60205260409020826032811061121c5761121c61590d565b6000600491909102919091018181556001810180547fffffffffffffffffffffffff0000000000000000000000000000000000000000169055600281018290556003018190556020820151604080840151905173ffffffffffffffffffffffffffffffffffffffff909216926108fc8215029290818181858888f193505050501580156112ad573d6000803e3d6000fd5b50505050565b60006112bf8133612ce9565b6112c7612f86565b50565b60c95460ff1615611337576040517f08c379a000000000000000000000000000000000000000000000000000000000815260206004820152601060248201527f5061757361626c653a207061757365640000000000000000000000000000000060448201526064016106e6565b7f6d5c9827c1f410bbb61d3b2a0a34b6b30492d9a1fd38588edca7ec4562ab9c9b6113628133612ce9565b61010b546113719060016156ce565b61010a5414611402576040517f08c379a000000000000000000000000000000000000000000000000000000000815260206004820152603560248201527f7874616b653a20616c6c2065786563757461626c65206c6f677320686176656e60448201527f2774206265656e2065786563757465642079657421000000000000000000000060648201526084016106e6565b47611416670de0b6b3a76400006001615721565b83106114255761142583613062565b8060fe54101561146357600060fe548261143f9190615781565b9050611454670de0b6b3a76400006019615721565b81106112ad576112ad81613175565b61146d83826156ce565b60fe541115610d91576000838260fe546114879190615781565b6114919190615781565b90506114a6670de0b6b3a76400006001615721565b81106112ad576112ad8161324c565b60006114c18133612ce9565b60405173ffffffffffffffffffffffffffffffffffffffff8316904780156108fc02916000818181858888f19350505050158015611503573d6000803e3d6000fd5b5060fc546040517f53c333cd00000000000000000000000000000000000000000000000000000000815273ffffffffffffffffffffffffffffffffffffffff848116600483015290911680316024830152906353c333cd90604401600060405180830381600087803b15801561157857600080fd5b505af115801561158c573d6000803e3d6000fd5b505050505050565b60ff806000016040518060400160405290816000820180546115b5906157f9565b80601f01602080910402602001604051908101604052809291908181526020018280546115e1906157f9565b801561162e5780601f106116035761010080835404028352916020019161162e565b820191906000526020600020905b81548152906001019060200180831161161157829003601f168201915b50505091835250506001919091015473ffffffffffffffffffffffffffffffffffffffff166020909101526040805180820190915260028301805492939282908290611679906157f9565b80601f01602080910402602001604051908101604052809291908181526020018280546116a5906157f9565b80156116f25780601f106116c7576101008083540402835291602001916116f2565b820191906000526020600020905b8154815290600101906020018083116116d557829003601f168201915b50505091835250506001919091015473ffffffffffffffffffffffffffffffffffffffff9081166020928301526040805160c081018252600486015467ffffffffffffffff80821660808085019182526801000000000000000093849004831660a08601529084528451808601865260058a01548084168252849004831681890152848801528451808601865260068a015480841682528490048316818901528486015284519081018552600789015461ffff808216835262010000909104168188015260088901548186015284518086019095526009890154808316865292909204169483019490945260608481019290925290810192909252600a90930154919290911684565b60006118078133612ce9565b6112c761333b565b600054610100900460ff1661182a5760005460ff161561182e565b303b155b6118ba576040517f08c379a000000000000000000000000000000000000000000000000000000000815260206004820152602e60248201527f496e697469616c697a61626c653a20636f6e747261637420697320616c72656160448201527f647920696e697469616c697a656400000000000000000000000000000000000060648201526084016106e6565b600054610100900460ff161580156118f957600080547fffffffffffffffffffffffffffffffffffffffffffffffffffffffffffff0000166101011790555b6119048484846133fb565b80156112ad57600080547fffffffffffffffffffffffffffffffffffffffffffffffffffffffffffff00ff16905550505050565b600082815260976020526040812061195090836134c5565b9392505050565b60c95460ff16156119c4576040517f08c379a000000000000000000000000000000000000000000000000000000000815260206004820152601060248201527f5061757361626c653a207061757365640000000000000000000000000000000060448201526064016106e6565b6101025473ffffffffffffffffffffffffffffffffffffffff163314611a46576040517f08c379a000000000000000000000000000000000000000000000000000000000815260206004820152601560248201527f7874616b653a20756e6b6e6f776e2073656e646572000000000000000000000060448201526064016106e6565b611a59670de0b6b3a76400006001615721565b341015611a6f670de0b6b3a76400006001615721565b6040517f7874616b653a204578706563746564206d696e205032433a2000000000000000602082015260398101919091527f2c20676f743a2000000000000000000000000000000000000000000000000000605982015234606082015260800160405160208183030381529060405290611b16576040517f08c379a00000000000000000000000000000000000000000000000000000000081526004016106e691906151fa565b506000611b25610103346134d1565b90506000813461010c60000154611b3c91906156ce565b611b469190615781565b61010d54611b549084615721565b611b5e91906156e6565b9050611b8c604051806040016040528034815260200183815250600061010c6135039092919063ffffffff16565b60fb54610109546040517fdcdc7dd000000000000000000000000000000000000000000000000000000000815273ffffffffffffffffffffffffffffffffffffffff9182166004820152602481018490526080604482015260006084820181905260a0606483015260a482015291169063dcdc7dd09060c401600060405180830381600087803b158015611c1f57600080fd5b505af1158015611c33573d6000803e3d6000fd5b505050507f9f8f0f9252d89a1f4d3d5de3a164a75579c92b5b745179b8c348a579c4ec3cf934604051611c6891815260200190565b60405180910390a15050565b6000611c808133612ce9565b610f3860ff83613596565b611c93614aae565b73ffffffffffffffffffffffffffffffffffffffff8216600090815261010e6020526040808220815161064081019092529091603290835b82821015611d3057604080516080810182526004840286018054825260018082015473ffffffffffffffffffffffffffffffffffffffff1660208085019190915260028301549484019490945260039091015460608301529083529092019101611ccb565b505050509050919050565b6000818152609760205260408120610aed90613662565b60c95460ff1615611dbf576040517f08c379a000000000000000000000000000000000000000000000000000000000815260206004820152601060248201527f5061757361626c653a207061757365640000000000000000000000000000000060448201526064016106e6565b611dd5633b9aca00670de0b6b3a76400006156e6565b341015611dee633b9aca00670de0b6b3a76400006156e6565b34604051602001611e7d9291907f7874616b653a204578706563746564206d696e696d756d206465706f7369743a81527f2000000000000000000000000000000000000000000000000000000000000000602082015260218101929092527f2c20676f743a20000000000000000000000000000000000000000000000000006041830152604882015260680190565b60405160208183030381529060405290611ec4576040517f08c379a00000000000000000000000000000000000000000000000000000000081526004016106e691906151fa565b50346000611ed461010c8361366c565b90506000611ee4610104836134d1565b90506000611ef28284615781565b60fb5460fc546040517f70a0823100000000000000000000000000000000000000000000000000000000815273ffffffffffffffffffffffffffffffffffffffff9182166004820152929350600092611faa9291909116906370a082319060240160206040518083038186803b158015611f6b57600080fd5b505afa158015611f7f573d6000803e3d6000fd5b505050506040513d601f19601f82011682018060405250810190611fa39190614f6b565b859061369c565b905080156122c657600081851415611fc3575084611fd2565b611fcf61010c836136b2565b90505b60fc60009054906101000a900473ffffffffffffffffffffffffffffffffffffffff1673ffffffffffffffffffffffffffffffffffffffff166315488b88826040518263ffffffff1660e01b81526004016000604051808303818588803b15801561203c57600080fd5b505af1158015612050573d6000803e3d6000fd5b505050505080866120619190615781565b9550818311156121325760fb5460fc546040517f62ad1b8300000000000000000000000000000000000000000000000000000000815273ffffffffffffffffffffffffffffffffffffffff91821660048201523360248201526044810185905260a06064820152600060a4820181905260c0608483015260c48201529116906362ad1b839060e401600060405180830381600087803b15801561210357600080fd5b505af1158015612117573d6000803e3d6000fd5b5050505081836121279190615781565b9250600091506121f5565b60fb5460fc546040517f62ad1b8300000000000000000000000000000000000000000000000000000000815273ffffffffffffffffffffffffffffffffffffffff91821660048201523360248201526044810186905260a06064820152600060a4820181905260c0608483015260c48201529116906362ad1b839060e401600060405180830381600087803b1580156121ca57600080fd5b505af11580156121de573d6000803e3d6000fd5b505050506000925082826121f29190615781565b91505b81156122c45760fb5460fc54610109546040517f62ad1b8300000000000000000000000000000000000000000000000000000000815273ffffffffffffffffffffffffffffffffffffffff928316600482015290821660248201526044810185905260a06064820152600060a4820181905260c0608483015260c48201529116906362ad1b839060e401600060405180830381600087803b15801561229957600080fd5b505af11580156122ad573d6000803e3d6000fd5b5050505081846122bd9190615781565b9350600091505b505b6122f3604051806040016040528087815260200185856122e691906156ce565b905261010c906000613503565b81156123a05760fb546040517fdcdc7dd0000000000000000000000000000000000000000000000000000000008152336004820152602481018490526080604482015260006084820181905260a0606483015260a482015273ffffffffffffffffffffffffffffffffffffffff9091169063dcdc7dd09060c401600060405180830381600087803b15801561238757600080fd5b505af115801561239b573d6000803e3d6000fd5b505050505b82156124535760fb54610109546040517fdcdc7dd000000000000000000000000000000000000000000000000000000000815273ffffffffffffffffffffffffffffffffffffffff9182166004820152602481018690526080604482015260006084820181905260a0606483015260a482015291169063dcdc7dd09060c4015b600060405180830381600087803b15801561243a57600080fd5b505af115801561244e573d6000803e3d6000fd5b505050505b5050505050565b6000828152606560205260409020600101546124768133612ce9565b610d918383612e71565b60c95460ff16156124ed576040517f08c379a000000000000000000000000000000000000000000000000000000000815260206004820152601060248201527f5061757361626c653a207061757365640000000000000000000000000000000060448201526064016106e6565b6101005473ffffffffffffffffffffffffffffffffffffffff16331461256f576040517f08c379a000000000000000000000000000000000000000000000000000000000815260206004820152601560248201527f7874616b653a20756e6b6e6f776e2073656e646572000000000000000000000060448201526064016106e6565b612582670de0b6b3a76400006001615721565b341015612598670de0b6b3a76400006001615721565b6040517f7874616b653a204578706563746564206d696e205032433a2000000000000000602082015260398101919091527f2c20676f743a200000000000000000000000000000000000000000000000000060598201523460608201526080016040516020818303038152906040529061263f576040517f08c379a00000000000000000000000000000000000000000000000000000000081526004016106e691906151fa565b506040513481527f3e381d9455624317e454137f789dc81c3387337c0bb3dcb01cd62392554d5d57906020015b60405180910390a1565b61010e602052816000526040600020816032811061269357600080fd5b6004020180546001820154600283015460039093015491945073ffffffffffffffffffffffffffffffffffffffff16925084565b3b151590565b60006126db610105836134d1565b905060006126e98284615781565b905060006126f961010c836136b2565b9050604051806080016040528060fd5481526020018673ffffffffffffffffffffffffffffffffffffffff168152602001828152602001426212750061273f91906156ce565b61274c90620151806156ce565b905273ffffffffffffffffffffffffffffffffffffffff8616600090815261010e6020526040902061277d876136fa565b6032811061278d5761278d61590d565b600402016000820151816000015560208201518160010160006101000a81548173ffffffffffffffffffffffffffffffffffffffff021916908373ffffffffffffffffffffffffffffffffffffffff16021790555060408201518160020155606082015181600301559050508060fe600082825461280b91906156ce565b909155505060fd805490600061282083615847565b909155505060408051808201909152818152602081018390526128489061010c906001613503565b60fb54604080517ffe9d93030000000000000000000000000000000000000000000000000000000081526004810185905260248101919091526000604482015273ffffffffffffffffffffffffffffffffffffffff9091169063fe9d930390606401600060405180830381600087803b1580156128c457600080fd5b505af11580156128d8573d6000803e3d6000fd5b505060fb54610109546040517f9bd9bbc600000000000000000000000000000000000000000000000000000000815273ffffffffffffffffffffffffffffffffffffffff918216600482015260248101889052606060448201526000606482015291169250639bd9bbc69150608401612420565b60fc5473ffffffffffffffffffffffffffffffffffffffff1631600061297461010c846136b2565b9050600082821061299357506101065462010000900461ffff166129b1565b600061299f8385615781565b90506129ad610106826137f1565b9150505b60006129c161ffff83168661385f565b905060006129db6129d28388615781565b61010c906136b2565b905084811115612a47576040517f08c379a000000000000000000000000000000000000000000000000000000000815260206004820152601d60248201527f7874616b653a20696e73756666696369656e74206c697175696469747900000060448201526064016106e6565b8015612ada5760fc546040517f53c333cd00000000000000000000000000000000000000000000000000000000815273ffffffffffffffffffffffffffffffffffffffff898116600483015260248201849052909116906353c333cd90604401600060405180830381600087803b158015612ac157600080fd5b505af1158015612ad5573d6000803e3d6000fd5b505050505b6000612ae8610108846134d1565b60fb54610109546040517f9bd9bbc600000000000000000000000000000000000000000000000000000000815273ffffffffffffffffffffffffffffffffffffffff91821660048201526024810184905260606044820152600060648201529293501690639bd9bbc690608401600060405180830381600087803b158015612b6f57600080fd5b505af1158015612b83573d6000803e3d6000fd5b505060fb5460fc5473ffffffffffffffffffffffffffffffffffffffff9182169350639bd9bbc6925016612bb7848b615781565b6040517fffffffff0000000000000000000000000000000000000000000000000000000060e085901b16815273ffffffffffffffffffffffffffffffffffffffff909216600483015260248201526060604482015260006064820152608401600060405180830381600087803b158015612c3057600080fd5b505af1158015612c44573d6000803e3d6000fd5b505050505050505050505050565b60007fffffffff0000000000000000000000000000000000000000000000000000000082167f7965db0b000000000000000000000000000000000000000000000000000000001480610aed57507f01ffc9a7000000000000000000000000000000000000000000000000000000007fffffffff00000000000000000000000000000000000000000000000000000000831614610aed565b600082815260656020908152604080832073ffffffffffffffffffffffffffffffffffffffff8516845290915290205460ff16610f3857612d418173ffffffffffffffffffffffffffffffffffffffff166014613872565b612d4c836020613872565b604051602001612d5d92919061510e565b604080517fffffffffffffffffffffffffffffffffffffffffffffffffffffffffffffffe0818403018152908290527f08c379a00000000000000000000000000000000000000000000000000000000082526106e6916004016151fa565b6000612dc942610e106156ce565b90506000612dda82621275006156ce565b612de690610e106156ce565b61010a54604051919250907fc4f8dcb175edd2d287c0f4a45eaae7003bd541365fb64b80e2b6e27f3ea6331690612e2b9060ff908890879087908a906101019061520d565b60405180910390a261010a8054906000612e4483615847565b919050555050505050565b612e598282613ab5565b6000828152609760205260409020610d919082613ba9565b612e7b8282613bcb565b6000828152609760205260409020610d919082613c86565b6000805b6032811015612efd5773ffffffffffffffffffffffffffffffffffffffff8416600090815261010e6020526040902083908260328110612ed957612ed961590d565b60040201541415612eeb579050610aed565b80612ef581615847565b915050612e97565b506040517f08c379a000000000000000000000000000000000000000000000000000000000815260206004820152602a60248201527f7874616b653a2052657175657374656420636c61696d206e6f7420666f756e6460448201527f20666f7220757365722e0000000000000000000000000000000000000000000060648201526084016106e6565b60c95460ff16612ff2576040517f08c379a000000000000000000000000000000000000000000000000000000000815260206004820152601460248201527f5061757361626c653a206e6f742070617573656400000000000000000000000060448201526064016106e6565b60c980547fffffffffffffffffffffffffffffffffffffffffffffffffffffffffffffff001690557f5db9ee0a495bf2e6ff9c91a7834c1ba4fdd244a5e8aa4e537bd38aeae4b073aa335b60405173ffffffffffffffffffffffffffffffffffffffff909116815260200161266c565b61010a547fb04ddaee13e68c74d352d11a70e613e403b1b24538ca6622e4c58d426bdbdc1d61010180613099633b9aca00866156e6565b6040516130a893929190615456565b60405180910390a261010a80549060006130c183615847565b909155505061010a546040517f806bd3a4b5612a7b8b03ea3f60b7372355920d3fbe794808fcb12f928af828ea906130fe906101019081906153b6565b60405180910390a261010a805490600061311783615847565b909155505061010a546040517fea61e513a1092d60f8828ae83ba208fe6dd45ee90763fb7537170504af26a69a90613154906101019085906154f6565b60405180910390a261010a805490600061316d83615847565b919050555050565b6101005460405173ffffffffffffffffffffffffffffffffffffffff9091169082156108fc029083906000818181858888f193505050501580156131bd573d6000803e3d6000fd5b5061010a546040517fb04ddaee13e68c74d352d11a70e613e403b1b24538ca6622e4c58d426bdbdc1d906131f79060ff9081908690615309565b60405180910390a261010a805490600061321083615847565b909155505061010a546040517f806bd3a4b5612a7b8b03ea3f60b7372355920d3fbe794808fcb12f928af828ea906131549060ff908190615265565b61010a547fb04ddaee13e68c74d352d11a70e613e403b1b24538ca6622e4c58d426bdbdc1d60ff80613282633b9aca00866156e6565b60405161329193929190615456565b60405180910390a261010a80549060006132aa83615847565b909155505061010a546040517f806bd3a4b5612a7b8b03ea3f60b7372355920d3fbe794808fcb12f928af828ea906132e69060ff9081906153b6565b60405180910390a261010a80549060006132ff83615847565b909155505061010a546040517f10836ebf82fff7ae8e49aa9295a9f32f12d3ed29cd7ac83f3c191da020e6434a906131549060ff9085906154f6565b60c95460ff16156133a8576040517f08c379a000000000000000000000000000000000000000000000000000000000815260206004820152601060248201527f5061757361626c653a207061757365640000000000000000000000000000000060448201526064016106e6565b60c980547fffffffffffffffffffffffffffffffffffffffffffffffffffffffffffffff001660011790557f62e78cea01bee320cd4e420270b5ea74000d11b0c9f74754ebdbfc544b05a25861303d3390565b600054610100900460ff16613492576040517f08c379a000000000000000000000000000000000000000000000000000000000815260206004820152602b60248201527f496e697469616c697a61626c653a20636f6e7472616374206973206e6f74206960448201527f6e697469616c697a696e6700000000000000000000000000000000000000000060648201526084016106e6565b61349a613ca8565b6134a2613ca8565b6134aa613ca8565b6134b2613ca8565b6134ba613d41565b610d91838383613e02565b60006119508383613fd2565b815460009067ffffffffffffffff6801000000000000000082048116916134f9911684615721565b61195091906156e6565b6000816001811115613517576135176158af565b141561355a578151835484906000906135319084906156ce565b9091555050602082015160018401805460009061354f9084906156ce565b90915550610d919050565b81518354849060009061356e908490615781565b9091555050602082015160018401805460009061358c908490615781565b9091555050505050565b6135aa6135a38280615690565b8390613ffc565b6135c46135ba6020830183615690565b6002840190613ffc565b6135d46004830160408301614021565b60006135e86101c083016101a08401614c2e565b73ffffffffffffffffffffffffffffffffffffffff1614610f38576136156101c082016101a08301614c2e565b600a8301805473ffffffffffffffffffffffffffffffffffffffff929092167fffffffffffffffffffffffff00000000000000000000000000000000000000009092169190911790555050565b6000610aed825490565b8154600090158061367f57506001830154155b1561368b575080610aed565b825460018401546134f99084615721565b60008183106136ab5781611950565b5090919050565b815460009081906136c39084615721565b6001850154909150808210806136d7575080155b156136e757600092505050610aed565b6136f181836156e6565b95945050505050565b6000805b60328110156137685773ffffffffffffffffffffffffffffffffffffffff8316600090815261010e6020526040902061374b9082603281106137425761374261590d565b6004020161405b565b156137565792915050565b8061376081615847565b9150506136fe565b506040517f08c379a000000000000000000000000000000000000000000000000000000000815260206004820152602c60248201527f7874616b653a205573657220686173207265616368656420746865206d61782060448201527f636c61696d206c696d69742e000000000000000000000000000000000000000060648201526084016106e6565b60008260010154821061380a5750815461ffff16610aed565b60018301548354839061382a9061ffff808216916201000090041661575e565b61ffff166138389190615721565b61384291906156e6565b8354613858919062010000900461ffff1661575e565b9050610aed565b60006127106134f961ffff851684615721565b60606000613881836002615721565b61388c9060026156ce565b67ffffffffffffffff8111156138a4576138a461593c565b6040519080825280601f01601f1916602001820160405280156138ce576020820181803683370190505b5090507f3000000000000000000000000000000000000000000000000000000000000000816000815181106139055761390561590d565b60200101907effffffffffffffffffffffffffffffffffffffffffffffffffffffffffffff1916908160001a9053507f7800000000000000000000000000000000000000000000000000000000000000816001815181106139685761396861590d565b60200101907effffffffffffffffffffffffffffffffffffffffffffffffffffffffffffff1916908160001a90535060006139a4846002615721565b6139af9060016156ce565b90505b6001811115613a4c577f303132333435363738396162636465660000000000000000000000000000000085600f16601081106139f0576139f061590d565b1a60f81b828281518110613a0657613a0661590d565b60200101907effffffffffffffffffffffffffffffffffffffffffffffffffffffffffffff1916908160001a90535060049490941c93613a45816157c4565b90506139b2565b508315611950576040517f08c379a000000000000000000000000000000000000000000000000000000000815260206004820181905260248201527f537472696e67733a20686578206c656e67746820696e73756666696369656e7460448201526064016106e6565b600082815260656020908152604080832073ffffffffffffffffffffffffffffffffffffffff8516845290915290205460ff16610f3857600082815260656020908152604080832073ffffffffffffffffffffffffffffffffffffffff85168452909152902080547fffffffffffffffffffffffffffffffffffffffffffffffffffffffffffffff00166001179055613b4b3390565b73ffffffffffffffffffffffffffffffffffffffff168173ffffffffffffffffffffffffffffffffffffffff16837f2f8788117e7eff1d82e926ec794901d17c78024a50270940304540a733656f0d60405160405180910390a45050565b60006119508373ffffffffffffffffffffffffffffffffffffffff84166140b6565b600082815260656020908152604080832073ffffffffffffffffffffffffffffffffffffffff8516845290915290205460ff1615610f3857600082815260656020908152604080832073ffffffffffffffffffffffffffffffffffffffff8516808552925280832080547fffffffffffffffffffffffffffffffffffffffffffffffffffffffffffffff0016905551339285917ff6391f5c32d9c69d2a47ea670b442974b53935d1edc7fd64eb21e047a839171b9190a45050565b60006119508373ffffffffffffffffffffffffffffffffffffffff8416614105565b600054610100900460ff16613d3f576040517f08c379a000000000000000000000000000000000000000000000000000000000815260206004820152602b60248201527f496e697469616c697a61626c653a20636f6e7472616374206973206e6f74206960448201527f6e697469616c697a696e6700000000000000000000000000000000000000000060648201526084016106e6565b565b600054610100900460ff16613dd8576040517f08c379a000000000000000000000000000000000000000000000000000000000815260206004820152602b60248201527f496e697469616c697a61626c653a20636f6e7472616374206973206e6f74206960448201527f6e697469616c697a696e6700000000000000000000000000000000000000000060648201526084016106e6565b60c980547fffffffffffffffffffffffffffffffffffffffffffffffffffffffffffffff00169055565b600054610100900460ff16613e99576040517f08c379a000000000000000000000000000000000000000000000000000000000815260206004820152602b60248201527f496e697469616c697a61626c653a20636f6e7472616374206973206e6f74206960448201527f6e697469616c697a696e6700000000000000000000000000000000000000000060648201526084016106e6565b60fb805473ffffffffffffffffffffffffffffffffffffffff8086167fffffffffffffffffffffffff00000000000000000000000000000000000000009283161790925560fc805492851692909116919091179055600160fd55600060fe55613f0360ff826141f8565b600061010c81905561010d55600161010a55600061010b556040517f29965a1d00000000000000000000000000000000000000000000000000000000815230600482018190527fb281fc8c12954d22544db45de3159a39272895b169a852b314f9cc762e44c53b60248301526044820152731820a4b7618bde71dce8cdc73aab6c95905fad24906329965a1d90606401600060405180830381600087803b158015613fad57600080fd5b505af1158015613fc1573d6000803e3d6000fd5b50505050610d916000801b33612e4f565b6000826000018281548110613fe957613fe961590d565b9060005260206000200154905092915050565b6140058161420b565b1561400e575050565b61401781614250565b610f388282614354565b61402b82826143c0565b61403b60018301604083016143c0565b61404b60028301608083016143c0565b610f386003830160c083016143e5565b80546000901580156140855750600182015473ffffffffffffffffffffffffffffffffffffffff16155b801561409357506002820154155b80156140a157506003820154155b156140ae57506001919050565b506000919050565b60008181526001830160205260408120546140fd57508154600181810184556000848152602080822090930184905584548482528286019093526040902091909155610aed565b506000610aed565b600081815260018301602052604081205480156141ee576000614129600183615781565b855490915060009061413d90600190615781565b90508181146141a257600086600001828154811061415d5761415d61590d565b90600052602060002001549050808760000184815481106141805761418061590d565b6000918252602080832090910192909255918252600188019052604090208390555b85548690806141b3576141b36158de565b600190038181906000526020600020016000905590558560010160008681526020019081526020016000206000905560019350505050610aed565b6000915050610aed565b614201816144cf565b610f3882826145b5565b6000614217828061562b565b1590508015610aed575060006142336040840160208501614c2e565b73ffffffffffffffffffffffffffffffffffffffff161492915050565b61425a818061562b565b151590506142c4576040517f08c379a000000000000000000000000000000000000000000000000000000000815260206004820152601b60248201527f6163636f756e743a207075626b6579206973207265717569726564000000000060448201526064016106e6565b60006142d66040830160208401614c2e565b73ffffffffffffffffffffffffffffffffffffffff1614156112c7576040517f08c379a000000000000000000000000000000000000000000000000000000000815260206004820152601960248201527f6163636f756e743a20616464722069732072657175697265640000000000000060448201526064016106e6565b6143646040820160208301614c2e565b6001830180547fffffffffffffffffffffffff00000000000000000000000000000000000000001673ffffffffffffffffffffffffffffffffffffffff929092169190911790556143b5818061562b565b610d91918491614b15565b6143c981614605565b156143d2575050565b6143db81614647565b610f3882826147ac565b6144036143f56020830183614f47565b61271061ffff919091161190565b614443576144146020820182614f47565b82547fffffffffffffffffffffffffffffffffffffffffffffffffffffffffffff00001661ffff919091161782555b6144566143f56040830160208401614f47565b6144a05761446a6040820160208301614f47565b825461ffff9190911662010000027fffffffffffffffffffffffffffffffffffffffffffffffffffffffff0000ffff9091161782555b68056bc75e2d631000008160400135106144bf57604081013560018301555b610f3860028301606083016143c0565b6144e16144dc8280615690565b614250565b6144f16144dc6020830183615690565b6144fd81604001614842565b60006145116101c083016101a08401614c2e565b73ffffffffffffffffffffffffffffffffffffffff1614156112c7576040517f08c379a000000000000000000000000000000000000000000000000000000000815260206004820152603260248201527f636f6e6669673a207472656173757279206163636f756e742063616e2774206260448201527f6520746865207a65726f2061646472657373000000000000000000000000000060648201526084016106e6565b6145c96145c28280615690565b8390614354565b6145e36145d96020830183615690565b6002840190614354565b6145f3600483016040830161486f565b6136156101c082016101a08301614c2e565b60006146146020830183614f84565b67ffffffffffffffff16158015610aed57506146366040830160208401614f84565b67ffffffffffffffff161592915050565b6146576040820160208301614f84565b67ffffffffffffffff166146ed576040517f08c379a000000000000000000000000000000000000000000000000000000000815260206004820152602160248201527f6665653a2064656e6f6d696e61746f72206d757374206265206e6f6e2d7a657260448201527f6f0000000000000000000000000000000000000000000000000000000000000060648201526084016106e6565b6146fd6040820160208301614f84565b67ffffffffffffffff166147146020830183614f84565b67ffffffffffffffff1611156112c7576040517f08c379a000000000000000000000000000000000000000000000000000000000815260206004820152603860248201527f6665653a206e756d657261746f72206d757374206265206c657373207468616e60448201527f206f7220657175616c20746f2064656e6f6d696e61746f72000000000000000060648201526084016106e6565b6147b96020820182614f84565b82547fffffffffffffffffffffffffffffffffffffffffffffffff00000000000000001667ffffffffffffffff919091161782556147fd6040820160208301614f84565b825467ffffffffffffffff9190911668010000000000000000027fffffffffffffffffffffffffffffffff0000000000000000ffffffffffffffff9091161790915550565b61484b81614647565b61485781604001614647565b61486381608001614647565b6112c78160c0016148a9565b61487982826147ac565b61488960018301604083016147ac565b61489960028301608083016147ac565b610f386003830160c0830161497e565b6148c26148b96020830183614f47565b61ffff16614a18565b6148d56148b96040830160208401614f47565b68056bc75e2d6310000081604001351015614972576040517f08c379a000000000000000000000000000000000000000000000000000000000815260206004820152603f60248201527f696e7374616e74556e7374616b654665653a206c69717569646974792074617260448201527f6765742073686f756c64206265206174206c656173742031303020415641580060648201526084016106e6565b6112c781606001614647565b61498b6020820182614f47565b82547fffffffffffffffffffffffffffffffffffffffffffffffffffffffffffff00001661ffff919091161782556149c96040820160208301614f47565b825461ffff9190911662010000027fffffffffffffffffffffffffffffffffffffffffffffffffffffffff0000ffff90911617825560408101356001830155610f3860028301606083016147ac565b61271061ffff821611156112c7576040517f08c379a000000000000000000000000000000000000000000000000000000000815260206004820152602c60248201527f62617369734665653a206e756d657261746f722063616e2774206265206d6f7260448201527f65207468616e203130303030000000000000000000000000000000000000000060648201526084016106e6565b6040518061064001604052806032905b614aff604051806080016040528060008152602001600073ffffffffffffffffffffffffffffffffffffffff16815260200160008152602001600081525090565b815260200190600190039081614abe5790505090565b828054614b21906157f9565b90600052602060002090601f016020900481019282614b435760008555614ba7565b82601f10614b7a578280017fffffffffffffffffffffffffffffffffffffffffffffffffffffffffffffff00823516178555614ba7565b82800160010185558215614ba7579182015b82811115614ba7578235825591602001919060010190614b8c565b50614bb3929150614bb7565b5090565b5b80821115614bb35760008155600101614bb8565b60008083601f840112614bde57600080fd5b50813567ffffffffffffffff811115614bf657600080fd5b602083019150836020828501011115614c0e57600080fd5b9250929050565b60006101c08284031215614c2857600080fd5b50919050565b600060208284031215614c4057600080fd5b81356119508161596b565b60008060008060008060008060c0898b031215614c6757600080fd5b8835614c728161596b565b97506020890135614c828161596b565b96506040890135614c928161596b565b955060608901359450608089013567ffffffffffffffff80821115614cb657600080fd5b614cc28c838d01614bcc565b909650945060a08b0135915080821115614cdb57600080fd5b50614ce88b828c01614bcc565b999c989b5096995094979396929594505050565b60008060408385031215614d0f57600080fd5b8235614d1a8161596b565b946020939093013593505050565b600060208284031215614d3a57600080fd5b5035919050565b60008060408385031215614d5457600080fd5b823591506020830135614d668161596b565b809150509250929050565b60008060408385031215614d8457600080fd5b50508035926020909101359150565b600060208284031215614da557600080fd5b81357fffffffff000000000000000000000000000000000000000000000000000000008116811461195057600080fd5b600080600060608486031215614dea57600080fd5b8335614df58161596b565b92506020840135614e058161596b565b9150604084013567ffffffffffffffff811115614e2157600080fd5b614e2d86828701614c15565b9150509250925092565b60008060408385031215614e4a57600080fd5b823567ffffffffffffffff80821115614e6257600080fd5b818501915085601f830112614e7657600080fd5b813581811115614e8857614e8861593c565b604051601f82017fffffffffffffffffffffffffffffffffffffffffffffffffffffffffffffffe0908116603f01168101908382118183101715614ece57614ece61593c565b81604052828152886020848701011115614ee757600080fd5b826020860160208301376000602093820184015298969091013596505050505050565b600060208284031215614f1c57600080fd5b813567ffffffffffffffff811115614f3357600080fd5b614f3f84828501614c15565b949350505050565b600060208284031215614f5957600080fd5b813561ffff8116811461195057600080fd5b600060208284031215614f7d57600080fd5b5051919050565b600060208284031215614f9657600080fd5b813567ffffffffffffffff8116811461195057600080fd5b60008151808452614fc6816020860160208601615798565b601f017fffffffffffffffffffffffffffffffffffffffffffffffffffffffffffffffe0169290920160200192915050565b8054600090600181811c908083168061501257607f831692505b602080841082141561504d577f4e487b7100000000000000000000000000000000000000000000000000000000600052602260045260246000fd5b838852602088018280156150685760018114615097576150c2565b7fffffffffffffffffffffffffffffffffffffffffffffffffffffffffffffff008716825282820197506150c2565b60008981526020902060005b878110156150bc578154848201529086019084016150a3565b83019850505b5050505050505092915050565b60008151604084526150e46040850182614fae565b60209384015173ffffffffffffffffffffffffffffffffffffffff16949093019390935250919050565b7f416363657373436f6e74726f6c3a206163636f756e7420000000000000000000815260008351615146816017850160208801615798565b7f206973206d697373696e6720726f6c65200000000000000000000000000000006017918401918201528351615183816028840160208801615798565b01602801949350505050565b6119008101818360005b60328110156151f15781518051845260208082015173ffffffffffffffffffffffffffffffffffffffff1681860152604080830151908601526060918201519185019190915260809093019290910190600101615199565b50505092915050565b6020815260006119506020830184614fae565b60c08152600061522060c0830189614ff8565b82810360208401526152328189614fae565b905086604084015285606084015284608084015282810360a08401526152588185614ff8565b9998505050505050505050565b6080815260006152786080830185614ff8565b828103602084015261528a8185614ff8565b905082810360408401526152c881600181527f4300000000000000000000000000000000000000000000000000000000000000602082015260400190565b8381036060850152600181527f5000000000000000000000000000000000000000000000000000000000000000602082015290506040810195945050505050565b60a08152600061531c60a0830186614ff8565b828103602084015261532e8186614ff8565b9050828103604084015261536c81600181527f4300000000000000000000000000000000000000000000000000000000000000602082015260400190565b8381036060850152600181527f500000000000000000000000000000000000000000000000000000000000000060208201529050604081015b915050826080830152949350505050565b6080815260006153c96080830185614ff8565b82810360208401526153db8185614ff8565b9050828103604084015261541981600181527f5000000000000000000000000000000000000000000000000000000000000000602082015260400190565b8381036060850152600181527f430000000000000000000000000000000000000000000000000000000000000060208201529050604081016136f1565b60a08152600061546960a0830186614ff8565b828103602084015261547b8186614ff8565b905082810360408401526154b981600181527f5000000000000000000000000000000000000000000000000000000000000000602082015260400190565b8381036060850152600181527f430000000000000000000000000000000000000000000000000000000000000060208201529050604081016153a5565b6040815260006155096040830185614ff8565b90508260208301529392505050565b60006101c080835261552c818401886150cf565b9050828103602084015261554081876150cf565b915050615568604083018551805167ffffffffffffffff908116835260209182015116910152565b60208401516155916080840182805167ffffffffffffffff908116835260209182015116910152565b506040840151805167ffffffffffffffff90811660c085015260208201511660e084015250606084810151805161ffff90811661010086015260208201511661012085015260408101516101408501520151615608610160840182805167ffffffffffffffff908116835260209182015116910152565b5073ffffffffffffffffffffffffffffffffffffffff83166101a08301526136f1565b60008083357fffffffffffffffffffffffffffffffffffffffffffffffffffffffffffffffe184360301811261566057600080fd5b83018035915067ffffffffffffffff82111561567b57600080fd5b602001915036819003821315614c0e57600080fd5b600082357fffffffffffffffffffffffffffffffffffffffffffffffffffffffffffffffc18336030181126156c457600080fd5b9190910192915050565b600082198211156156e1576156e1615880565b500190565b60008261571c577f4e487b7100000000000000000000000000000000000000000000000000000000600052601260045260246000fd5b500490565b6000817fffffffffffffffffffffffffffffffffffffffffffffffffffffffffffffffff048311821515161561575957615759615880565b500290565b600061ffff8381169083168181101561577957615779615880565b039392505050565b60008282101561579357615793615880565b500390565b60005b838110156157b357818101518382015260200161579b565b838111156112ad5750506000910152565b6000816157d3576157d3615880565b507fffffffffffffffffffffffffffffffffffffffffffffffffffffffffffffffff0190565b600181811c9082168061580d57607f821691505b60208210811415614c28577f4e487b7100000000000000000000000000000000000000000000000000000000600052602260045260246000fd5b60007fffffffffffffffffffffffffffffffffffffffffffffffffffffffffffffffff82141561587957615879615880565b5060010190565b7f4e487b7100000000000000000000000000000000000000000000000000000000600052601160045260246000fd5b7f4e487b7100000000000000000000000000000000000000000000000000000000600052602160045260246000fd5b7f4e487b7100000000000000000000000000000000000000000000000000000000600052603160045260246000fd5b7f4e487b7100000000000000000000000000000000000000000000000000000000600052603260045260246000fd5b7f4e487b7100000000000000000000000000000000000000000000000000000000600052604160045260246000fd5b73ffffffffffffffffffffffffffffffffffffffff811681146112c757600080fdfea2646970667358221220b7d83d90ee7c9f722bf73e632fa3922fdeb48399498331b367f774fc3d49815c64736f6c63430008070033",
  "linkReferences": {},
  "deployedLinkReferences": {}
}