{
  "_format": "hh-sol-artifact-1",
  "contractName": "LiquidityPool",
  "sourceName": "contracts/LiquidityPool.sol",
  "abi": [
    {
      "inputs": [],
      "stateMutability": "nonpayable",
      "type": "constructor"
    },
    {
      "anonymous": false,
      "inputs": [
        {
          "indexed": false,
          "internalType": "address",
          "name": "from",
          "type": "address"
        },
        {
          "indexed": false,
          "internalType": "uint256",
          "name": "amount",
          "type": "uint256"
        }
      ],
      "name": "LiquidityReceived",
      "type": "event"
    },
    {
      "anonymous": false,
      "inputs": [
        {
          "indexed": false,
          "internalType": "address",
          "name": "to",
          "type": "address"
        },
        {
          "indexed": false,
          "internalType": "uint256",
          "name": "amount",
          "type": "uint256"
        }
      ],
      "name": "LiquidityReleased",
      "type": "event"
    },
    {
      "anonymous": false,
      "inputs": [
        {
          "indexed": true,
          "internalType": "address",
          "name": "previousOwner",
          "type": "address"
        },
        {
          "indexed": true,
          "internalType": "address",
          "name": "newOwner",
          "type": "address"
        }
      ],
      "name": "OwnershipTransferred",
      "type": "event"
    },
    {
      "inputs": [],
      "name": "depositWei",
      "outputs": [],
      "stateMutability": "payable",
      "type": "function"
    },
    {
      "inputs": [
        {
          "internalType": "contract IStakedAVAXToken",
          "name": "poolToken_",
          "type": "address"
        }
      ],
      "name": "initialize",
      "outputs": [],
      "stateMutability": "nonpayable",
      "type": "function"
    },
    {
      "inputs": [],
      "name": "owner",
      "outputs": [
        {
          "internalType": "address",
          "name": "",
          "type": "address"
        }
      ],
      "stateMutability": "view",
      "type": "function"
    },
    {
      "inputs": [],
      "name": "renounceOwnership",
      "outputs": [],
      "stateMutability": "nonpayable",
      "type": "function"
    },
    {
      "inputs": [
        {
          "internalType": "contract LiquidStaking",
          "name": "liquidStaking",
          "type": "address"
        }
      ],
      "name": "setAdmin",
      "outputs": [],
      "stateMutability": "nonpayable",
      "type": "function"
    },
    {
      "inputs": [
        {
          "internalType": "address",
          "name": "",
          "type": "address"
        },
        {
          "internalType": "address",
          "name": "from",
          "type": "address"
        },
        {
          "internalType": "address",
          "name": "to",
          "type": "address"
        },
        {
          "internalType": "uint256",
          "name": "",
          "type": "uint256"
        },
        {
          "internalType": "bytes",
          "name": "",
          "type": "bytes"
        },
        {
          "internalType": "bytes",
          "name": "",
          "type": "bytes"
        }
      ],
      "name": "tokensReceived",
      "outputs": [],
      "stateMutability": "nonpayable",
      "type": "function"
    },
    {
      "inputs": [
        {
          "internalType": "address",
          "name": "newOwner",
          "type": "address"
        }
      ],
      "name": "transferOwnership",
      "outputs": [],
      "stateMutability": "nonpayable",
      "type": "function"
    },
    {
      "inputs": [
        {
          "internalType": "address",
          "name": "recipient",
          "type": "address"
        },
        {
          "internalType": "uint256",
          "name": "amount",
          "type": "uint256"
        }
      ],
      "name": "transferWeiTo",
      "outputs": [],
      "stateMutability": "nonpayable",
      "type": "function"
    },
    {
      "stateMutability": "payable",
      "type": "receive"
    }
  ],
  "bytecode": "0x608060405234801561001057600080fd5b50600054610100900460ff1661002c5760005460ff1615610034565b6100346100d5565b61009b5760405162461bcd60e51b815260206004820152602e60248201527f496e697469616c697a61626c653a20636f6e747261637420697320616c72656160448201526d191e481a5b9a5d1a585b1a5e995960921b606482015260840160405180910390fd5b600054610100900460ff161580156100bd576000805461ffff19166101011790555b80156100cf576000805461ff00191690555b506100f6565b60006100ea306100f060201b6109ed1760201c565b15905090565b3b151590565b610e5d806101056000396000f3fe60806040526004361061007e5760003560e01c8063715018a61161004e578063715018a61461012c5780638da5cb5b14610141578063c4d66de81461017a578063f2fde38b1461019a57600080fd5b806223de29146100c257806315488b88146100e457806353c333cd146100ec578063704b6c021461010c57600080fd5b366100bd57604080513381523460208201527fb58278ed56aa79ad2e243963b44b165a8f76d629f61c01dd3649d658e0eacca4910160405180910390a1005b600080fd5b3480156100ce57600080fd5b506100e26100dd366004610cb5565b6101ba565b005b6100e26103f8565b3480156100f857600080fd5b506100e2610107366004610d66565b610432565b34801561011857600080fd5b506100e2610127366004610c91565b61054a565b34801561013857600080fd5b506100e2610624565b34801561014d57600080fd5b506033546040805173ffffffffffffffffffffffffffffffffffffffff9092168252519081900360200190f35b34801561018657600080fd5b506100e2610195366004610c91565b6106b1565b3480156101a657600080fd5b506100e26101b5366004610c91565b6108c0565b60655473ffffffffffffffffffffffffffffffffffffffff163314610266576040517f08c379a000000000000000000000000000000000000000000000000000000000815260206004820152602e60248201527f7874616b653a20746f6b656e7352656365697665642063616c6c65642062792060448201527f756e6b6e6f776e2073656e64657200000000000000000000000000000000000060648201526084015b60405180910390fd5b60665473ffffffffffffffffffffffffffffffffffffffff888116911614610310576040517f08c379a000000000000000000000000000000000000000000000000000000000815260206004820152602960248201527f7874616b653a20746f6b656e7352656365697665642066726f6d20756e6b6e6f60448201527f776e2073656e6465720000000000000000000000000000000000000000000000606482015260840161025d565b604080517f7874616b653a20746f6b656e73526563656976656420666f722061646472657360208201527f733a20000000000000000000000000000000000000000000000000000000000081830152606088901b7fffffffffffffffffffffffffffffffffffffffff00000000000000000000000016604382015281516037818303018152605790910190915273ffffffffffffffffffffffffffffffffffffffff871630146103ed576040517f08c379a000000000000000000000000000000000000000000000000000000000815260040161025d9190610d92565b505050505050505050565b604080513381523460208201527fb58278ed56aa79ad2e243963b44b165a8f76d629f61c01dd3649d658e0eacca4910160405180910390a1565b60335473ffffffffffffffffffffffffffffffffffffffff1633146104b3576040517f08c379a000000000000000000000000000000000000000000000000000000000815260206004820181905260248201527f4f776e61626c653a2063616c6c6572206973206e6f7420746865206f776e6572604482015260640161025d565b60405173ffffffffffffffffffffffffffffffffffffffff83169082156108fc029083906000818181858888f193505050501580156104f6573d6000803e3d6000fd5b506040805173ffffffffffffffffffffffffffffffffffffffff84168152602081018390527f1bd0c4daf25a5f31af50b701ee252e5ef20c4cfc8ff6bff661ef3e32e6a18533910160405180910390a15050565b606680547fffffffffffffffffffffffff00000000000000000000000000000000000000001673ffffffffffffffffffffffffffffffffffffffff8381169182179092556065546040517f959b8c3f00000000000000000000000000000000000000000000000000000000815260048101929092529091169063959b8c3f90602401600060405180830381600087803b1580156105e657600080fd5b505af11580156105fa573d6000803e3d6000fd5b5050606654610621925073ffffffffffffffffffffffffffffffffffffffff1690506108c0565b50565b60335473ffffffffffffffffffffffffffffffffffffffff1633146106a5576040517f08c379a000000000000000000000000000000000000000000000000000000000815260206004820181905260248201527f4f776e61626c653a2063616c6c6572206973206e6f7420746865206f776e6572604482015260640161025d565b6106af60006109f3565b565b600054610100900460ff166106cc5760005460ff16156106d0565b303b155b61075c576040517f08c379a000000000000000000000000000000000000000000000000000000000815260206004820152602e60248201527f496e697469616c697a61626c653a20636f6e747261637420697320616c72656160448201527f647920696e697469616c697a6564000000000000000000000000000000000000606482015260840161025d565b600054610100900460ff1615801561079b57600080547fffffffffffffffffffffffffffffffffffffffffffffffffffffffffffff0000166101011790555b6107a3610a6a565b6040517f29965a1d00000000000000000000000000000000000000000000000000000000815230600482018190527fb281fc8c12954d22544db45de3159a39272895b169a852b314f9cc762e44c53b60248301526044820152731820a4b7618bde71dce8cdc73aab6c95905fad24906329965a1d90606401600060405180830381600087803b15801561083557600080fd5b505af1158015610849573d6000803e3d6000fd5b5050606580547fffffffffffffffffffffffff00000000000000000000000000000000000000001673ffffffffffffffffffffffffffffffffffffffff8616179055505080156108bc57600080547fffffffffffffffffffffffffffffffffffffffffffffffffffffffffffff00ff1690555b5050565b60335473ffffffffffffffffffffffffffffffffffffffff163314610941576040517f08c379a000000000000000000000000000000000000000000000000000000000815260206004820181905260248201527f4f776e61626c653a2063616c6c6572206973206e6f7420746865206f776e6572604482015260640161025d565b73ffffffffffffffffffffffffffffffffffffffff81166109e4576040517f08c379a000000000000000000000000000000000000000000000000000000000815260206004820152602660248201527f4f776e61626c653a206e6577206f776e657220697320746865207a65726f206160448201527f6464726573730000000000000000000000000000000000000000000000000000606482015260840161025d565b610621816109f3565b3b151590565b6033805473ffffffffffffffffffffffffffffffffffffffff8381167fffffffffffffffffffffffff0000000000000000000000000000000000000000831681179093556040519116919082907f8be0079c531659141344cd1fd0a4f28419497f9722a3daafe3b4186f6b6457e090600090a35050565b600054610100900460ff16610b01576040517f08c379a000000000000000000000000000000000000000000000000000000000815260206004820152602b60248201527f496e697469616c697a61626c653a20636f6e7472616374206973206e6f74206960448201527f6e697469616c697a696e67000000000000000000000000000000000000000000606482015260840161025d565b610b09610b11565b6106af610ba8565b600054610100900460ff166106af576040517f08c379a000000000000000000000000000000000000000000000000000000000815260206004820152602b60248201527f496e697469616c697a61626c653a20636f6e7472616374206973206e6f74206960448201527f6e697469616c697a696e67000000000000000000000000000000000000000000606482015260840161025d565b600054610100900460ff16610c3f576040517f08c379a000000000000000000000000000000000000000000000000000000000815260206004820152602b60248201527f496e697469616c697a61626c653a20636f6e7472616374206973206e6f74206960448201527f6e697469616c697a696e67000000000000000000000000000000000000000000606482015260840161025d565b6106af336109f3565b60008083601f840112610c5a57600080fd5b50813567ffffffffffffffff811115610c7257600080fd5b602083019150836020828501011115610c8a57600080fd5b9250929050565b600060208284031215610ca357600080fd5b8135610cae81610e05565b9392505050565b60008060008060008060008060c0898b031215610cd157600080fd5b8835610cdc81610e05565b97506020890135610cec81610e05565b96506040890135610cfc81610e05565b955060608901359450608089013567ffffffffffffffff80821115610d2057600080fd5b610d2c8c838d01610c48565b909650945060a08b0135915080821115610d4557600080fd5b50610d528b828c01610c48565b999c989b5096995094979396929594505050565b60008060408385031215610d7957600080fd5b8235610d8481610e05565b946020939093013593505050565b600060208083528351808285015260005b81811015610dbf57858101830151858201604001528201610da3565b81811115610dd1576000604083870101525b50601f017fffffffffffffffffffffffffffffffffffffffffffffffffffffffffffffffe016929092016040019392505050565b73ffffffffffffffffffffffffffffffffffffffff8116811461062157600080fdfea2646970667358221220b61911d0d55c5465cab58559932a5613b409005b426e61f39f89e9ce6329ddd764736f6c63430008070033",
  "linkReferences": {},
  "deployedLinkReferences": {}
}