{
  "_format": "hh-sol-artifact-1",
  "contractName": "LiquidStaking",
  "sourceName": "contracts/LiquidStaking.sol",
  "abi": [
    {
      "inputs": [],
      "stateMutability": "nonpayable",
      "type": "constructor"
    },
    {
      "anonymous": false,
      "inputs": [
        {
          "indexed": true,
          "internalType": "uint256",
          "name": "currLogSeq",
          "type": "uint256"
        },
        {
          "indexed": false,
          "internalType": "string",
          "name": "fromPrincipalPubkey",
          "type": "string"
        },
        {
          "indexed": false,
          "internalType": "string",
          "name": "toNodeID",
          "type": "string"
        },
        {
          "indexed": false,
          "internalType": "uint256",
          "name": "startTime",
          "type": "uint256"
        },
        {
          "indexed": false,
          "internalType": "uint256",
          "name": "endTime",
          "type": "uint256"
        },
        {
          "indexed": false,
          "internalType": "uint256",
          "name": "amount",
          "type": "uint256"
        },
        {
          "indexed": false,
          "internalType": "string",
          "name": "rewardPubkey",
          "type": "string"
        }
      ],
      "name": "AddDelegator",
      "type": "event"
    },
    {
      "anonymous": false,
      "inputs": [
        {
          "indexed": true,
          "internalType": "uint256",
          "name": "currLogSeq",
          "type": "uint256"
        },
        {
          "indexed": false,
          "internalType": "uint256",
          "name": "amount",
          "type": "uint256"
        },
        {
          "indexed": false,
          "internalType": "string",
          "name": "principalPubkey",
          "type": "string"
        },
        {
          "indexed": false,
          "internalType": "address",
          "name": "contractAddr",
          "type": "address"
        }
      ],
      "name": "PrincipalC2ContractSubmit",
      "type": "event"
    },
    {
      "anonymous": false,
      "inputs": [
        {
          "indexed": true,
          "internalType": "uint256",
          "name": "currLogSeq",
          "type": "uint256"
        },
        {
          "indexed": false,
          "internalType": "uint256",
          "name": "amount",
          "type": "uint256"
        },
        {
          "indexed": false,
          "internalType": "string",
          "name": "principalPubkey",
          "type": "string"
        }
      ],
      "name": "PrincipalC2PrincipalPExport",
      "type": "event"
    },
    {
      "anonymous": false,
      "inputs": [
        {
          "indexed": true,
          "internalType": "uint256",
          "name": "currLogSeq",
          "type": "uint256"
        },
        {
          "indexed": false,
          "internalType": "uint256",
          "name": "amount",
          "type": "uint256"
        },
        {
          "indexed": false,
          "internalType": "string",
          "name": "principalPubkey",
          "type": "string"
        }
      ],
      "name": "PrincipalC2PrincipalPImport",
      "type": "event"
    },
    {
      "anonymous": false,
      "inputs": [
        {
          "indexed": true,
          "internalType": "uint256",
          "name": "currLogSeq",
          "type": "uint256"
        },
        {
          "indexed": false,
          "internalType": "uint256",
          "name": "amount",
          "type": "uint256"
        },
        {
          "indexed": false,
          "internalType": "string",
          "name": "principalPubkey",
          "type": "string"
        }
      ],
      "name": "PrincipalP2PrincipalCExport",
      "type": "event"
    },
    {
      "anonymous": false,
      "inputs": [
        {
          "indexed": true,
          "internalType": "uint256",
          "name": "currLogSeq",
          "type": "uint256"
        },
        {
          "indexed": false,
          "internalType": "uint256",
          "name": "amount",
          "type": "uint256"
        },
        {
          "indexed": false,
          "internalType": "string",
          "name": "principalPubkey",
          "type": "string"
        }
      ],
      "name": "PrincipalP2PrincipalCImport",
      "type": "event"
    },
    {
      "anonymous": false,
      "inputs": [
        {
          "indexed": false,
          "internalType": "uint256",
          "name": "rewardAmount",
          "type": "uint256"
        }
      ],
      "name": "ReceivedRewards",
      "type": "event"
    },
    {
      "anonymous": false,
      "inputs": [
        {
          "indexed": true,
          "internalType": "uint256",
          "name": "currLogSeq",
          "type": "uint256"
        },
        {
          "indexed": false,
          "internalType": "uint256",
          "name": "amount",
          "type": "uint256"
        },
        {
          "indexed": false,
          "internalType": "string",
          "name": "rewardPubkey",
          "type": "string"
        },
        {
          "indexed": false,
          "internalType": "address",
          "name": "contractAddr",
          "type": "address"
        }
      ],
      "name": "RewardP2ContractExport",
      "type": "event"
    },
    {
      "anonymous": false,
      "inputs": [
        {
          "indexed": true,
          "internalType": "uint256",
          "name": "currLogSeq",
          "type": "uint256"
        },
        {
          "indexed": false,
          "internalType": "uint256",
          "name": "amount",
          "type": "uint256"
        },
        {
          "indexed": false,
          "internalType": "string",
          "name": "rewardPubkey",
          "type": "string"
        },
        {
          "indexed": false,
          "internalType": "address",
          "name": "contractAddr",
          "type": "address"
        }
      ],
      "name": "RewardP2ContractImport",
      "type": "event"
    },
    {
      "anonymous": false,
      "inputs": [
        {
          "indexed": true,
          "internalType": "bytes32",
          "name": "role",
          "type": "bytes32"
        },
        {
          "indexed": true,
          "internalType": "bytes32",
          "name": "previousAdminRole",
          "type": "bytes32"
        },
        {
          "indexed": true,
          "internalType": "bytes32",
          "name": "newAdminRole",
          "type": "bytes32"
        }
      ],
      "name": "RoleAdminChanged",
      "type": "event"
    },
    {
      "anonymous": false,
      "inputs": [
        {
          "indexed": true,
          "internalType": "bytes32",
          "name": "role",
          "type": "bytes32"
        },
        {
          "indexed": true,
          "internalType": "address",
          "name": "account",
          "type": "address"
        },
        {
          "indexed": true,
          "internalType": "address",
          "name": "sender",
          "type": "address"
        }
      ],
      "name": "RoleGranted",
      "type": "event"
    },
    {
      "anonymous": false,
      "inputs": [
        {
          "indexed": true,
          "internalType": "bytes32",
          "name": "role",
          "type": "bytes32"
        },
        {
          "indexed": true,
          "internalType": "address",
          "name": "account",
          "type": "address"
        },
        {
          "indexed": true,
          "internalType": "address",
          "name": "sender",
          "type": "address"
        }
      ],
      "name": "RoleRevoked",
      "type": "event"
    },
    {
      "anonymous": false,
      "inputs": [
        {
          "indexed": true,
          "internalType": "uint256",
          "name": "seq",
          "type": "uint256"
        }
      ],
      "name": "UpdatedSignLogSeq",
      "type": "event"
    },
    {
      "inputs": [],
      "name": "BOT_ROLE",
      "outputs": [
        {
          "internalType": "bytes32",
          "name": "",
          "type": "bytes32"
        }
      ],
      "stateMutability": "view",
      "type": "function"
    },
    {
      "inputs": [],
      "name": "DEFAULT_ADMIN_ROLE",
      "outputs": [
        {
          "internalType": "bytes32",
          "name": "",
          "type": "bytes32"
        }
      ],
      "stateMutability": "view",
      "type": "function"
    },
    {
      "inputs": [
        {
          "internalType": "address",
          "name": "user",
          "type": "address"
        },
        {
          "internalType": "uint256",
          "name": "id",
          "type": "uint256"
        }
      ],
      "name": "claim",
      "outputs": [],
      "stateMutability": "nonpayable",
      "type": "function"
    },
    {
      "inputs": [
        {
          "internalType": "address",
          "name": "",
          "type": "address"
        },
        {
          "internalType": "uint256",
          "name": "",
          "type": "uint256"
        }
      ],
      "name": "claimReqs",
      "outputs": [
        {
          "internalType": "uint256",
          "name": "id",
          "type": "uint256"
        },
        {
          "internalType": "address",
          "name": "user",
          "type": "address"
        },
        {
          "internalType": "uint256",
          "name": "avaxToReturn",
          "type": "uint256"
        },
        {
          "internalType": "uint256",
          "name": "deadline",
          "type": "uint256"
        }
      ],
      "stateMutability": "view",
      "type": "function"
    },
    {
      "inputs": [],
      "name": "currLogSeq",
      "outputs": [
        {
          "internalType": "uint256",
          "name": "",
          "type": "uint256"
        }
      ],
      "stateMutability": "view",
      "type": "function"
    },
    {
      "inputs": [
        {
          "internalType": "string",
          "name": "toNodeID",
          "type": "string"
        },
        {
          "internalType": "uint256",
          "name": "amount",
          "type": "uint256"
        }
      ],
      "name": "delegate",
      "outputs": [],
      "stateMutability": "nonpayable",
      "type": "function"
    },
    {
      "inputs": [],
      "name": "deposit",
      "outputs": [],
      "stateMutability": "payable",
      "type": "function"
    },
    {
      "inputs": [],
      "name": "exchangeRate",
      "outputs": [
        {
          "internalType": "uint256",
          "name": "totalAvax",
          "type": "uint256"
        },
        {
          "internalType": "uint256",
          "name": "poolTokenSupply",
          "type": "uint256"
        }
      ],
      "stateMutability": "view",
      "type": "function"
    },
    {
      "inputs": [
        {
          "internalType": "bytes32",
          "name": "role",
          "type": "bytes32"
        }
      ],
      "name": "getRoleAdmin",
      "outputs": [
        {
          "internalType": "bytes32",
          "name": "",
          "type": "bytes32"
        }
      ],
      "stateMutability": "view",
      "type": "function"
    },
    {
      "inputs": [
        {
          "internalType": "bytes32",
          "name": "role",
          "type": "bytes32"
        },
        {
          "internalType": "uint256",
          "name": "index",
          "type": "uint256"
        }
      ],
      "name": "getRoleMember",
      "outputs": [
        {
          "internalType": "address",
          "name": "",
          "type": "address"
        }
      ],
      "stateMutability": "view",
      "type": "function"
    },
    {
      "inputs": [
        {
          "internalType": "bytes32",
          "name": "role",
          "type": "bytes32"
        }
      ],
      "name": "getRoleMemberCount",
      "outputs": [
        {
          "internalType": "uint256",
          "name": "",
          "type": "uint256"
        }
      ],
      "stateMutability": "view",
      "type": "function"
    },
    {
      "inputs": [
        {
          "internalType": "bytes32",
          "name": "role",
          "type": "bytes32"
        },
        {
          "internalType": "address",
          "name": "account",
          "type": "address"
        }
      ],
      "name": "grantRole",
      "outputs": [],
      "stateMutability": "nonpayable",
      "type": "function"
    },
    {
      "inputs": [
        {
          "internalType": "bytes32",
          "name": "role",
          "type": "bytes32"
        },
        {
          "internalType": "address",
          "name": "account",
          "type": "address"
        }
      ],
      "name": "hasRole",
      "outputs": [
        {
          "internalType": "bool",
          "name": "",
          "type": "bool"
        }
      ],
      "stateMutability": "view",
      "type": "function"
    },
    {
      "inputs": [
        {
          "internalType": "contract StakedAVAXToken",
          "name": "poolToken_",
          "type": "address"
        },
        {
          "internalType": "address",
          "name": "principalEvmAddr_",
          "type": "address"
        },
        {
          "internalType": "string",
          "name": "principalPubkey_",
          "type": "string"
        },
        {
          "internalType": "string",
          "name": "rewardPubkey_",
          "type": "string"
        }
      ],
      "name": "initialize",
      "outputs": [],
      "stateMutability": "nonpayable",
      "type": "function"
    },
    {
      "inputs": [
        {
          "internalType": "uint256",
          "name": "pRewardBalance",
          "type": "uint256"
        }
      ],
      "name": "periodicUpdate",
      "outputs": [],
      "stateMutability": "nonpayable",
      "type": "function"
    },
    {
      "inputs": [
        {
          "internalType": "bytes32",
          "name": "role",
          "type": "bytes32"
        },
        {
          "internalType": "address",
          "name": "account",
          "type": "address"
        }
      ],
      "name": "renounceRole",
      "outputs": [],
      "stateMutability": "nonpayable",
      "type": "function"
    },
    {
      "inputs": [
        {
          "internalType": "bytes32",
          "name": "role",
          "type": "bytes32"
        },
        {
          "internalType": "address",
          "name": "account",
          "type": "address"
        }
      ],
      "name": "revokeRole",
      "outputs": [],
      "stateMutability": "nonpayable",
      "type": "function"
    },
    {
      "inputs": [
        {
          "internalType": "uint256",
          "name": "seq",
          "type": "uint256"
        }
      ],
      "name": "setSignLogSeq",
      "outputs": [],
      "stateMutability": "nonpayable",
      "type": "function"
    },
    {
      "inputs": [],
      "name": "signLogSeq",
      "outputs": [
        {
          "internalType": "uint256",
          "name": "",
          "type": "uint256"
        }
      ],
      "stateMutability": "view",
      "type": "function"
    },
    {
      "inputs": [],
      "name": "submitPrincipal",
      "outputs": [],
      "stateMutability": "payable",
      "type": "function"
    },
    {
      "inputs": [
        {
          "internalType": "bytes4",
          "name": "interfaceId",
          "type": "bytes4"
        }
      ],
      "name": "supportsInterface",
      "outputs": [
        {
          "internalType": "bool",
          "name": "",
          "type": "bool"
        }
      ],
      "stateMutability": "view",
      "type": "function"
    },
    {
      "inputs": [
        {
          "internalType": "address",
          "name": "",
          "type": "address"
        },
        {
          "internalType": "address",
          "name": "from",
          "type": "address"
        },
        {
          "internalType": "address",
          "name": "to",
          "type": "address"
        },
        {
          "internalType": "uint256",
          "name": "amount",
          "type": "uint256"
        },
        {
          "internalType": "bytes",
          "name": "",
          "type": "bytes"
        },
        {
          "internalType": "bytes",
          "name": "",
          "type": "bytes"
        }
      ],
      "name": "tokensReceived",
      "outputs": [],
      "stateMutability": "nonpayable",
      "type": "function"
    },
    {
      "inputs": [
        {
          "internalType": "address",
          "name": "principalEvmAddr_",
          "type": "address"
        },
        {
          "internalType": "string",
          "name": "principalPubkey_",
          "type": "string"
        },
        {
          "internalType": "string",
          "name": "rewardPubkey_",
          "type": "string"
        }
      ],
      "name": "updateAddresses",
      "outputs": [],
      "stateMutability": "nonpayable",
      "type": "function"
    }
  ],
  "bytecode": "0x60806040523480156200001157600080fd5b50600060019054906101000a900460ff166200003c5760008054906101000a900460ff16156200004d565b6200004c6200010960201b60201c565b5b6200008f576040517f08c379a0000000000000000000000000000000000000000000000000000000008152600401620000869062000161565b60405180910390fd5b60008060019054906101000a900460ff161590508015620000e0576001600060016101000a81548160ff02191690831515021790555060016000806101000a81548160ff0219169083151502179055505b8015620001025760008060016101000a81548160ff0219169083151502179055505b50620001e3565b600062000121306200012760201b620016c21760201c565b15905090565b600080823b905060008111915050919050565b600062000149602e8362000183565b9150620001568262000194565b604082019050919050565b600060208201905081810360008301526200017c816200013a565b9050919050565b600082825260208201905092915050565b7f496e697469616c697a61626c653a20636f6e747261637420697320616c72656160008201527f647920696e697469616c697a6564000000000000000000000000000000000000602082015250565b613f0780620001f36000396000f3fe60806040526004361061013f5760003560e01c80634e0995ab116100b6578063b15037741161006f578063b150377414610456578063ca15c87314610481578063d0e30db0146104be578063d547741f146104c8578063e6f96633146104f1578063f773d87d146104fb5761013f565b80634e0995ab1461033457806368cbb20d1461035f5780639010d07c1461038857806391d14854146103c5578063a217fddf14610402578063aad3ec961461042d5761013f565b8063248a9ca311610108578063248a9ca3146102255780632f2ff15d1461026257806336568abe1461028b5780633ba0b9a9146102b457806343b18878146102e0578063468b54e2146103095761013f565b806223de291461014457806301ffc9a71461016d57806303f24de1146101aa57806307ebe003146101d35780632016a0d2146101fc575b600080fd5b34801561015057600080fd5b5061016b60048036038101906101669190612919565b61053b565b005b34801561017957600080fd5b50610194600480360381019061018f9190612b38565b6109a9565b6040516101a19190613190565b60405180910390f35b3480156101b657600080fd5b506101d160048036038101906101cc9190612bf4565b610a23565b005b3480156101df57600080fd5b506101fa60048036038101906101f59190612c48565b610aee565b005b34801561020857600080fd5b50610223600480360381019061021e9190612b61565b610b5a565b005b34801561023157600080fd5b5061024c60048036038101906102479190612a97565b610e0a565b60405161025991906131ab565b60405180910390f35b34801561026e57600080fd5b5061028960048036038101906102849190612ac0565b610e2a565b005b34801561029757600080fd5b506102b260048036038101906102ad9190612ac0565b610e53565b005b3480156102c057600080fd5b506102c9610ed6565b6040516102d79291906134fa565b60405180910390f35b3480156102ec57600080fd5b5061030760048036038101906103029190612c48565b610ee8565b005b34801561031557600080fd5b5061031e611056565b60405161032b91906133fe565b60405180910390f35b34801561034057600080fd5b5061034961105c565b60405161035691906133fe565b60405180910390f35b34801561036b57600080fd5b50610386600480360381019061038191906129dc565b611062565b005b34801561039457600080fd5b506103af60048036038101906103aa9190612afc565b6110ec565b6040516103bc91906130ef565b60405180910390f35b3480156103d157600080fd5b506103ec60048036038101906103e79190612ac0565b61111b565b6040516103f99190613190565b60405180910390f35b34801561040e57600080fd5b50610417611186565b60405161042491906131ab565b60405180910390f35b34801561043957600080fd5b50610454600480360381019061044f9190612a5b565b61118d565b005b34801561046257600080fd5b5061046b61147f565b60405161047891906131ab565b60405180910390f35b34801561048d57600080fd5b506104a860048036038101906104a39190612a97565b6114a3565b6040516104b591906133fe565b60405180910390f35b6104c66114c7565b005b3480156104d457600080fd5b506104ef60048036038101906104ea9190612ac0565b6115ee565b005b6104f9611617565b005b34801561050757600080fd5b50610522600480360381019061051d9190612a5b565b611665565b6040516105329493929190613419565b60405180910390f35b60c960009054906101000a900473ffffffffffffffffffffffffffffffffffffffff1673ffffffffffffffffffffffffffffffffffffffff163373ffffffffffffffffffffffffffffffffffffffff16146105cb576040517f08c379a00000000000000000000000000000000000000000000000000000000081526004016105c29061335e565b60405180910390fd5b600073ffffffffffffffffffffffffffffffffffffffff168773ffffffffffffffffffffffffffffffffffffffff16141561063b576040517f08c379a00000000000000000000000000000000000000000000000000000000081526004016106329061331e565b60405180910390fd5b3073ffffffffffffffffffffffffffffffffffffffff168773ffffffffffffffffffffffffffffffffffffffff1614156106aa576040517f08c379a00000000000000000000000000000000000000000000000000000000081526004016106a19061327e565b60405180910390fd5b3073ffffffffffffffffffffffffffffffffffffffff168673ffffffffffffffffffffffffffffffffffffffff1614866040516020016106ea919061305e565b6040516020818303038152906040529061073a576040517f08c379a000000000000000000000000000000000000000000000000000000000815260040161073191906131c6565b60405180910390fd5b50600185101560016040516020016107529190613084565b604051602081830303815290604052906107a2576040517f08c379a000000000000000000000000000000000000000000000000000000000815260040161079991906131c6565b60405180910390fd5b5060c960009054906101000a900473ffffffffffffffffffffffffffffffffffffffff1673ffffffffffffffffffffffffffffffffffffffff1663fe9d9303866040518263ffffffff1660e01b81526004016107fe91906134cc565b600060405180830381600087803b15801561081857600080fd5b505af115801561082c573d6000803e3d6000fd5b50505050600061083b866116d5565b9050604051806080016040528060ca5481526020018973ffffffffffffffffffffffffffffffffffffffff16815260200182815260200162015180621275004261088591906135c6565b61088f91906135c6565b81525060d360008a73ffffffffffffffffffffffffffffffffffffffff1673ffffffffffffffffffffffffffffffffffffffff168152602001908152602001600020600060ca5481526020019081526020016000206000820151816000015560208201518160010160006101000a81548173ffffffffffffffffffffffffffffffffffffffff021916908373ffffffffffffffffffffffffffffffffffffffff16021790555060408201518160020155606082015181600301559050508060cb600082825461095e91906135c6565b92505081905550600160ca600082825461097891906135c6565b9250508190555061099e6040518060400160405280838152602001888152506001611729565b505050505050505050565b60007f5a05180f000000000000000000000000000000000000000000000000000000007bffffffffffffffffffffffffffffffffffffffffffffffffffffffff1916827bffffffffffffffffffffffffffffffffffffffffffffffffffffffff19161480610a1c5750610a1b8261182c565b5b9050919050565b7f6d5c9827c1f410bbb61d3b2a0a34b6b30492d9a1fd38588edca7ec4562ab9c9b610a5581610a506118a6565b6118ae565b60d55460d45414610a9b576040517f08c379a0000000000000000000000000000000000000000000000000000000008152600401610a929061329e565b60405180910390fd5b4760cb5410610adf576040517f08c379a0000000000000000000000000000000000000000000000000000000008152600401610ad6906133be565b60405180910390fd5b610ae9838361194b565b505050565b7f6d5c9827c1f410bbb61d3b2a0a34b6b30492d9a1fd38588edca7ec4562ab9c9b610b2081610b1b6118a6565b6118ae565b8160d58190555060d5547f35120097366493406f2303b5402a4389f4749b66945cfa7a8771a1974e49750860405160405180910390a25050565b600060019054906101000a900460ff16610b825760008054906101000a900460ff1615610b8b565b610b8a6119e1565b5b610bca576040517f08c379a0000000000000000000000000000000000000000000000000000000008152600401610bc1906132fe565b60405180910390fd5b60008060019054906101000a900460ff161590508015610c1a576001600060016101000a81548160ff02191690831515021790555060016000806101000a81548160ff0219169083151502179055505b610c226119f2565b8460c960006101000a81548173ffffffffffffffffffffffffffffffffffffffff021916908373ffffffffffffffffffffffffffffffffffffffff160217905550600060ca81905550600060cb81905550600060cc81905550600060cd819055508360ce60006101000a81548173ffffffffffffffffffffffffffffffffffffffff021916908373ffffffffffffffffffffffffffffffffffffffff1602179055508260cf9080519060200190610cda92919061275b565b508160d09080519060200190610cf192919061275b565b50604051806040016040528060008152602001600081525060d16000820151816000015560208201518160010155905050600160d481905550600060d581905550731820a4b7618bde71dce8cdc73aab6c95905fad2473ffffffffffffffffffffffffffffffffffffffff166329965a1d307fb281fc8c12954d22544db45de3159a39272895b169a852b314f9cc762e44c53b306040518463ffffffff1660e01b8152600401610da39392919061310a565b600060405180830381600087803b158015610dbd57600080fd5b505af1158015610dd1573d6000803e3d6000fd5b50505050610de26000801b33611a63565b8015610e035760008060016101000a81548160ff0219169083151502179055505b5050505050565b600060656000838152602001908152602001600020600101549050919050565b610e3382610e0a565b610e4481610e3f6118a6565b6118ae565b610e4e8383611a63565b505050565b610e5b6118a6565b73ffffffffffffffffffffffffffffffffffffffff168173ffffffffffffffffffffffffffffffffffffffff1614610ec8576040517f08c379a0000000000000000000000000000000000000000000000000000000008152600401610ebf906133de565b60405180910390fd5b610ed28282611a97565b5050565b60d18060000154908060010154905082565b7f6d5c9827c1f410bbb61d3b2a0a34b6b30492d9a1fd38588edca7ec4562ab9c9b610f1a81610f156118a6565b6118ae565b60d55460d45414610f60576040517f08c379a0000000000000000000000000000000000000000000000000000000008152600401610f579061329e565b60405180910390fd5b6000479050600060cc5460cd5483610f7891906135c6565b610f8291906136a7565b90507f9f8f0f9252d89a1f4d3d5de3a164a75579c92b5b745179b8c348a579c4ec3cf981604051610fb391906133fe565b60405180910390a1610fdb604051806040016040528083815260200160008152506000611729565b610fe484611acb565b8160cb54101561102857600060cb5483610ffe91906136a7565b905061100981611b7c565b8060cd600082825461101b91906135c6565b9250508190555050611050565b8160cb54111561104f5760008260cb5461104291906136a7565b905061104d81611c92565b505b5b50505050565b60d45481565b60d55481565b6000801b611077816110726118a6565b6118ae565b8360ce60006101000a81548173ffffffffffffffffffffffffffffffffffffffff021916908373ffffffffffffffffffffffffffffffffffffffff1602179055508260cf90805190602001906110ce92919061275b565b508160d090805190602001906110e592919061275b565b5050505050565b60006111138260976000868152602001908152602001600020611d9690919063ffffffff16565b905092915050565b60006065600084815260200190815260200160002060000160008373ffffffffffffffffffffffffffffffffffffffff1673ffffffffffffffffffffffffffffffffffffffff16815260200190815260200160002060009054906101000a900460ff16905092915050565b6000801b81565b600060d360008473ffffffffffffffffffffffffffffffffffffffff1673ffffffffffffffffffffffffffffffffffffffff1681526020019081526020016000206000838152602001908152602001600020604051806080016040529081600082015481526020016001820160009054906101000a900473ffffffffffffffffffffffffffffffffffffffff1673ffffffffffffffffffffffffffffffffffffffff1673ffffffffffffffffffffffffffffffffffffffff1681526020016002820154815260200160038201548152505090503373ffffffffffffffffffffffffffffffffffffffff16816020015173ffffffffffffffffffffffffffffffffffffffff16146112d2576040517f08c379a00000000000000000000000000000000000000000000000000000000081526004016112c9906132be565b60405180910390fd5b42816060015110611318576040517f08c379a000000000000000000000000000000000000000000000000000000000815260040161130f9061339e565b60405180910390fd5b806040015147101561135f576040517f08c379a0000000000000000000000000000000000000000000000000000000008152600401611356906132de565b60405180910390fd5b806040015160cb600082825461137591906136a7565b92505081905550806040015160cd600082825461139291906135c6565b9250508190555060d360008473ffffffffffffffffffffffffffffffffffffffff1673ffffffffffffffffffffffffffffffffffffffff16815260200190815260200160002060008381526020019081526020016000206000808201600090556001820160006101000a81549073ffffffffffffffffffffffffffffffffffffffff0219169055600282016000905560038201600090555050806020015173ffffffffffffffffffffffffffffffffffffffff166108fc82604001519081150290604051600060405180830381858888f19350505050158015611479573d6000803e3d6000fd5b50505050565b7f6d5c9827c1f410bbb61d3b2a0a34b6b30492d9a1fd38588edca7ec4562ab9c9b81565b60006114c060976000848152602001908152602001600020611db0565b9050919050565b600033905060003490506000811415611515576040517f08c379a000000000000000000000000000000000000000000000000000000000815260040161150c9061333e565b60405180910390fd5b600061152082611dc5565b905060c960009054906101000a900473ffffffffffffffffffffffffffffffffffffffff1673ffffffffffffffffffffffffffffffffffffffff1663dcdc7dd084836040518363ffffffff1660e01b815260040161157f929190613141565b600060405180830381600087803b15801561159957600080fd5b505af11580156115ad573d6000803e3d6000fd5b505050506115d06040518060400160405280848152602001838152506000611729565b8160cc60008282546115e291906135c6565b92505081905550505050565b6115f782610e0a565b611608816116036118a6565b6118ae565b6116128383611a97565b505050565b7f6d5c9827c1f410bbb61d3b2a0a34b6b30492d9a1fd38588edca7ec4562ab9c9b611649816116446118a6565b6118ae565b3460cd600082825461165b91906136a7565b9250508190555050565b60d3602052816000526040600020602052806000526040600020600091509150508060000154908060010160009054906101000a900473ffffffffffffffffffffffffffffffffffffffff16908060020154908060030154905084565b600080823b905060008111915050919050565b60008060d160000154836116e9919061364d565b9050600060d1600101549050808210806117035750600081145b1561171357600092505050611724565b808261171f919061361c565b925050505b919050565b60006001811115611763577f4e487b7100000000000000000000000000000000000000000000000000000000600052602160045260246000fd5b81600181111561179c577f4e487b7100000000000000000000000000000000000000000000000000000000600052602160045260246000fd5b14156117e757816000015160d160000160008282546117bb91906135c6565b92505081905550816020015160d160010160008282546117db91906135c6565b92505081905550611828565b816000015160d1600001600082825461180091906136a7565b92505081905550816020015160d1600101600082825461182091906136a7565b925050819055505b5050565b60007f7965db0b000000000000000000000000000000000000000000000000000000007bffffffffffffffffffffffffffffffffffffffffffffffffffffffff1916827bffffffffffffffffffffffffffffffffffffffffffffffffffffffff1916148061189f575061189e82611e15565b5b9050919050565b600033905090565b6118b8828261111b565b611947576118dd8173ffffffffffffffffffffffffffffffffffffffff166014611e7f565b6118eb8360001c6020611e7f565b6040516020016118fc9291906130b5565b6040516020818303038152906040526040517f08c379a000000000000000000000000000000000000000000000000000000000815260040161193e91906131c6565b60405180910390fd5b5050565b6000610e104261195b91906135c6565b90506000610e10621275008361197191906135c6565b61197b91906135c6565b905060d4547fc4f8dcb175edd2d287c0f4a45eaae7003bd541365fb64b80e2b6e27f3ea6331660cf8685858860d06040516119bb969594939291906131e8565b60405180910390a260d460008154809291906119d69061383a565b919050555050505050565b60006119ec306116c2565b15905090565b600060019054906101000a900460ff16611a41576040517f08c379a0000000000000000000000000000000000000000000000000000000008152600401611a389061337e565b60405180910390fd5b611a49612179565b611a516121ca565b611a5961221b565b611a6161226c565b565b611a6d82826122bd565b611a92816097600085815260200190815260200160002061239e90919063ffffffff16565b505050565b611aa182826123ce565b611ac681609760008581526020019081526020016000206124b090919063ffffffff16565b505050565b60d4547ff3190e98ad0e037a0a8d2d3e0ded439e668cccc81fb06e6ae3cb0068ee7920848260d030604051611b029392919061348e565b60405180910390a260d46000815480929190611b1d9061383a565b919050555060d4547f1fee0280cb1e2879c1a654fe75050d9ba7695a924ef665d22d899b0da20c433e8260d030604051611b599392919061348e565b60405180910390a260d46000815480929190611b749061383a565b919050555050565b60ce60009054906101000a900473ffffffffffffffffffffffffffffffffffffffff1673ffffffffffffffffffffffffffffffffffffffff166108fc829081150290604051600060405180830381858888f19350505050158015611be4573d6000803e3d6000fd5b5060d4547f3aa9e52f12742ee52c60a76aaab30d7a7a8c86e597f6b094800fba244fca3db98260cf604051611c1a92919061345e565b60405180910390a260d46000815480929190611c359061383a565b919050555060d4547f895ce7cc76273740a175952304db6e8d0356602cc9c8e549e320f25a2afe93a98260cf604051611c6f92919061345e565b60405180910390a260d46000815480929190611c8a9061383a565b919050555050565b60d4547f0a7399809224ea042f32e29e805447249d7043c64a1276f099ffbae4c09a50228260cf604051611cc792919061345e565b60405180910390a260d46000815480929190611ce29061383a565b919050555060d4547f913b422c03c3bbd28cba19b4a26730e106ec3950b48881b2800988b42c19a4fa8260cf604051611d1c92919061345e565b60405180910390a260d46000815480929190611d379061383a565b919050555060d4547f3e2e0255165f8c57d2a490a4a24cc6aab712671978205b6511b4a1c8518ff30b8260cf30604051611d739392919061348e565b60405180910390a260d46000815480929190611d8e9061383a565b919050555050565b6000611da583600001836124e0565b60001c905092915050565b6000611dbe82600001612531565b9050919050565b60008060d1600001541480611ddf5750600060d160010154145b15611dec57819050611e10565b60d16000015460d16001015483611e03919061364d565b611e0d919061361c565b90505b919050565b60007f01ffc9a7000000000000000000000000000000000000000000000000000000007bffffffffffffffffffffffffffffffffffffffffffffffffffffffff1916827bffffffffffffffffffffffffffffffffffffffffffffffffffffffff1916149050919050565b606060006002836002611e92919061364d565b611e9c91906135c6565b67ffffffffffffffff811115611edb577f4e487b7100000000000000000000000000000000000000000000000000000000600052604160045260246000fd5b6040519080825280601f01601f191660200182016040528015611f0d5781602001600182028036833780820191505090505b5090507f300000000000000000000000000000000000000000000000000000000000000081600081518110611f6b577f4e487b7100000000000000000000000000000000000000000000000000000000600052603260045260246000fd5b60200101907effffffffffffffffffffffffffffffffffffffffffffffffffffffffffffff1916908160001a9053507f780000000000000000000000000000000000000000000000000000000000000081600181518110611ff5577f4e487b7100000000000000000000000000000000000000000000000000000000600052603260045260246000fd5b60200101907effffffffffffffffffffffffffffffffffffffffffffffffffffffffffffff1916908160001a90535060006001846002612035919061364d565b61203f91906135c6565b90505b600181111561212b577f3031323334353637383961626364656600000000000000000000000000000000600f8616601081106120a7577f4e487b7100000000000000000000000000000000000000000000000000000000600052603260045260246000fd5b1a60f81b8282815181106120e4577f4e487b7100000000000000000000000000000000000000000000000000000000600052603260045260246000fd5b60200101907effffffffffffffffffffffffffffffffffffffffffffffffffffffffffffff1916908160001a905350600485901c945080612124906137ad565b9050612042565b506000841461216f576040517f08c379a00000000000000000000000000000000000000000000000000000000081526004016121669061325e565b60405180910390fd5b8091505092915050565b600060019054906101000a900460ff166121c8576040517f08c379a00000000000000000000000000000000000000000000000000000000081526004016121bf9061337e565b60405180910390fd5b565b600060019054906101000a900460ff16612219576040517f08c379a00000000000000000000000000000000000000000000000000000000081526004016122109061337e565b60405180910390fd5b565b600060019054906101000a900460ff1661226a576040517f08c379a00000000000000000000000000000000000000000000000000000000081526004016122619061337e565b60405180910390fd5b565b600060019054906101000a900460ff166122bb576040517f08c379a00000000000000000000000000000000000000000000000000000000081526004016122b29061337e565b60405180910390fd5b565b6122c7828261111b565b61239a5760016065600084815260200190815260200160002060000160008373ffffffffffffffffffffffffffffffffffffffff1673ffffffffffffffffffffffffffffffffffffffff16815260200190815260200160002060006101000a81548160ff02191690831515021790555061233f6118a6565b73ffffffffffffffffffffffffffffffffffffffff168173ffffffffffffffffffffffffffffffffffffffff16837f2f8788117e7eff1d82e926ec794901d17c78024a50270940304540a733656f0d60405160405180910390a45b5050565b60006123c6836000018373ffffffffffffffffffffffffffffffffffffffff1660001b612542565b905092915050565b6123d8828261111b565b156124ac5760006065600084815260200190815260200160002060000160008373ffffffffffffffffffffffffffffffffffffffff1673ffffffffffffffffffffffffffffffffffffffff16815260200190815260200160002060006101000a81548160ff0219169083151502179055506124516118a6565b73ffffffffffffffffffffffffffffffffffffffff168173ffffffffffffffffffffffffffffffffffffffff16837ff6391f5c32d9c69d2a47ea670b442974b53935d1edc7fd64eb21e047a839171b60405160405180910390a45b5050565b60006124d8836000018373ffffffffffffffffffffffffffffffffffffffff1660001b6125b2565b905092915050565b600082600001828154811061251e577f4e487b7100000000000000000000000000000000000000000000000000000000600052603260045260246000fd5b9060005260206000200154905092915050565b600081600001805490509050919050565b600061254e8383612738565b6125a75782600001829080600181540180825580915050600190039060005260206000200160009091909190915055826000018054905083600101600084815260200190815260200160002081905550600190506125ac565b600090505b92915050565b6000808360010160008481526020019081526020016000205490506000811461272c5760006001826125e491906136a7565b90506000600186600001805490506125fc91906136a7565b90508181146126b7576000866000018281548110612643577f4e487b7100000000000000000000000000000000000000000000000000000000600052603260045260246000fd5b906000526020600020015490508087600001848154811061268d577f4e487b7100000000000000000000000000000000000000000000000000000000600052603260045260246000fd5b90600052602060002001819055508387600101600083815260200190815260200160002081905550505b856000018054806126f1577f4e487b7100000000000000000000000000000000000000000000000000000000600052603160045260246000fd5b600190038181906000526020600020016000905590558560010160008681526020019081526020016000206000905560019350505050612732565b60009150505b92915050565b600080836001016000848152602001908152602001600020541415905092915050565b828054612767906137d7565b90600052602060002090601f01602090048101928261278957600085556127d0565b82601f106127a257805160ff19168380011785556127d0565b828001600101855582156127d0579182015b828111156127cf5782518255916020019190600101906127b4565b5b5090506127dd91906127e1565b5090565b5b808211156127fa5760008160009055506001016127e2565b5090565b600061281161280c84613548565b613523565b90508281526020810184848401111561282957600080fd5b61283484828561376b565b509392505050565b60008135905061284b81613e5e565b92915050565b60008135905061286081613e75565b92915050565b60008135905061287581613e8c565b92915050565b60008083601f84011261288d57600080fd5b8235905067ffffffffffffffff8111156128a657600080fd5b6020830191508360018202830111156128be57600080fd5b9250929050565b6000813590506128d481613ea3565b92915050565b600082601f8301126128eb57600080fd5b81356128fb8482602086016127fe565b91505092915050565b60008135905061291381613eba565b92915050565b60008060008060008060008060c0898b03121561293557600080fd5b60006129438b828c0161283c565b98505060206129548b828c0161283c565b97505060406129658b828c0161283c565b96505060606129768b828c01612904565b955050608089013567ffffffffffffffff81111561299357600080fd5b61299f8b828c0161287b565b945094505060a089013567ffffffffffffffff8111156129be57600080fd5b6129ca8b828c0161287b565b92509250509295985092959890939650565b6000806000606084860312156129f157600080fd5b60006129ff8682870161283c565b935050602084013567ffffffffffffffff811115612a1c57600080fd5b612a28868287016128da565b925050604084013567ffffffffffffffff811115612a4557600080fd5b612a51868287016128da565b9150509250925092565b60008060408385031215612a6e57600080fd5b6000612a7c8582860161283c565b9250506020612a8d85828601612904565b9150509250929050565b600060208284031215612aa957600080fd5b6000612ab784828501612851565b91505092915050565b60008060408385031215612ad357600080fd5b6000612ae185828601612851565b9250506020612af28582860161283c565b9150509250929050565b60008060408385031215612b0f57600080fd5b6000612b1d85828601612851565b9250506020612b2e85828601612904565b9150509250929050565b600060208284031215612b4a57600080fd5b6000612b5884828501612866565b91505092915050565b60008060008060808587031215612b7757600080fd5b6000612b85878288016128c5565b9450506020612b968782880161283c565b935050604085013567ffffffffffffffff811115612bb357600080fd5b612bbf878288016128da565b925050606085013567ffffffffffffffff811115612bdc57600080fd5b612be8878288016128da565b91505092959194509250565b60008060408385031215612c0757600080fd5b600083013567ffffffffffffffff811115612c2157600080fd5b612c2d858286016128da565b9250506020612c3e85828601612904565b9150509250929050565b600060208284031215612c5a57600080fd5b6000612c6884828501612904565b91505092915050565b612c7a816136db565b82525050565b612c91612c8c826136db565b613883565b82525050565b612ca0816136ed565b82525050565b612caf816136f9565b82525050565b6000612cc08261358e565b612cca81856135aa565b9350612cda81856020860161377a565b612ce38161396d565b840191505092915050565b6000612cf98261358e565b612d0381856135bb565b9350612d1381856020860161377a565b80840191505092915050565b60008154612d2c816137d7565b612d3681866135aa565b94506001821660008114612d515760018114612d6357612d96565b60ff1983168652602086019350612d96565b612d6c85613579565b60005b83811015612d8e57815481890152600182019150602081019050612d6f565b808801955050505b50505092915050565b6000612dac6020836135aa565b9150612db78261398b565b602082019050919050565b6000612dcf6021836135aa565b9150612dda826139b4565b604082019050919050565b6000612df26023836135bb565b9150612dfd82613a03565b602382019050919050565b6000612e156025836135bb565b9150612e2082613a52565b602582019050919050565b6000612e386024836135aa565b9150612e4382613aa1565b604082019050919050565b6000612e5b6023836135aa565b9150612e6682613af0565b604082019050919050565b6000612e7e6007836135bb565b9150612e8982613b3f565b600782019050919050565b6000612ea16039836135aa565b9150612eac82613b68565b604082019050919050565b6000612ec4602e836135aa565b9150612ecf82613bb7565b604082019050919050565b6000612ee7602b836135aa565b9150612ef282613c06565b604082019050919050565b6000612f0a600c836135aa565b9150612f1582613c55565b602082019050919050565b6000612f2d600083613599565b9150612f3882613c7e565b600082019050919050565b6000612f506029836135aa565b9150612f5b82613c81565b604082019050919050565b6000612f73602b836135aa565b9150612f7e82613cd0565b604082019050919050565b6000612f966017836135bb565b9150612fa182613d1f565b601782019050919050565b6000612fb96022836135aa565b9150612fc482613d48565b604082019050919050565b6000612fdc6032836135aa565b9150612fe782613d97565b604082019050919050565b6000612fff6011836135bb565b915061300a82613de6565b601182019050919050565b6000613022602f836135aa565b915061302d82613e0f565b604082019050919050565b61304181613761565b82525050565b61305861305382613761565b6138a7565b82525050565b600061306982612de5565b91506130758284612c80565b60148201915081905092915050565b600061308f82612e08565b915061309b8284613047565b6020820191506130aa82612e71565b915081905092915050565b60006130c082612f89565b91506130cc8285612cee565b91506130d782612ff2565b91506130e38284612cee565b91508190509392505050565b60006020820190506131046000830184612c71565b92915050565b600060608201905061311f6000830186612c71565b61312c6020830185612ca6565b6131396040830184612c71565b949350505050565b60006080820190506131566000830185612c71565b6131636020830184613038565b818103604083015261317481612f20565b9050818103606083015261318781612f20565b90509392505050565b60006020820190506131a56000830184612c97565b92915050565b60006020820190506131c06000830184612ca6565b92915050565b600060208201905081810360008301526131e08184612cb5565b905092915050565b600060c08201905081810360008301526132028189612d1f565b905081810360208301526132168188612cb5565b90506132256040830187613038565b6132326060830186613038565b61323f6080830185613038565b81810360a08301526132518184612d1f565b9050979650505050505050565b6000602082019050818103600083015261327781612d9f565b9050919050565b6000602082019050818103600083015261329781612dc2565b9050919050565b600060208201905081810360008301526132b781612e2b565b9050919050565b600060208201905081810360008301526132d781612e4e565b9050919050565b600060208201905081810360008301526132f781612e94565b9050919050565b6000602082019050818103600083015261331781612eb7565b9050919050565b6000602082019050818103600083015261333781612eda565b9050919050565b6000602082019050818103600083015261335781612efd565b9050919050565b6000602082019050818103600083015261337781612f43565b9050919050565b6000602082019050818103600083015261339781612f66565b9050919050565b600060208201905081810360008301526133b781612fac565b9050919050565b600060208201905081810360008301526133d781612fcf565b9050919050565b600060208201905081810360008301526133f781613015565b9050919050565b60006020820190506134136000830184613038565b92915050565b600060808201905061342e6000830187613038565b61343b6020830186612c71565b6134486040830185613038565b6134556060830184613038565b95945050505050565b60006040820190506134736000830185613038565b81810360208301526134858184612d1f565b90509392505050565b60006060820190506134a36000830186613038565b81810360208301526134b58185612d1f565b90506134c46040830184612c71565b949350505050565b60006040820190506134e16000830184613038565b81810360208301526134f281612f20565b905092915050565b600060408201905061350f6000830185613038565b61351c6020830184613038565b9392505050565b600061352d61353e565b90506135398282613809565b919050565b6000604051905090565b600067ffffffffffffffff8211156135635761356261393e565b5b61356c8261396d565b9050602081019050919050565b60008190508160005260206000209050919050565b600081519050919050565b600082825260208201905092915050565b600082825260208201905092915050565b600081905092915050565b60006135d182613761565b91506135dc83613761565b9250827fffffffffffffffffffffffffffffffffffffffffffffffffffffffffffffffff03821115613611576136106138b1565b5b828201905092915050565b600061362782613761565b915061363283613761565b925082613642576136416138e0565b5b828204905092915050565b600061365882613761565b915061366383613761565b9250817fffffffffffffffffffffffffffffffffffffffffffffffffffffffffffffffff048311821515161561369c5761369b6138b1565b5b828202905092915050565b60006136b282613761565b91506136bd83613761565b9250828210156136d0576136cf6138b1565b5b828203905092915050565b60006136e682613741565b9050919050565b60008115159050919050565b6000819050919050565b60007fffffffff0000000000000000000000000000000000000000000000000000000082169050919050565b600061373a826136db565b9050919050565b600073ffffffffffffffffffffffffffffffffffffffff82169050919050565b6000819050919050565b82818337600083830152505050565b60005b8381101561379857808201518184015260208101905061377d565b838111156137a7576000848401525b50505050565b60006137b882613761565b915060008214156137cc576137cb6138b1565b5b600182039050919050565b600060028204905060018216806137ef57607f821691505b602082108114156138035761380261390f565b5b50919050565b6138128261396d565b810181811067ffffffffffffffff821117156138315761383061393e565b5b80604052505050565b600061384582613761565b91507fffffffffffffffffffffffffffffffffffffffffffffffffffffffffffffffff821415613878576138776138b1565b5b600182019050919050565b600061388e82613895565b9050919050565b60006138a08261397e565b9050919050565b6000819050919050565b7f4e487b7100000000000000000000000000000000000000000000000000000000600052601160045260246000fd5b7f4e487b7100000000000000000000000000000000000000000000000000000000600052601260045260246000fd5b7f4e487b7100000000000000000000000000000000000000000000000000000000600052602260045260246000fd5b7f4e487b7100000000000000000000000000000000000000000000000000000000600052604160045260246000fd5b6000601f19601f8301169050919050565b60008160601b9050919050565b7f537472696e67733a20686578206c656e67746820696e73756666696369656e74600082015250565b7f7874616b653a20746f6b656e7352656365697665642066726f6d20697473656c60008201527f6600000000000000000000000000000000000000000000000000000000000000602082015250565b7f7874616b653a20746f6b656e73526563656976656420666f722061646472657360008201527f733a200000000000000000000000000000000000000000000000000000000000602082015250565b7f7874616b653a20596f75206e65656420746f207769746864726177206174206c60008201527f6561737420000000000000000000000000000000000000000000000000000000602082015250565b7f7874616b653a20636865636b416c6c4c6f677345786563757465643a2066616960008201527f6c65642100000000000000000000000000000000000000000000000000000000602082015250565b7f7874616b653a2043616e277420636c61696d20666f7220736f6d656f6e65206560008201527f6c73650000000000000000000000000000000000000000000000000000000000602082015250565b7f20746f6b656e7300000000000000000000000000000000000000000000000000600082015250565b7f7874616b653a20436f6e74726163742068617320696e73756666696369656e7460008201527f2062616c616e636520746f207361746973667920636c61696d00000000000000602082015250565b7f496e697469616c697a61626c653a20636f6e747261637420697320616c72656160008201527f647920696e697469616c697a6564000000000000000000000000000000000000602082015250565b7f7874616b653a20746f6b656e7352656365697665642066726f6d20746865207a60008201527f65726f2061646472657373000000000000000000000000000000000000000000602082015250565b7f5a45524f5f4445504f5349540000000000000000000000000000000000000000600082015250565b50565b7f7874616b653a20746f6b656e7352656365697665642066726f6d20756e6b6e6f60008201527f776e2073656e6465720000000000000000000000000000000000000000000000602082015250565b7f496e697469616c697a61626c653a20636f6e7472616374206973206e6f74206960008201527f6e697469616c697a696e67000000000000000000000000000000000000000000602082015250565b7f416363657373436f6e74726f6c3a206163636f756e7420000000000000000000600082015250565b7f7874616b653a2043616e277420636c61696d206265666f726520646561646c6960008201527f6e65000000000000000000000000000000000000000000000000000000000000602082015250565b7f7874616b653a2043616e27742069737375652064656c65676174696f6e2e205560008201527f6e73617469736669656420636c61696d732e0000000000000000000000000000602082015250565b7f206973206d697373696e6720726f6c6520000000000000000000000000000000600082015250565b7f416363657373436f6e74726f6c3a2063616e206f6e6c792072656e6f756e636560008201527f20726f6c657320666f722073656c660000000000000000000000000000000000602082015250565b613e67816136db565b8114613e7257600080fd5b50565b613e7e816136f9565b8114613e8957600080fd5b50565b613e9581613703565b8114613ea057600080fd5b50565b613eac8161372f565b8114613eb757600080fd5b50565b613ec381613761565b8114613ece57600080fd5b5056fea2646970667358221220fa19293acb4d5fbc9063ed18ecfd8fec2fc8ef68df586351a8d4950db262157664736f6c63430008040033",
  "linkReferences": {},
  "deployedLinkReferences": {}
}