{
  "_format": "hh-sol-artifact-1",
  "contractName": "LiquidStaking",
  "sourceName": "contracts/LiquidStaking.sol",
  "abi": [
    {
      "inputs": [],
      "stateMutability": "nonpayable",
      "type": "constructor"
    },
    {
      "anonymous": false,
      "inputs": [
        {
          "indexed": true,
          "internalType": "uint256",
          "name": "currLogSeq",
          "type": "uint256"
        },
        {
          "indexed": false,
          "internalType": "string",
          "name": "fromPrincipalPubkey",
          "type": "string"
        },
        {
          "indexed": false,
          "internalType": "string",
          "name": "toNodeID",
          "type": "string"
        },
        {
          "indexed": false,
          "internalType": "uint256",
          "name": "startTime",
          "type": "uint256"
        },
        {
          "indexed": false,
          "internalType": "uint256",
          "name": "endTime",
          "type": "uint256"
        },
        {
          "indexed": false,
          "internalType": "uint256",
          "name": "amount",
          "type": "uint256"
        },
        {
          "indexed": false,
          "internalType": "string",
          "name": "rewardPubkey",
          "type": "string"
        }
      ],
      "name": "AddDelegator",
      "type": "event"
    },
    {
      "anonymous": false,
      "inputs": [
        {
          "indexed": true,
          "internalType": "uint256",
          "name": "currLogSeq",
          "type": "uint256"
        },
        {
          "indexed": false,
          "internalType": "uint256",
          "name": "amount",
          "type": "uint256"
        },
        {
          "indexed": false,
          "internalType": "string",
          "name": "principalPubkey",
          "type": "string"
        },
        {
          "indexed": false,
          "internalType": "address",
          "name": "contractAddr",
          "type": "address"
        }
      ],
      "name": "PrincipalC2ContractSubmit",
      "type": "event"
    },
    {
      "anonymous": false,
      "inputs": [
        {
          "indexed": true,
          "internalType": "uint256",
          "name": "currLogSeq",
          "type": "uint256"
        },
        {
          "indexed": false,
          "internalType": "uint256",
          "name": "amount",
          "type": "uint256"
        },
        {
          "indexed": false,
          "internalType": "string",
          "name": "principalPubkey",
          "type": "string"
        }
      ],
      "name": "PrincipalC2PrincipalPExport",
      "type": "event"
    },
    {
      "anonymous": false,
      "inputs": [
        {
          "indexed": true,
          "internalType": "uint256",
          "name": "currLogSeq",
          "type": "uint256"
        },
        {
          "indexed": false,
          "internalType": "uint256",
          "name": "amount",
          "type": "uint256"
        },
        {
          "indexed": false,
          "internalType": "string",
          "name": "principalPubkey",
          "type": "string"
        }
      ],
      "name": "PrincipalC2PrincipalPImport",
      "type": "event"
    },
    {
      "anonymous": false,
      "inputs": [
        {
          "indexed": true,
          "internalType": "uint256",
          "name": "currLogSeq",
          "type": "uint256"
        },
        {
          "indexed": false,
          "internalType": "uint256",
          "name": "amount",
          "type": "uint256"
        },
        {
          "indexed": false,
          "internalType": "string",
          "name": "principalPubkey",
          "type": "string"
        }
      ],
      "name": "PrincipalP2PrincipalCExport",
      "type": "event"
    },
    {
      "anonymous": false,
      "inputs": [
        {
          "indexed": true,
          "internalType": "uint256",
          "name": "currLogSeq",
          "type": "uint256"
        },
        {
          "indexed": false,
          "internalType": "uint256",
          "name": "amount",
          "type": "uint256"
        },
        {
          "indexed": false,
          "internalType": "string",
          "name": "principalPubkey",
          "type": "string"
        }
      ],
      "name": "PrincipalP2PrincipalCImport",
      "type": "event"
    },
    {
      "anonymous": false,
      "inputs": [
        {
          "indexed": false,
          "internalType": "uint256",
          "name": "rewardAmount",
          "type": "uint256"
        }
      ],
      "name": "ReceivedRewards",
      "type": "event"
    },
    {
      "anonymous": false,
      "inputs": [
        {
          "indexed": true,
          "internalType": "uint256",
          "name": "currLogSeq",
          "type": "uint256"
        },
        {
          "indexed": false,
          "internalType": "uint256",
          "name": "amount",
          "type": "uint256"
        },
        {
          "indexed": false,
          "internalType": "string",
          "name": "rewardPubkey",
          "type": "string"
        },
        {
          "indexed": false,
          "internalType": "address",
          "name": "contractAddr",
          "type": "address"
        }
      ],
      "name": "RewardP2ContractExport",
      "type": "event"
    },
    {
      "anonymous": false,
      "inputs": [
        {
          "indexed": true,
          "internalType": "uint256",
          "name": "currLogSeq",
          "type": "uint256"
        },
        {
          "indexed": false,
          "internalType": "uint256",
          "name": "amount",
          "type": "uint256"
        },
        {
          "indexed": false,
          "internalType": "string",
          "name": "rewardPubkey",
          "type": "string"
        },
        {
          "indexed": false,
          "internalType": "address",
          "name": "contractAddr",
          "type": "address"
        }
      ],
      "name": "RewardP2ContractImport",
      "type": "event"
    },
    {
      "anonymous": false,
      "inputs": [
        {
          "indexed": true,
          "internalType": "bytes32",
          "name": "role",
          "type": "bytes32"
        },
        {
          "indexed": true,
          "internalType": "bytes32",
          "name": "previousAdminRole",
          "type": "bytes32"
        },
        {
          "indexed": true,
          "internalType": "bytes32",
          "name": "newAdminRole",
          "type": "bytes32"
        }
      ],
      "name": "RoleAdminChanged",
      "type": "event"
    },
    {
      "anonymous": false,
      "inputs": [
        {
          "indexed": true,
          "internalType": "bytes32",
          "name": "role",
          "type": "bytes32"
        },
        {
          "indexed": true,
          "internalType": "address",
          "name": "account",
          "type": "address"
        },
        {
          "indexed": true,
          "internalType": "address",
          "name": "sender",
          "type": "address"
        }
      ],
      "name": "RoleGranted",
      "type": "event"
    },
    {
      "anonymous": false,
      "inputs": [
        {
          "indexed": true,
          "internalType": "bytes32",
          "name": "role",
          "type": "bytes32"
        },
        {
          "indexed": true,
          "internalType": "address",
          "name": "account",
          "type": "address"
        },
        {
          "indexed": true,
          "internalType": "address",
          "name": "sender",
          "type": "address"
        }
      ],
      "name": "RoleRevoked",
      "type": "event"
    },
    {
      "anonymous": false,
      "inputs": [
        {
          "indexed": true,
          "internalType": "uint256",
          "name": "seq",
          "type": "uint256"
        }
      ],
      "name": "UpdatedSignLogSeq",
      "type": "event"
    },
    {
      "inputs": [],
      "name": "BOT_ROLE",
      "outputs": [
        {
          "internalType": "bytes32",
          "name": "",
          "type": "bytes32"
        }
      ],
      "stateMutability": "view",
      "type": "function"
    },
    {
      "inputs": [],
      "name": "DEFAULT_ADMIN_ROLE",
      "outputs": [
        {
          "internalType": "bytes32",
          "name": "",
          "type": "bytes32"
        }
      ],
      "stateMutability": "view",
      "type": "function"
    },
    {
      "inputs": [
        {
          "internalType": "uint256",
          "name": "id",
          "type": "uint256"
        }
      ],
      "name": "claim",
      "outputs": [],
      "stateMutability": "nonpayable",
      "type": "function"
    },
    {
      "inputs": [
        {
          "internalType": "address",
          "name": "",
          "type": "address"
        },
        {
          "internalType": "uint256",
          "name": "",
          "type": "uint256"
        }
      ],
      "name": "claimReqs",
      "outputs": [
        {
          "internalType": "uint256",
          "name": "id",
          "type": "uint256"
        },
        {
          "internalType": "address",
          "name": "user",
          "type": "address"
        },
        {
          "internalType": "uint256",
          "name": "avaxToReturn",
          "type": "uint256"
        },
        {
          "internalType": "uint256",
          "name": "deadline",
          "type": "uint256"
        }
      ],
      "stateMutability": "view",
      "type": "function"
    },
    {
      "inputs": [
        {
          "internalType": "address",
          "name": "user",
          "type": "address"
        }
      ],
      "name": "claims",
      "outputs": [
        {
          "components": [
            {
              "internalType": "uint256",
              "name": "id",
              "type": "uint256"
            },
            {
              "internalType": "address",
              "name": "user",
              "type": "address"
            },
            {
              "internalType": "uint256",
              "name": "avaxToReturn",
              "type": "uint256"
            },
            {
              "internalType": "uint256",
              "name": "deadline",
              "type": "uint256"
            }
          ],
          "internalType": "struct LiquidStaking.ClaimRequest[50]",
          "name": "",
          "type": "tuple[50]"
        }
      ],
      "stateMutability": "view",
      "type": "function"
    },
    {
      "inputs": [
        {
          "internalType": "string",
          "name": "toNodeID",
          "type": "string"
        },
        {
          "internalType": "uint256",
          "name": "amount",
          "type": "uint256"
        }
      ],
      "name": "delegate",
      "outputs": [],
      "stateMutability": "nonpayable",
      "type": "function"
    },
    {
      "inputs": [],
      "name": "deposit",
      "outputs": [],
      "stateMutability": "payable",
      "type": "function"
    },
    {
      "inputs": [],
      "name": "exchangeRate",
      "outputs": [
        {
          "internalType": "uint256",
          "name": "totalAvax",
          "type": "uint256"
        },
        {
          "internalType": "uint256",
          "name": "poolTokenSupply",
          "type": "uint256"
        }
      ],
      "stateMutability": "view",
      "type": "function"
    },
    {
      "inputs": [
        {
          "internalType": "bytes32",
          "name": "role",
          "type": "bytes32"
        }
      ],
      "name": "getRoleAdmin",
      "outputs": [
        {
          "internalType": "bytes32",
          "name": "",
          "type": "bytes32"
        }
      ],
      "stateMutability": "view",
      "type": "function"
    },
    {
      "inputs": [
        {
          "internalType": "bytes32",
          "name": "role",
          "type": "bytes32"
        },
        {
          "internalType": "uint256",
          "name": "index",
          "type": "uint256"
        }
      ],
      "name": "getRoleMember",
      "outputs": [
        {
          "internalType": "address",
          "name": "",
          "type": "address"
        }
      ],
      "stateMutability": "view",
      "type": "function"
    },
    {
      "inputs": [
        {
          "internalType": "bytes32",
          "name": "role",
          "type": "bytes32"
        }
      ],
      "name": "getRoleMemberCount",
      "outputs": [
        {
          "internalType": "uint256",
          "name": "",
          "type": "uint256"
        }
      ],
      "stateMutability": "view",
      "type": "function"
    },
    {
      "inputs": [
        {
          "internalType": "bytes32",
          "name": "role",
          "type": "bytes32"
        },
        {
          "internalType": "address",
          "name": "account",
          "type": "address"
        }
      ],
      "name": "grantRole",
      "outputs": [],
      "stateMutability": "nonpayable",
      "type": "function"
    },
    {
      "inputs": [
        {
          "internalType": "bytes32",
          "name": "role",
          "type": "bytes32"
        },
        {
          "internalType": "address",
          "name": "account",
          "type": "address"
        }
      ],
      "name": "hasRole",
      "outputs": [
        {
          "internalType": "bool",
          "name": "",
          "type": "bool"
        }
      ],
      "stateMutability": "view",
      "type": "function"
    },
    {
      "inputs": [
        {
          "internalType": "contract StakedAVAXToken",
          "name": "poolToken_",
          "type": "address"
        },
        {
          "internalType": "address",
          "name": "principalEvmAddr_",
          "type": "address"
        },
        {
          "internalType": "string",
          "name": "principalPubkey_",
          "type": "string"
        },
        {
          "internalType": "string",
          "name": "rewardPubkey_",
          "type": "string"
        }
      ],
      "name": "initialize",
      "outputs": [],
      "stateMutability": "nonpayable",
      "type": "function"
    },
    {
      "inputs": [],
      "name": "nextLogSeq",
      "outputs": [
        {
          "internalType": "uint256",
          "name": "",
          "type": "uint256"
        }
      ],
      "stateMutability": "view",
      "type": "function"
    },
    {
      "inputs": [
        {
          "internalType": "uint256",
          "name": "pRewardBalance",
          "type": "uint256"
        }
      ],
      "name": "periodicUpdate",
      "outputs": [],
      "stateMutability": "nonpayable",
      "type": "function"
    },
    {
      "inputs": [
        {
          "internalType": "bytes32",
          "name": "role",
          "type": "bytes32"
        },
        {
          "internalType": "address",
          "name": "account",
          "type": "address"
        }
      ],
      "name": "renounceRole",
      "outputs": [],
      "stateMutability": "nonpayable",
      "type": "function"
    },
    {
      "inputs": [
        {
          "internalType": "bytes32",
          "name": "role",
          "type": "bytes32"
        },
        {
          "internalType": "address",
          "name": "account",
          "type": "address"
        }
      ],
      "name": "revokeRole",
      "outputs": [],
      "stateMutability": "nonpayable",
      "type": "function"
    },
    {
      "inputs": [
        {
          "internalType": "uint256",
          "name": "seq",
          "type": "uint256"
        }
      ],
      "name": "setSignLogSeq",
      "outputs": [],
      "stateMutability": "nonpayable",
      "type": "function"
    },
    {
      "inputs": [],
      "name": "signLogSeq",
      "outputs": [
        {
          "internalType": "uint256",
          "name": "",
          "type": "uint256"
        }
      ],
      "stateMutability": "view",
      "type": "function"
    },
    {
      "inputs": [],
      "name": "submitPrincipal",
      "outputs": [],
      "stateMutability": "payable",
      "type": "function"
    },
    {
      "inputs": [
        {
          "internalType": "bytes4",
          "name": "interfaceId",
          "type": "bytes4"
        }
      ],
      "name": "supportsInterface",
      "outputs": [
        {
          "internalType": "bool",
          "name": "",
          "type": "bool"
        }
      ],
      "stateMutability": "view",
      "type": "function"
    },
    {
      "inputs": [
        {
          "internalType": "address",
          "name": "",
          "type": "address"
        },
        {
          "internalType": "address",
          "name": "from",
          "type": "address"
        },
        {
          "internalType": "address",
          "name": "to",
          "type": "address"
        },
        {
          "internalType": "uint256",
          "name": "amount",
          "type": "uint256"
        },
        {
          "internalType": "bytes",
          "name": "",
          "type": "bytes"
        },
        {
          "internalType": "bytes",
          "name": "",
          "type": "bytes"
        }
      ],
      "name": "tokensReceived",
      "outputs": [],
      "stateMutability": "nonpayable",
      "type": "function"
    },
    {
      "inputs": [
        {
          "internalType": "address",
          "name": "principalEvmAddr_",
          "type": "address"
        },
        {
          "internalType": "string",
          "name": "principalPubkey_",
          "type": "string"
        },
        {
          "internalType": "string",
          "name": "rewardPubkey_",
          "type": "string"
        }
      ],
      "name": "updateAddresses",
      "outputs": [],
      "stateMutability": "nonpayable",
      "type": "function"
    }
  ],
  "bytecode": "0x60806040523480156200001157600080fd5b50600060019054906101000a900460ff166200003c5760008054906101000a900460ff16156200004d565b6200004c6200010960201b60201c565b5b6200008f576040517f08c379a0000000000000000000000000000000000000000000000000000000008152600401620000869062000161565b60405180910390fd5b60008060019054906101000a900460ff161590508015620000e0576001600060016101000a81548160ff02191690831515021790555060016000806101000a81548160ff0219169083151502179055505b8015620001025760008060016101000a81548160ff0219169083151502179055505b50620001e3565b600062000121306200012760201b620018c21760201c565b15905090565b600080823b905060008111915050919050565b600062000149602e8362000183565b9150620001568262000194565b604082019050919050565b600060208201905081810360008301526200017c816200013a565b9050919050565b600082825260208201905092915050565b7f496e697469616c697a61626c653a20636f6e747261637420697320616c72656160008201527f647920696e697469616c697a6564000000000000000000000000000000000000602082015250565b6146d280620001f36000396000f3fe60806040526004361061014a5760003560e01c80634e0995ab116100b6578063c6788bdd1161006f578063c6788bdd1461048c578063ca15c873146104c9578063d0e30db014610506578063d547741f14610510578063e6f9663314610539578063f773d87d146105435761014a565b80634e0995ab1461036857806368cbb20d146103935780639010d07c146103bc57806391d14854146103f9578063a217fddf14610436578063b1503774146104615761014a565b8063248a9ca311610108578063248a9ca31461025b5780632f2ff15d1461029857806336568abe146102c1578063379607f5146102ea5780633ba0b9a91461031357806343b188781461033f5761014a565b806223de291461014f57806301ffc9a71461017857806302f8ffd1146101b557806303f24de1146101e057806307ebe003146102095780632016a0d214610232575b600080fd5b34801561015b57600080fd5b5061017660048036038101906101719190612e95565b610583565b005b34801561018457600080fd5b5061019f600480360381019061019a91906130b4565b610a22565b6040516101ac9190613850565b60405180910390f35b3480156101c157600080fd5b506101ca610a9c565b6040516101d79190613afe565b60405180910390f35b3480156101ec57600080fd5b5061020760048036038101906102029190613170565b610aa2565b005b34801561021557600080fd5b50610230600480360381019061022b91906131c4565b610b79565b005b34801561023e57600080fd5b50610259600480360381019061025491906130dd565b610be5565b005b34801561026757600080fd5b50610282600480360381019061027d9190613013565b610e95565b60405161028f919061386b565b60405180910390f35b3480156102a457600080fd5b506102bf60048036038101906102ba919061303c565b610eb5565b005b3480156102cd57600080fd5b506102e860048036038101906102e3919061303c565b610ede565b005b3480156102f657600080fd5b50610311600480360381019061030c91906131c4565b610f61565b005b34801561031f57600080fd5b506103286112b7565b604051610336929190613bfa565b60405180910390f35b34801561034b57600080fd5b50610366600480360381019061036191906131c4565b6112c9565b005b34801561037457600080fd5b5061037d611443565b60405161038a9190613afe565b60405180910390f35b34801561039f57600080fd5b506103ba60048036038101906103b59190612f58565b611449565b005b3480156103c857600080fd5b506103e360048036038101906103de9190613078565b6114d3565b6040516103f09190613793565b60405180910390f35b34801561040557600080fd5b50610420600480360381019061041b919061303c565b611502565b60405161042d9190613850565b60405180910390f35b34801561044257600080fd5b5061044b61156d565b604051610458919061386b565b60405180910390f35b34801561046d57600080fd5b50610476611574565b604051610483919061386b565b60405180910390f35b34801561049857600080fd5b506104b360048036038101906104ae9190612e6c565b611598565b6040516104c09190613834565b60405180910390f35b3480156104d557600080fd5b506104f060048036038101906104eb9190613013565b61169d565b6040516104fd9190613afe565b60405180910390f35b61050e6116c1565b005b34801561051c57600080fd5b506105376004803603810190610532919061303c565b6117e8565b005b610541611811565b005b34801561054f57600080fd5b5061056a60048036038101906105659190612fd7565b61185f565b60405161057a9493929190613b19565b60405180910390f35b60c960009054906101000a900473ffffffffffffffffffffffffffffffffffffffff1673ffffffffffffffffffffffffffffffffffffffff163373ffffffffffffffffffffffffffffffffffffffff1614610613576040517f08c379a000000000000000000000000000000000000000000000000000000000815260040161060a90613a1e565b60405180910390fd5b600073ffffffffffffffffffffffffffffffffffffffff168773ffffffffffffffffffffffffffffffffffffffff161415610683576040517f08c379a000000000000000000000000000000000000000000000000000000000815260040161067a906139de565b60405180910390fd5b3073ffffffffffffffffffffffffffffffffffffffff168773ffffffffffffffffffffffffffffffffffffffff1614156106f2576040517f08c379a00000000000000000000000000000000000000000000000000000000081526004016106e99061393e565b60405180910390fd5b3073ffffffffffffffffffffffffffffffffffffffff168673ffffffffffffffffffffffffffffffffffffffff1614866040516020016107329190613702565b60405160208183030381529060405290610782576040517f08c379a00000000000000000000000000000000000000000000000000000000081526004016107799190613886565b60405180910390fd5b506001851015600160405160200161079a9190613728565b604051602081830303815290604052906107ea576040517f08c379a00000000000000000000000000000000000000000000000000000000081526004016107e19190613886565b60405180910390fd5b5060c960009054906101000a900473ffffffffffffffffffffffffffffffffffffffff1673ffffffffffffffffffffffffffffffffffffffff1663fe9d9303866040518263ffffffff1660e01b81526004016108469190613bcc565b600060405180830381600087803b15801561086057600080fd5b505af1158015610874573d6000803e3d6000fd5b505050506000610883866118d5565b9050604051806080016040528060ca5481526020018973ffffffffffffffffffffffffffffffffffffffff1681526020018281526020016201518062127500426108cd9190613cf3565b6108d79190613cf3565b81525060d360008a73ffffffffffffffffffffffffffffffffffffffff1673ffffffffffffffffffffffffffffffffffffffff1681526020019081526020016000206109228a611929565b60328110610959577f4e487b7100000000000000000000000000000000000000000000000000000000600052603260045260246000fd5b600402016000820151816000015560208201518160010160006101000a81548173ffffffffffffffffffffffffffffffffffffffff021916908373ffffffffffffffffffffffffffffffffffffffff16021790555060408201518160020155606082015181600301559050508060cb60008282546109d79190613cf3565b92505081905550600160ca60008282546109f19190613cf3565b92505081905550610a176040518060400160405280838152602001888152506001611a9e565b505050505050505050565b60007f5a05180f000000000000000000000000000000000000000000000000000000007bffffffffffffffffffffffffffffffffffffffffffffffffffffffff1916827bffffffffffffffffffffffffffffffffffffffffffffffffffffffff19161480610a955750610a9482611ba1565b5b9050919050565b60d45481565b7f6d5c9827c1f410bbb61d3b2a0a34b6b30492d9a1fd38588edca7ec4562ab9c9b610ad481610acf611c1b565b611c23565b600160d554610ae39190613cf3565b60d45414610b26576040517f08c379a0000000000000000000000000000000000000000000000000000000008152600401610b1d9061395e565b60405180910390fd5b4760cb5410610b6a576040517f08c379a0000000000000000000000000000000000000000000000000000000008152600401610b6190613abe565b60405180910390fd5b610b748383611cc0565b505050565b7f6d5c9827c1f410bbb61d3b2a0a34b6b30492d9a1fd38588edca7ec4562ab9c9b610bab81610ba6611c1b565b611c23565b8160d58190555060d5547f35120097366493406f2303b5402a4389f4749b66945cfa7a8771a1974e49750860405160405180910390a25050565b600060019054906101000a900460ff16610c0d5760008054906101000a900460ff1615610c16565b610c15611d56565b5b610c55576040517f08c379a0000000000000000000000000000000000000000000000000000000008152600401610c4c906139be565b60405180910390fd5b60008060019054906101000a900460ff161590508015610ca5576001600060016101000a81548160ff02191690831515021790555060016000806101000a81548160ff0219169083151502179055505b610cad611d67565b8460c960006101000a81548173ffffffffffffffffffffffffffffffffffffffff021916908373ffffffffffffffffffffffffffffffffffffffff160217905550600060ca81905550600060cb81905550600060cc81905550600060cd819055508360ce60006101000a81548173ffffffffffffffffffffffffffffffffffffffff021916908373ffffffffffffffffffffffffffffffffffffffff1602179055508260cf9080519060200190610d65929190612c42565b508160d09080519060200190610d7c929190612c42565b50604051806040016040528060008152602001600081525060d16000820151816000015560208201518160010155905050600160d481905550600060d581905550731820a4b7618bde71dce8cdc73aab6c95905fad2473ffffffffffffffffffffffffffffffffffffffff166329965a1d307fb281fc8c12954d22544db45de3159a39272895b169a852b314f9cc762e44c53b306040518463ffffffff1660e01b8152600401610e2e939291906137ae565b600060405180830381600087803b158015610e4857600080fd5b505af1158015610e5c573d6000803e3d6000fd5b50505050610e6d6000801b33611dd8565b8015610e8e5760008060016101000a81548160ff0219169083151502179055505b5050505050565b600060656000838152602001908152602001600020600101549050919050565b610ebe82610e95565b610ecf81610eca611c1b565b611c23565b610ed98383611dd8565b505050565b610ee6611c1b565b73ffffffffffffffffffffffffffffffffffffffff168173ffffffffffffffffffffffffffffffffffffffff1614610f53576040517f08c379a0000000000000000000000000000000000000000000000000000000008152600401610f4a90613ade565b60405180910390fd5b610f5d8282611e0c565b5050565b6000610f6d3383611e40565b9050600060d360003373ffffffffffffffffffffffffffffffffffffffff1673ffffffffffffffffffffffffffffffffffffffff1681526020019081526020016000208260328110610fe8577f4e487b7100000000000000000000000000000000000000000000000000000000600052603260045260246000fd5b60040201604051806080016040529081600082015481526020016001820160009054906101000a900473ffffffffffffffffffffffffffffffffffffffff1673ffffffffffffffffffffffffffffffffffffffff1673ffffffffffffffffffffffffffffffffffffffff1681526020016002820154815260200160038201548152505090503373ffffffffffffffffffffffffffffffffffffffff16816020015173ffffffffffffffffffffffffffffffffffffffff16146110df576040517f08c379a00000000000000000000000000000000000000000000000000000000081526004016110d69061397e565b60405180910390fd5b42816060015110611125576040517f08c379a000000000000000000000000000000000000000000000000000000000815260040161111c90613a9e565b60405180910390fd5b806040015147101561116c576040517f08c379a00000000000000000000000000000000000000000000000000000000081526004016111639061399e565b60405180910390fd5b806040015160cb60008282546111829190613dd4565b92505081905550806040015160cd600082825461119f9190613cf3565b9250508190555060d360003373ffffffffffffffffffffffffffffffffffffffff1673ffffffffffffffffffffffffffffffffffffffff168152602001908152602001600020826032811061121d577f4e487b7100000000000000000000000000000000000000000000000000000000600052603260045260246000fd5b600402016000808201600090556001820160006101000a81549073ffffffffffffffffffffffffffffffffffffffff0219169055600282016000905560038201600090555050806020015173ffffffffffffffffffffffffffffffffffffffff166108fc82604001519081150290604051600060405180830381858888f193505050501580156112b1573d6000803e3d6000fd5b50505050565b60d18060000154908060010154905082565b7f6d5c9827c1f410bbb61d3b2a0a34b6b30492d9a1fd38588edca7ec4562ab9c9b6112fb816112f6611c1b565b611c23565b600160d55461130a9190613cf3565b60d4541461134d576040517f08c379a00000000000000000000000000000000000000000000000000000000081526004016113449061395e565b60405180910390fd5b6000479050600060cc5460cd54836113659190613cf3565b61136f9190613dd4565b90507f9f8f0f9252d89a1f4d3d5de3a164a75579c92b5b745179b8c348a579c4ec3cf9816040516113a09190613afe565b60405180910390a16113c8604051806040016040528083815260200160008152506000611a9e565b6113d184611f35565b8160cb54101561141557600060cb54836113eb9190613dd4565b90506113f681611fe6565b8060cd60008282546114089190613cf3565b925050819055505061143d565b8160cb54111561143c5760008260cb5461142f9190613dd4565b905061143a816120fc565b505b5b50505050565b60d55481565b6000801b61145e81611459611c1b565b611c23565b8360ce60006101000a81548173ffffffffffffffffffffffffffffffffffffffff021916908373ffffffffffffffffffffffffffffffffffffffff1602179055508260cf90805190602001906114b5929190612c42565b508160d090805190602001906114cc929190612c42565b5050505050565b60006114fa826097600086815260200190815260200160002061220090919063ffffffff16565b905092915050565b60006065600084815260200190815260200160002060000160008373ffffffffffffffffffffffffffffffffffffffff1673ffffffffffffffffffffffffffffffffffffffff16815260200190815260200160002060009054906101000a900460ff16905092915050565b6000801b81565b7f6d5c9827c1f410bbb61d3b2a0a34b6b30492d9a1fd38588edca7ec4562ab9c9b81565b6115a0612cc8565b60d360008373ffffffffffffffffffffffffffffffffffffffff1673ffffffffffffffffffffffffffffffffffffffff168152602001908152602001600020603280602002604051908101604052809291906000905b8282101561169257838260040201604051806080016040529081600082015481526020016001820160009054906101000a900473ffffffffffffffffffffffffffffffffffffffff1673ffffffffffffffffffffffffffffffffffffffff1673ffffffffffffffffffffffffffffffffffffffff16815260200160028201548152602001600382015481525050815260200190600101906115f6565b505050509050919050565b60006116ba6097600084815260200190815260200160002061221a565b9050919050565b60003390506000349050600081141561170f576040517f08c379a0000000000000000000000000000000000000000000000000000000008152600401611706906139fe565b60405180910390fd5b600061171a8261222f565b905060c960009054906101000a900473ffffffffffffffffffffffffffffffffffffffff1673ffffffffffffffffffffffffffffffffffffffff1663dcdc7dd084836040518363ffffffff1660e01b81526004016117799291906137e5565b600060405180830381600087803b15801561179357600080fd5b505af11580156117a7573d6000803e3d6000fd5b505050506117ca6040518060400160405280848152602001838152506000611a9e565b8160cc60008282546117dc9190613cf3565b92505081905550505050565b6117f182610e95565b611802816117fd611c1b565b611c23565b61180c8383611e0c565b505050565b7f6d5c9827c1f410bbb61d3b2a0a34b6b30492d9a1fd38588edca7ec4562ab9c9b6118438161183e611c1b565b611c23565b3460cd60008282546118559190613dd4565b9250508190555050565b60d3602052816000526040600020816032811061187b57600080fd5b60040201600091509150508060000154908060010160009054906101000a900473ffffffffffffffffffffffffffffffffffffffff16908060020154908060030154905084565b600080823b905060008111915050919050565b60008060d160000154836118e99190613d7a565b9050600060d1600101549050808210806119035750600081145b1561191357600092505050611924565b808261191f9190613d49565b925050505b919050565b600080600090505b6032811015611a5d57611a3c60d360008573ffffffffffffffffffffffffffffffffffffffff1673ffffffffffffffffffffffffffffffffffffffff16815260200190815260200160002082603281106119b4577f4e487b7100000000000000000000000000000000000000000000000000000000600052603260045260246000fd5b60040201604051806080016040529081600082015481526020016001820160009054906101000a900473ffffffffffffffffffffffffffffffffffffffff1673ffffffffffffffffffffffffffffffffffffffff1673ffffffffffffffffffffffffffffffffffffffff1681526020016002820154815260200160038201548152505061227f565b15611a4a5780915050611a99565b8080611a5590613f67565b915050611931565b506040517f08c379a0000000000000000000000000000000000000000000000000000000008152600401611a9090613a7e565b60405180910390fd5b919050565b60006001811115611ad8577f4e487b7100000000000000000000000000000000000000000000000000000000600052602160045260246000fd5b816001811115611b11577f4e487b7100000000000000000000000000000000000000000000000000000000600052602160045260246000fd5b1415611b5c57816000015160d16000016000828254611b309190613cf3565b92505081905550816020015160d16001016000828254611b509190613cf3565b92505081905550611b9d565b816000015160d16000016000828254611b759190613dd4565b92505081905550816020015160d16001016000828254611b959190613dd4565b925050819055505b5050565b60007f7965db0b000000000000000000000000000000000000000000000000000000007bffffffffffffffffffffffffffffffffffffffffffffffffffffffff1916827bffffffffffffffffffffffffffffffffffffffffffffffffffffffff19161480611c145750611c13826122fc565b5b9050919050565b600033905090565b611c2d8282611502565b611cbc57611c528173ffffffffffffffffffffffffffffffffffffffff166014612366565b611c608360001c6020612366565b604051602001611c71929190613759565b6040516020818303038152906040526040517f08c379a0000000000000000000000000000000000000000000000000000000008152600401611cb39190613886565b60405180910390fd5b5050565b6000610e1042611cd09190613cf3565b90506000610e106212750083611ce69190613cf3565b611cf09190613cf3565b905060d4547fc4f8dcb175edd2d287c0f4a45eaae7003bd541365fb64b80e2b6e27f3ea6331660cf8685858860d0604051611d30969594939291906138a8565b60405180910390a260d46000815480929190611d4b90613f67565b919050555050505050565b6000611d61306118c2565b15905090565b600060019054906101000a900460ff16611db6576040517f08c379a0000000000000000000000000000000000000000000000000000000008152600401611dad90613a5e565b60405180910390fd5b611dbe612660565b611dc66126b1565b611dce612702565b611dd6612753565b565b611de282826127a4565b611e07816097600085815260200190815260200160002061288590919063ffffffff16565b505050565b611e1682826128b5565b611e3b816097600085815260200190815260200160002061299790919063ffffffff16565b505050565b600080600090505b6032811015611ef3578260d360008673ffffffffffffffffffffffffffffffffffffffff1673ffffffffffffffffffffffffffffffffffffffff1681526020019081526020016000208260328110611ec9577f4e487b7100000000000000000000000000000000000000000000000000000000600052603260045260246000fd5b60040201600001541415611ee05780915050611f2f565b8080611eeb90613f67565b915050611e48565b506040517f08c379a0000000000000000000000000000000000000000000000000000000008152600401611f2690613a3e565b60405180910390fd5b92915050565b60d4547ff3190e98ad0e037a0a8d2d3e0ded439e668cccc81fb06e6ae3cb0068ee7920848260d030604051611f6c93929190613b8e565b60405180910390a260d46000815480929190611f8790613f67565b919050555060d4547f1fee0280cb1e2879c1a654fe75050d9ba7695a924ef665d22d899b0da20c433e8260d030604051611fc393929190613b8e565b60405180910390a260d46000815480929190611fde90613f67565b919050555050565b60ce60009054906101000a900473ffffffffffffffffffffffffffffffffffffffff1673ffffffffffffffffffffffffffffffffffffffff166108fc829081150290604051600060405180830381858888f1935050505015801561204e573d6000803e3d6000fd5b5060d4547f3aa9e52f12742ee52c60a76aaab30d7a7a8c86e597f6b094800fba244fca3db98260cf604051612084929190613b5e565b60405180910390a260d4600081548092919061209f90613f67565b919050555060d4547f895ce7cc76273740a175952304db6e8d0356602cc9c8e549e320f25a2afe93a98260cf6040516120d9929190613b5e565b60405180910390a260d460008154809291906120f490613f67565b919050555050565b60d4547f0a7399809224ea042f32e29e805447249d7043c64a1276f099ffbae4c09a50228260cf604051612131929190613b5e565b60405180910390a260d4600081548092919061214c90613f67565b919050555060d4547f913b422c03c3bbd28cba19b4a26730e106ec3950b48881b2800988b42c19a4fa8260cf604051612186929190613b5e565b60405180910390a260d460008154809291906121a190613f67565b919050555060d4547f3e2e0255165f8c57d2a490a4a24cc6aab712671978205b6511b4a1c8518ff30b8260cf306040516121dd93929190613b8e565b60405180910390a260d460008154809291906121f890613f67565b919050555050565b600061220f83600001836129c7565b60001c905092915050565b600061222882600001612a18565b9050919050565b60008060d16000015414806122495750600060d160010154145b156122565781905061227a565b60d16000015460d1600101548361226d9190613d7a565b6122779190613d49565b90505b919050565b60008082600001511480156122c45750600073ffffffffffffffffffffffffffffffffffffffff16826020015173ffffffffffffffffffffffffffffffffffffffff16145b80156122d4575060008260400151145b80156122e4575060008260600151145b156122f257600190506122f7565b600090505b919050565b60007f01ffc9a7000000000000000000000000000000000000000000000000000000007bffffffffffffffffffffffffffffffffffffffffffffffffffffffff1916827bffffffffffffffffffffffffffffffffffffffffffffffffffffffff1916149050919050565b6060600060028360026123799190613d7a565b6123839190613cf3565b67ffffffffffffffff8111156123c2577f4e487b7100000000000000000000000000000000000000000000000000000000600052604160045260246000fd5b6040519080825280601f01601f1916602001820160405280156123f45781602001600182028036833780820191505090505b5090507f300000000000000000000000000000000000000000000000000000000000000081600081518110612452577f4e487b7100000000000000000000000000000000000000000000000000000000600052603260045260246000fd5b60200101907effffffffffffffffffffffffffffffffffffffffffffffffffffffffffffff1916908160001a9053507f7800000000000000000000000000000000000000000000000000000000000000816001815181106124dc577f4e487b7100000000000000000000000000000000000000000000000000000000600052603260045260246000fd5b60200101907effffffffffffffffffffffffffffffffffffffffffffffffffffffffffffff1916908160001a9053506000600184600261251c9190613d7a565b6125269190613cf3565b90505b6001811115612612577f3031323334353637383961626364656600000000000000000000000000000000600f86166010811061258e577f4e487b7100000000000000000000000000000000000000000000000000000000600052603260045260246000fd5b1a60f81b8282815181106125cb577f4e487b7100000000000000000000000000000000000000000000000000000000600052603260045260246000fd5b60200101907effffffffffffffffffffffffffffffffffffffffffffffffffffffffffffff1916908160001a905350600485901c94508061260b90613eda565b9050612529565b5060008414612656576040517f08c379a000000000000000000000000000000000000000000000000000000000815260040161264d9061391e565b60405180910390fd5b8091505092915050565b600060019054906101000a900460ff166126af576040517f08c379a00000000000000000000000000000000000000000000000000000000081526004016126a690613a5e565b60405180910390fd5b565b600060019054906101000a900460ff16612700576040517f08c379a00000000000000000000000000000000000000000000000000000000081526004016126f790613a5e565b60405180910390fd5b565b600060019054906101000a900460ff16612751576040517f08c379a000000000000000000000000000000000000000000000000000000000815260040161274890613a5e565b60405180910390fd5b565b600060019054906101000a900460ff166127a2576040517f08c379a000000000000000000000000000000000000000000000000000000000815260040161279990613a5e565b60405180910390fd5b565b6127ae8282611502565b6128815760016065600084815260200190815260200160002060000160008373ffffffffffffffffffffffffffffffffffffffff1673ffffffffffffffffffffffffffffffffffffffff16815260200190815260200160002060006101000a81548160ff021916908315150217905550612826611c1b565b73ffffffffffffffffffffffffffffffffffffffff168173ffffffffffffffffffffffffffffffffffffffff16837f2f8788117e7eff1d82e926ec794901d17c78024a50270940304540a733656f0d60405160405180910390a45b5050565b60006128ad836000018373ffffffffffffffffffffffffffffffffffffffff1660001b612a29565b905092915050565b6128bf8282611502565b156129935760006065600084815260200190815260200160002060000160008373ffffffffffffffffffffffffffffffffffffffff1673ffffffffffffffffffffffffffffffffffffffff16815260200190815260200160002060006101000a81548160ff021916908315150217905550612938611c1b565b73ffffffffffffffffffffffffffffffffffffffff168173ffffffffffffffffffffffffffffffffffffffff16837ff6391f5c32d9c69d2a47ea670b442974b53935d1edc7fd64eb21e047a839171b60405160405180910390a45b5050565b60006129bf836000018373ffffffffffffffffffffffffffffffffffffffff1660001b612a99565b905092915050565b6000826000018281548110612a05577f4e487b7100000000000000000000000000000000000000000000000000000000600052603260045260246000fd5b9060005260206000200154905092915050565b600081600001805490509050919050565b6000612a358383612c1f565b612a8e578260000182908060018154018082558091505060019003906000526020600020016000909190919091505582600001805490508360010160008481526020019081526020016000208190555060019050612a93565b600090505b92915050565b60008083600101600084815260200190815260200160002054905060008114612c13576000600182612acb9190613dd4565b9050600060018660000180549050612ae39190613dd4565b9050818114612b9e576000866000018281548110612b2a577f4e487b7100000000000000000000000000000000000000000000000000000000600052603260045260246000fd5b9060005260206000200154905080876000018481548110612b74577f4e487b7100000000000000000000000000000000000000000000000000000000600052603260045260246000fd5b90600052602060002001819055508387600101600083815260200190815260200160002081905550505b85600001805480612bd8577f4e487b7100000000000000000000000000000000000000000000000000000000600052603160045260246000fd5b600190038181906000526020600020016000905590558560010160008681526020019081526020016000206000905560019350505050612c19565b60009150505b92915050565b600080836001016000848152602001908152602001600020541415905092915050565b828054612c4e90613f04565b90600052602060002090601f016020900481019282612c705760008555612cb7565b82601f10612c8957805160ff1916838001178555612cb7565b82800160010185558215612cb7579182015b82811115612cb6578251825591602001919060010190612c9b565b5b509050612cc49190612cf6565b5090565b6040518061064001604052806032905b612ce0612d13565b815260200190600190039081612cd85790505090565b5b80821115612d0f576000816000905550600101612cf7565b5090565b604051806080016040528060008152602001600073ffffffffffffffffffffffffffffffffffffffff16815260200160008152602001600081525090565b6000612d64612d5f84613c48565b613c23565b905082815260208101848484011115612d7c57600080fd5b612d87848285613e98565b509392505050565b600081359050612d9e81614629565b92915050565b600081359050612db381614640565b92915050565b600081359050612dc881614657565b92915050565b60008083601f840112612de057600080fd5b8235905067ffffffffffffffff811115612df957600080fd5b602083019150836001820283011115612e1157600080fd5b9250929050565b600081359050612e278161466e565b92915050565b600082601f830112612e3e57600080fd5b8135612e4e848260208601612d51565b91505092915050565b600081359050612e6681614685565b92915050565b600060208284031215612e7e57600080fd5b6000612e8c84828501612d8f565b91505092915050565b60008060008060008060008060c0898b031215612eb157600080fd5b6000612ebf8b828c01612d8f565b9850506020612ed08b828c01612d8f565b9750506040612ee18b828c01612d8f565b9650506060612ef28b828c01612e57565b955050608089013567ffffffffffffffff811115612f0f57600080fd5b612f1b8b828c01612dce565b945094505060a089013567ffffffffffffffff811115612f3a57600080fd5b612f468b828c01612dce565b92509250509295985092959890939650565b600080600060608486031215612f6d57600080fd5b6000612f7b86828701612d8f565b935050602084013567ffffffffffffffff811115612f9857600080fd5b612fa486828701612e2d565b925050604084013567ffffffffffffffff811115612fc157600080fd5b612fcd86828701612e2d565b9150509250925092565b60008060408385031215612fea57600080fd5b6000612ff885828601612d8f565b925050602061300985828601612e57565b9150509250929050565b60006020828403121561302557600080fd5b600061303384828501612da4565b91505092915050565b6000806040838503121561304f57600080fd5b600061305d85828601612da4565b925050602061306e85828601612d8f565b9150509250929050565b6000806040838503121561308b57600080fd5b600061309985828601612da4565b92505060206130aa85828601612e57565b9150509250929050565b6000602082840312156130c657600080fd5b60006130d484828501612db9565b91505092915050565b600080600080608085870312156130f357600080fd5b600061310187828801612e18565b945050602061311287828801612d8f565b935050604085013567ffffffffffffffff81111561312f57600080fd5b61313b87828801612e2d565b925050606085013567ffffffffffffffff81111561315857600080fd5b61316487828801612e2d565b91505092959194509250565b6000806040838503121561318357600080fd5b600083013567ffffffffffffffff81111561319d57600080fd5b6131a985828601612e2d565b92505060206131ba85828601612e57565b9150509250929050565b6000602082840312156131d657600080fd5b60006131e484828501612e57565b91505092915050565b60006131f98383613678565b60808301905092915050565b61320e81613e08565b82525050565b61321d81613e08565b82525050565b61323461322f82613e08565b613fb0565b82525050565b61324381613c98565b61324d8184613cbb565b925061325882613c79565b8060005b8381101561328957815161327087826131ed565b965061327b83613cae565b92505060018101905061325c565b505050505050565b61329a81613e1a565b82525050565b6132a981613e26565b82525050565b60006132ba82613ca3565b6132c48185613cd7565b93506132d4818560208601613ea7565b6132dd8161409a565b840191505092915050565b60006132f382613ca3565b6132fd8185613ce8565b935061330d818560208601613ea7565b80840191505092915050565b6000815461332681613f04565b6133308186613cd7565b9450600182166000811461334b576001811461335d57613390565b60ff1983168652602086019350613390565b61336685613c83565b60005b8381101561338857815481890152600182019150602081019050613369565b808801955050505b50505092915050565b60006133a6602083613cd7565b91506133b1826140b8565b602082019050919050565b60006133c9602183613cd7565b91506133d4826140e1565b604082019050919050565b60006133ec602383613ce8565b91506133f782614130565b602382019050919050565b600061340f602583613ce8565b915061341a8261417f565b602582019050919050565b6000613432602483613cd7565b915061343d826141ce565b604082019050919050565b6000613455602383613cd7565b91506134608261421d565b604082019050919050565b6000613478600783613ce8565b91506134838261426c565b600782019050919050565b600061349b603983613cd7565b91506134a682614295565b604082019050919050565b60006134be602e83613cd7565b91506134c9826142e4565b604082019050919050565b60006134e1602b83613cd7565b91506134ec82614333565b604082019050919050565b6000613504600c83613cd7565b915061350f82614382565b602082019050919050565b6000613527600083613cc6565b9150613532826143ab565b600082019050919050565b600061354a602983613cd7565b9150613555826143ae565b604082019050919050565b600061356d602a83613cd7565b9150613578826143fd565b604082019050919050565b6000613590602b83613cd7565b915061359b8261444c565b604082019050919050565b60006135b3601783613ce8565b91506135be8261449b565b601782019050919050565b60006135d6602c83613cd7565b91506135e1826144c4565b604082019050919050565b60006135f9602283613cd7565b915061360482614513565b604082019050919050565b600061361c603283613cd7565b915061362782614562565b604082019050919050565b600061363f601183613ce8565b915061364a826145b1565b601182019050919050565b6000613662602f83613cd7565b915061366d826145da565b604082019050919050565b60808201600082015161368e60008501826136cd565b5060208201516136a16020850182613205565b5060408201516136b460408501826136cd565b5060608201516136c760608501826136cd565b50505050565b6136d681613e8e565b82525050565b6136e581613e8e565b82525050565b6136fc6136f782613e8e565b613fd4565b82525050565b600061370d826133df565b91506137198284613223565b60148201915081905092915050565b600061373382613402565b915061373f82846136eb565b60208201915061374e8261346b565b915081905092915050565b6000613764826135a6565b915061377082856132e8565b915061377b82613632565b915061378782846132e8565b91508190509392505050565b60006020820190506137a86000830184613214565b92915050565b60006060820190506137c36000830186613214565b6137d060208301856132a0565b6137dd6040830184613214565b949350505050565b60006080820190506137fa6000830185613214565b61380760208301846136dc565b81810360408301526138188161351a565b9050818103606083015261382b8161351a565b90509392505050565b60006119008201905061384a600083018461323a565b92915050565b60006020820190506138656000830184613291565b92915050565b600060208201905061388060008301846132a0565b92915050565b600060208201905081810360008301526138a081846132af565b905092915050565b600060c08201905081810360008301526138c28189613319565b905081810360208301526138d681886132af565b90506138e560408301876136dc565b6138f260608301866136dc565b6138ff60808301856136dc565b81810360a08301526139118184613319565b9050979650505050505050565b6000602082019050818103600083015261393781613399565b9050919050565b60006020820190508181036000830152613957816133bc565b9050919050565b6000602082019050818103600083015261397781613425565b9050919050565b6000602082019050818103600083015261399781613448565b9050919050565b600060208201905081810360008301526139b78161348e565b9050919050565b600060208201905081810360008301526139d7816134b1565b9050919050565b600060208201905081810360008301526139f7816134d4565b9050919050565b60006020820190508181036000830152613a17816134f7565b9050919050565b60006020820190508181036000830152613a378161353d565b9050919050565b60006020820190508181036000830152613a5781613560565b9050919050565b60006020820190508181036000830152613a7781613583565b9050919050565b60006020820190508181036000830152613a97816135c9565b9050919050565b60006020820190508181036000830152613ab7816135ec565b9050919050565b60006020820190508181036000830152613ad78161360f565b9050919050565b60006020820190508181036000830152613af781613655565b9050919050565b6000602082019050613b1360008301846136dc565b92915050565b6000608082019050613b2e60008301876136dc565b613b3b6020830186613214565b613b4860408301856136dc565b613b5560608301846136dc565b95945050505050565b6000604082019050613b7360008301856136dc565b8181036020830152613b858184613319565b90509392505050565b6000606082019050613ba360008301866136dc565b8181036020830152613bb58185613319565b9050613bc46040830184613214565b949350505050565b6000604082019050613be160008301846136dc565b8181036020830152613bf28161351a565b905092915050565b6000604082019050613c0f60008301856136dc565b613c1c60208301846136dc565b9392505050565b6000613c2d613c3e565b9050613c398282613f36565b919050565b6000604051905090565b600067ffffffffffffffff821115613c6357613c6261406b565b5b613c6c8261409a565b9050602081019050919050565b6000819050919050565b60008190508160005260206000209050919050565b600060329050919050565b600081519050919050565b6000602082019050919050565b600081905092915050565b600082825260208201905092915050565b600082825260208201905092915050565b600081905092915050565b6000613cfe82613e8e565b9150613d0983613e8e565b9250827fffffffffffffffffffffffffffffffffffffffffffffffffffffffffffffffff03821115613d3e57613d3d613fde565b5b828201905092915050565b6000613d5482613e8e565b9150613d5f83613e8e565b925082613d6f57613d6e61400d565b5b828204905092915050565b6000613d8582613e8e565b9150613d9083613e8e565b9250817fffffffffffffffffffffffffffffffffffffffffffffffffffffffffffffffff0483118215151615613dc957613dc8613fde565b5b828202905092915050565b6000613ddf82613e8e565b9150613dea83613e8e565b925082821015613dfd57613dfc613fde565b5b828203905092915050565b6000613e1382613e6e565b9050919050565b60008115159050919050565b6000819050919050565b60007fffffffff0000000000000000000000000000000000000000000000000000000082169050919050565b6000613e6782613e08565b9050919050565b600073ffffffffffffffffffffffffffffffffffffffff82169050919050565b6000819050919050565b82818337600083830152505050565b60005b83811015613ec5578082015181840152602081019050613eaa565b83811115613ed4576000848401525b50505050565b6000613ee582613e8e565b91506000821415613ef957613ef8613fde565b5b600182039050919050565b60006002820490506001821680613f1c57607f821691505b60208210811415613f3057613f2f61403c565b5b50919050565b613f3f8261409a565b810181811067ffffffffffffffff82111715613f5e57613f5d61406b565b5b80604052505050565b6000613f7282613e8e565b91507fffffffffffffffffffffffffffffffffffffffffffffffffffffffffffffffff821415613fa557613fa4613fde565b5b600182019050919050565b6000613fbb82613fc2565b9050919050565b6000613fcd826140ab565b9050919050565b6000819050919050565b7f4e487b7100000000000000000000000000000000000000000000000000000000600052601160045260246000fd5b7f4e487b7100000000000000000000000000000000000000000000000000000000600052601260045260246000fd5b7f4e487b7100000000000000000000000000000000000000000000000000000000600052602260045260246000fd5b7f4e487b7100000000000000000000000000000000000000000000000000000000600052604160045260246000fd5b6000601f19601f8301169050919050565b60008160601b9050919050565b7f537472696e67733a20686578206c656e67746820696e73756666696369656e74600082015250565b7f7874616b653a20746f6b656e7352656365697665642066726f6d20697473656c60008201527f6600000000000000000000000000000000000000000000000000000000000000602082015250565b7f7874616b653a20746f6b656e73526563656976656420666f722061646472657360008201527f733a200000000000000000000000000000000000000000000000000000000000602082015250565b7f7874616b653a20596f75206e65656420746f207769746864726177206174206c60008201527f6561737420000000000000000000000000000000000000000000000000000000602082015250565b7f7874616b653a20636865636b416c6c4c6f677345786563757465643a2066616960008201527f6c65642100000000000000000000000000000000000000000000000000000000602082015250565b7f7874616b653a2043616e277420636c61696d20666f7220736f6d656f6e65206560008201527f6c73650000000000000000000000000000000000000000000000000000000000602082015250565b7f20746f6b656e7300000000000000000000000000000000000000000000000000600082015250565b7f7874616b653a20436f6e74726163742068617320696e73756666696369656e7460008201527f2062616c616e636520746f207361746973667920636c61696d00000000000000602082015250565b7f496e697469616c697a61626c653a20636f6e747261637420697320616c72656160008201527f647920696e697469616c697a6564000000000000000000000000000000000000602082015250565b7f7874616b653a20746f6b656e7352656365697665642066726f6d20746865207a60008201527f65726f2061646472657373000000000000000000000000000000000000000000602082015250565b7f5a45524f5f4445504f5349540000000000000000000000000000000000000000600082015250565b50565b7f7874616b653a20746f6b656e7352656365697665642066726f6d20756e6b6e6f60008201527f776e2073656e6465720000000000000000000000000000000000000000000000602082015250565b7f7874616b653a2052657175657374656420636c61696d206e6f7420666f756e6460008201527f20666f7220757365722e00000000000000000000000000000000000000000000602082015250565b7f496e697469616c697a61626c653a20636f6e7472616374206973206e6f74206960008201527f6e697469616c697a696e67000000000000000000000000000000000000000000602082015250565b7f416363657373436f6e74726f6c3a206163636f756e7420000000000000000000600082015250565b7f7874616b653a205573657220686173207265616368656420746865206d61782060008201527f636c61696d206c696d69742e0000000000000000000000000000000000000000602082015250565b7f7874616b653a2043616e277420636c61696d206265666f726520646561646c6960008201527f6e65000000000000000000000000000000000000000000000000000000000000602082015250565b7f7874616b653a2043616e27742069737375652064656c65676174696f6e2e205560008201527f6e73617469736669656420636c61696d732e0000000000000000000000000000602082015250565b7f206973206d697373696e6720726f6c6520000000000000000000000000000000600082015250565b7f416363657373436f6e74726f6c3a2063616e206f6e6c792072656e6f756e636560008201527f20726f6c657320666f722073656c660000000000000000000000000000000000602082015250565b61463281613e08565b811461463d57600080fd5b50565b61464981613e26565b811461465457600080fd5b50565b61466081613e30565b811461466b57600080fd5b50565b61467781613e5c565b811461468257600080fd5b50565b61468e81613e8e565b811461469957600080fd5b5056fea26469706673582212206aab49693fa5429778d761da0c3ca930424106448199b63d9c1b528ea321a63964736f6c63430008040033",
  "linkReferences": {},
  "deployedLinkReferences": {}
}