{
  "_format": "hh-sol-artifact-1",
  "contractName": "StakedAVAXToken",
  "sourceName": "contracts/StakedAVAXToken.sol",
  "abi": [
    {
      "inputs": [],
      "stateMutability": "nonpayable",
      "type": "constructor"
    },
    {
      "anonymous": false,
      "inputs": [
        {
          "indexed": true,
          "internalType": "address",
          "name": "owner",
          "type": "address"
        },
        {
          "indexed": true,
          "internalType": "address",
          "name": "spender",
          "type": "address"
        },
        {
          "indexed": false,
          "internalType": "uint256",
          "name": "value",
          "type": "uint256"
        }
      ],
      "name": "Approval",
      "type": "event"
    },
    {
      "anonymous": false,
      "inputs": [
        {
          "indexed": true,
          "internalType": "address",
          "name": "operator",
          "type": "address"
        },
        {
          "indexed": true,
          "internalType": "address",
          "name": "tokenHolder",
          "type": "address"
        }
      ],
      "name": "AuthorizedOperator",
      "type": "event"
    },
    {
      "anonymous": false,
      "inputs": [
        {
          "indexed": true,
          "internalType": "address",
          "name": "operator",
          "type": "address"
        },
        {
          "indexed": true,
          "internalType": "address",
          "name": "from",
          "type": "address"
        },
        {
          "indexed": false,
          "internalType": "uint256",
          "name": "amount",
          "type": "uint256"
        },
        {
          "indexed": false,
          "internalType": "bytes",
          "name": "data",
          "type": "bytes"
        },
        {
          "indexed": false,
          "internalType": "bytes",
          "name": "operatorData",
          "type": "bytes"
        }
      ],
      "name": "Burned",
      "type": "event"
    },
    {
      "anonymous": false,
      "inputs": [
        {
          "indexed": true,
          "internalType": "address",
          "name": "operator",
          "type": "address"
        },
        {
          "indexed": true,
          "internalType": "address",
          "name": "to",
          "type": "address"
        },
        {
          "indexed": false,
          "internalType": "uint256",
          "name": "amount",
          "type": "uint256"
        },
        {
          "indexed": false,
          "internalType": "bytes",
          "name": "data",
          "type": "bytes"
        },
        {
          "indexed": false,
          "internalType": "bytes",
          "name": "operatorData",
          "type": "bytes"
        }
      ],
      "name": "Minted",
      "type": "event"
    },
    {
      "anonymous": false,
      "inputs": [
        {
          "indexed": true,
          "internalType": "address",
          "name": "operator",
          "type": "address"
        },
        {
          "indexed": true,
          "internalType": "address",
          "name": "tokenHolder",
          "type": "address"
        }
      ],
      "name": "RevokedOperator",
      "type": "event"
    },
    {
      "anonymous": false,
      "inputs": [
        {
          "indexed": true,
          "internalType": "bytes32",
          "name": "role",
          "type": "bytes32"
        },
        {
          "indexed": true,
          "internalType": "bytes32",
          "name": "previousAdminRole",
          "type": "bytes32"
        },
        {
          "indexed": true,
          "internalType": "bytes32",
          "name": "newAdminRole",
          "type": "bytes32"
        }
      ],
      "name": "RoleAdminChanged",
      "type": "event"
    },
    {
      "anonymous": false,
      "inputs": [
        {
          "indexed": true,
          "internalType": "bytes32",
          "name": "role",
          "type": "bytes32"
        },
        {
          "indexed": true,
          "internalType": "address",
          "name": "account",
          "type": "address"
        },
        {
          "indexed": true,
          "internalType": "address",
          "name": "sender",
          "type": "address"
        }
      ],
      "name": "RoleGranted",
      "type": "event"
    },
    {
      "anonymous": false,
      "inputs": [
        {
          "indexed": true,
          "internalType": "bytes32",
          "name": "role",
          "type": "bytes32"
        },
        {
          "indexed": true,
          "internalType": "address",
          "name": "account",
          "type": "address"
        },
        {
          "indexed": true,
          "internalType": "address",
          "name": "sender",
          "type": "address"
        }
      ],
      "name": "RoleRevoked",
      "type": "event"
    },
    {
      "anonymous": false,
      "inputs": [
        {
          "indexed": true,
          "internalType": "address",
          "name": "operator",
          "type": "address"
        },
        {
          "indexed": true,
          "internalType": "address",
          "name": "from",
          "type": "address"
        },
        {
          "indexed": true,
          "internalType": "address",
          "name": "to",
          "type": "address"
        },
        {
          "indexed": false,
          "internalType": "uint256",
          "name": "amount",
          "type": "uint256"
        },
        {
          "indexed": false,
          "internalType": "bytes",
          "name": "data",
          "type": "bytes"
        },
        {
          "indexed": false,
          "internalType": "bytes",
          "name": "operatorData",
          "type": "bytes"
        }
      ],
      "name": "Sent",
      "type": "event"
    },
    {
      "anonymous": false,
      "inputs": [
        {
          "indexed": true,
          "internalType": "address",
          "name": "from",
          "type": "address"
        },
        {
          "indexed": true,
          "internalType": "address",
          "name": "to",
          "type": "address"
        },
        {
          "indexed": false,
          "internalType": "uint256",
          "name": "value",
          "type": "uint256"
        }
      ],
      "name": "Transfer",
      "type": "event"
    },
    {
      "inputs": [],
      "name": "BURNER_ROLE",
      "outputs": [
        {
          "internalType": "bytes32",
          "name": "",
          "type": "bytes32"
        }
      ],
      "stateMutability": "view",
      "type": "function"
    },
    {
      "inputs": [],
      "name": "DEFAULT_ADMIN_ROLE",
      "outputs": [
        {
          "internalType": "bytes32",
          "name": "",
          "type": "bytes32"
        }
      ],
      "stateMutability": "view",
      "type": "function"
    },
    {
      "inputs": [],
      "name": "MINTER_ROLE",
      "outputs": [
        {
          "internalType": "bytes32",
          "name": "",
          "type": "bytes32"
        }
      ],
      "stateMutability": "view",
      "type": "function"
    },
    {
      "inputs": [
        {
          "internalType": "address",
          "name": "holder",
          "type": "address"
        },
        {
          "internalType": "address",
          "name": "spender",
          "type": "address"
        }
      ],
      "name": "allowance",
      "outputs": [
        {
          "internalType": "uint256",
          "name": "",
          "type": "uint256"
        }
      ],
      "stateMutability": "view",
      "type": "function"
    },
    {
      "inputs": [
        {
          "internalType": "address",
          "name": "spender",
          "type": "address"
        },
        {
          "internalType": "uint256",
          "name": "value",
          "type": "uint256"
        }
      ],
      "name": "approve",
      "outputs": [
        {
          "internalType": "bool",
          "name": "",
          "type": "bool"
        }
      ],
      "stateMutability": "nonpayable",
      "type": "function"
    },
    {
      "inputs": [
        {
          "internalType": "address",
          "name": "operator",
          "type": "address"
        }
      ],
      "name": "authorizeOperator",
      "outputs": [],
      "stateMutability": "nonpayable",
      "type": "function"
    },
    {
      "inputs": [
        {
          "internalType": "address",
          "name": "tokenHolder",
          "type": "address"
        }
      ],
      "name": "balanceOf",
      "outputs": [
        {
          "internalType": "uint256",
          "name": "",
          "type": "uint256"
        }
      ],
      "stateMutability": "view",
      "type": "function"
    },
    {
      "inputs": [
        {
          "internalType": "uint256",
          "name": "amount",
          "type": "uint256"
        },
        {
          "internalType": "bytes",
          "name": "data",
          "type": "bytes"
        }
      ],
      "name": "burn",
      "outputs": [],
      "stateMutability": "nonpayable",
      "type": "function"
    },
    {
      "inputs": [],
      "name": "decimals",
      "outputs": [
        {
          "internalType": "uint8",
          "name": "",
          "type": "uint8"
        }
      ],
      "stateMutability": "pure",
      "type": "function"
    },
    {
      "inputs": [],
      "name": "defaultOperators",
      "outputs": [
        {
          "internalType": "address[]",
          "name": "",
          "type": "address[]"
        }
      ],
      "stateMutability": "view",
      "type": "function"
    },
    {
      "inputs": [
        {
          "internalType": "bytes32",
          "name": "role",
          "type": "bytes32"
        }
      ],
      "name": "getRoleAdmin",
      "outputs": [
        {
          "internalType": "bytes32",
          "name": "",
          "type": "bytes32"
        }
      ],
      "stateMutability": "view",
      "type": "function"
    },
    {
      "inputs": [
        {
          "internalType": "bytes32",
          "name": "role",
          "type": "bytes32"
        },
        {
          "internalType": "uint256",
          "name": "index",
          "type": "uint256"
        }
      ],
      "name": "getRoleMember",
      "outputs": [
        {
          "internalType": "address",
          "name": "",
          "type": "address"
        }
      ],
      "stateMutability": "view",
      "type": "function"
    },
    {
      "inputs": [
        {
          "internalType": "bytes32",
          "name": "role",
          "type": "bytes32"
        }
      ],
      "name": "getRoleMemberCount",
      "outputs": [
        {
          "internalType": "uint256",
          "name": "",
          "type": "uint256"
        }
      ],
      "stateMutability": "view",
      "type": "function"
    },
    {
      "inputs": [
        {
          "internalType": "bytes32",
          "name": "role",
          "type": "bytes32"
        },
        {
          "internalType": "address",
          "name": "account",
          "type": "address"
        }
      ],
      "name": "grantRole",
      "outputs": [],
      "stateMutability": "nonpayable",
      "type": "function"
    },
    {
      "inputs": [],
      "name": "granularity",
      "outputs": [
        {
          "internalType": "uint256",
          "name": "",
          "type": "uint256"
        }
      ],
      "stateMutability": "view",
      "type": "function"
    },
    {
      "inputs": [
        {
          "internalType": "bytes32",
          "name": "role",
          "type": "bytes32"
        },
        {
          "internalType": "address",
          "name": "account",
          "type": "address"
        }
      ],
      "name": "hasRole",
      "outputs": [
        {
          "internalType": "bool",
          "name": "",
          "type": "bool"
        }
      ],
      "stateMutability": "view",
      "type": "function"
    },
    {
      "inputs": [],
      "name": "initialize",
      "outputs": [],
      "stateMutability": "nonpayable",
      "type": "function"
    },
    {
      "inputs": [
        {
          "internalType": "address",
          "name": "operator",
          "type": "address"
        },
        {
          "internalType": "address",
          "name": "tokenHolder",
          "type": "address"
        }
      ],
      "name": "isOperatorFor",
      "outputs": [
        {
          "internalType": "bool",
          "name": "",
          "type": "bool"
        }
      ],
      "stateMutability": "view",
      "type": "function"
    },
    {
      "inputs": [
        {
          "internalType": "address",
          "name": "account",
          "type": "address"
        },
        {
          "internalType": "uint256",
          "name": "amount",
          "type": "uint256"
        },
        {
          "internalType": "bytes",
          "name": "userData",
          "type": "bytes"
        },
        {
          "internalType": "bytes",
          "name": "operatorData",
          "type": "bytes"
        }
      ],
      "name": "mint",
      "outputs": [],
      "stateMutability": "nonpayable",
      "type": "function"
    },
    {
      "inputs": [],
      "name": "name",
      "outputs": [
        {
          "internalType": "string",
          "name": "",
          "type": "string"
        }
      ],
      "stateMutability": "view",
      "type": "function"
    },
    {
      "inputs": [
        {
          "internalType": "address",
          "name": "account",
          "type": "address"
        },
        {
          "internalType": "uint256",
          "name": "amount",
          "type": "uint256"
        },
        {
          "internalType": "bytes",
          "name": "data",
          "type": "bytes"
        },
        {
          "internalType": "bytes",
          "name": "operatorData",
          "type": "bytes"
        }
      ],
      "name": "operatorBurn",
      "outputs": [],
      "stateMutability": "nonpayable",
      "type": "function"
    },
    {
      "inputs": [
        {
          "internalType": "address",
          "name": "sender",
          "type": "address"
        },
        {
          "internalType": "address",
          "name": "recipient",
          "type": "address"
        },
        {
          "internalType": "uint256",
          "name": "amount",
          "type": "uint256"
        },
        {
          "internalType": "bytes",
          "name": "data",
          "type": "bytes"
        },
        {
          "internalType": "bytes",
          "name": "operatorData",
          "type": "bytes"
        }
      ],
      "name": "operatorSend",
      "outputs": [],
      "stateMutability": "nonpayable",
      "type": "function"
    },
    {
      "inputs": [
        {
          "internalType": "bytes32",
          "name": "role",
          "type": "bytes32"
        },
        {
          "internalType": "address",
          "name": "account",
          "type": "address"
        }
      ],
      "name": "renounceRole",
      "outputs": [],
      "stateMutability": "nonpayable",
      "type": "function"
    },
    {
      "inputs": [
        {
          "internalType": "address",
          "name": "operator",
          "type": "address"
        }
      ],
      "name": "revokeOperator",
      "outputs": [],
      "stateMutability": "nonpayable",
      "type": "function"
    },
    {
      "inputs": [
        {
          "internalType": "bytes32",
          "name": "role",
          "type": "bytes32"
        },
        {
          "internalType": "address",
          "name": "account",
          "type": "address"
        }
      ],
      "name": "revokeRole",
      "outputs": [],
      "stateMutability": "nonpayable",
      "type": "function"
    },
    {
      "inputs": [
        {
          "internalType": "address",
          "name": "recipient",
          "type": "address"
        },
        {
          "internalType": "uint256",
          "name": "amount",
          "type": "uint256"
        },
        {
          "internalType": "bytes",
          "name": "data",
          "type": "bytes"
        }
      ],
      "name": "send",
      "outputs": [],
      "stateMutability": "nonpayable",
      "type": "function"
    },
    {
      "inputs": [
        {
          "internalType": "address",
          "name": "admin",
          "type": "address"
        }
      ],
      "name": "setAdmin",
      "outputs": [],
      "stateMutability": "nonpayable",
      "type": "function"
    },
    {
      "inputs": [
        {
          "internalType": "bytes4",
          "name": "interfaceId",
          "type": "bytes4"
        }
      ],
      "name": "supportsInterface",
      "outputs": [
        {
          "internalType": "bool",
          "name": "",
          "type": "bool"
        }
      ],
      "stateMutability": "view",
      "type": "function"
    },
    {
      "inputs": [],
      "name": "symbol",
      "outputs": [
        {
          "internalType": "string",
          "name": "",
          "type": "string"
        }
      ],
      "stateMutability": "view",
      "type": "function"
    },
    {
      "inputs": [],
      "name": "totalSupply",
      "outputs": [
        {
          "internalType": "uint256",
          "name": "",
          "type": "uint256"
        }
      ],
      "stateMutability": "view",
      "type": "function"
    },
    {
      "inputs": [
        {
          "internalType": "address",
          "name": "recipient",
          "type": "address"
        },
        {
          "internalType": "uint256",
          "name": "amount",
          "type": "uint256"
        }
      ],
      "name": "transfer",
      "outputs": [
        {
          "internalType": "bool",
          "name": "",
          "type": "bool"
        }
      ],
      "stateMutability": "nonpayable",
      "type": "function"
    },
    {
      "inputs": [
        {
          "internalType": "address",
          "name": "holder",
          "type": "address"
        },
        {
          "internalType": "address",
          "name": "recipient",
          "type": "address"
        },
        {
          "internalType": "uint256",
          "name": "amount",
          "type": "uint256"
        }
      ],
      "name": "transferFrom",
      "outputs": [
        {
          "internalType": "bool",
          "name": "",
          "type": "bool"
        }
      ],
      "stateMutability": "nonpayable",
      "type": "function"
    }
  ],
  "bytecode": "0x60806040523480156200001157600080fd5b50600060019054906101000a900460ff166200003c5760008054906101000a900460ff16156200004d565b6200004c6200010960201b60201c565b5b6200008f576040517f08c379a0000000000000000000000000000000000000000000000000000000008152600401620000869062000161565b60405180910390fd5b60008060019054906101000a900460ff161590508015620000e0576001600060016101000a81548160ff02191690831515021790555060016000806101000a81548160ff0219169083151502179055505b8015620001025760008060016101000a81548160ff0219169083151502179055505b50620001e3565b600062000121306200012760201b620019d21760201c565b15905090565b600080823b905060008111915050919050565b600062000149602e8362000183565b9150620001568262000194565b604082019050919050565b600060208201905081810360008301526200017c816200013a565b9050919050565b600082825260208201905092915050565b7f496e697469616c697a61626c653a20636f6e747261637420697320616c72656160008201527f647920696e697469616c697a6564000000000000000000000000000000000000602082015250565b614dcb80620001f36000396000f3fe608060405234801561001057600080fd5b50600436106101f05760003560e01c80639010d07c1161010f578063d5391393116100a2578063dd62ed3e11610071578063dd62ed3e146105cd578063fad8b32a146105fd578063fc673c4f14610619578063fe9d930314610635576101f0565b8063d539139314610547578063d547741f14610565578063d95b637114610581578063dcdc7dd0146105b1576101f0565b80639bd9bbc6116100de5780639bd9bbc6146104ad578063a217fddf146104c9578063a9059cbb146104e7578063ca15c87314610517576101f0565b80639010d07c1461041357806391d1485414610443578063959b8c3f1461047357806395d89b411461048f576101f0565b80632f2ff15d1161018757806362ad1b831161015657806362ad1b83146103a1578063704b6c02146103bd57806370a08231146103d95780638129fc1c14610409576101f0565b80632f2ff15d1461032d578063313ce5671461034957806336568abe14610367578063556f0dc714610383576101f0565b806318160ddd116101c357806318160ddd1461029157806323b872dd146102af578063248a9ca3146102df578063282c51f31461030f576101f0565b806301ffc9a7146101f557806306e485381461022557806306fdde0314610243578063095ea7b314610261575b600080fd5b61020f600480360381019061020a9190613a17565b610651565b60405161021c919061402c565b60405180910390f35b61022d6106cb565b60405161023a919061400a565b60405180910390f35b61024b610759565b6040516102589190614062565b60405180910390f35b61027b60048036038101906102769190613840565b6107eb565b604051610288919061402c565b60405180910390f35b61029961080e565b6040516102a691906142e4565b60405180910390f35b6102c960048036038101906102c4919061374a565b610818565b6040516102d6919061402c565b60405180910390f35b6102f960048036038101906102f49190613976565b610a72565b6040516103069190614047565b60405180910390f35b610317610a92565b6040516103249190614047565b60405180910390f35b6103476004803603810190610342919061399f565b610ab6565b005b610351610adf565b60405161035e9190614344565b60405180910390f35b610381600480360381019061037c919061399f565b610ae8565b005b61038b610b6b565b60405161039891906142e4565b60405180910390f35b6103bb60048036038101906103b69190613799565b610b74565b005b6103d760048036038101906103d291906136bc565b610bda565b005b6103f360048036038101906103ee91906136bc565b610c9f565b60405161040091906142e4565b60405180910390f35b610411610ce8565b005b61042d600480360381019061042891906139db565b610f31565b60405161043a9190613f20565b60405180910390f35b61045d6004803603810190610458919061399f565b610f60565b60405161046a919061402c565b60405180910390f35b61048d600480360381019061048891906136bc565b610fcb565b005b61049761122c565b6040516104a49190614062565b60405180910390f35b6104c760048036038101906104c2919061387c565b6112be565b005b6104d16112e8565b6040516104de9190614047565b60405180910390f35b61050160048036038101906104fc9190613840565b6112ef565b60405161050e919061402c565b60405180910390f35b610531600480360381019061052c9190613976565b6113fd565b60405161053e91906142e4565b60405180910390f35b61054f611421565b60405161055c9190614047565b60405180910390f35b61057f600480360381019061057a919061399f565b611445565b005b61059b6004803603810190610596919061370e565b61146e565b6040516105a8919061402c565b60405180910390f35b6105cb60048036038101906105c691906138e3565b61161f565b005b6105e760048036038101906105e2919061370e565b611664565b6040516105f491906142e4565b60405180910390f35b610617600480360381019061061291906136bc565b6116eb565b005b610633600480360381019061062e91906138e3565b61194c565b005b61064f600480360381019061064a9190613a40565b611991565b005b60007f5a05180f000000000000000000000000000000000000000000000000000000007bffffffffffffffffffffffffffffffffffffffffffffffffffffffff1916827bffffffffffffffffffffffffffffffffffffffffffffffffffffffff191614806106c457506106c3826119e5565b5b9050919050565b6060603780548060200260200160405190810160405280929190818152602001828054801561074f57602002820191906000526020600020905b8160009054906101000a900473ffffffffffffffffffffffffffffffffffffffff1673ffffffffffffffffffffffffffffffffffffffff1681526020019060010190808311610705575b5050505050905090565b6060603580546107689061460c565b80601f01602080910402602001604051908101604052809291908181526020018280546107949061460c565b80156107e15780601f106107b6576101008083540402835291602001916107e1565b820191906000526020600020905b8154815290600101906020018083116107c457829003601f168201915b5050505050905090565b6000806107f6611a5f565b9050610803818585611a67565b600191505092915050565b6000603454905090565b60008073ffffffffffffffffffffffffffffffffffffffff168373ffffffffffffffffffffffffffffffffffffffff161415610889576040517f08c379a0000000000000000000000000000000000000000000000000000000008152600401610880906141c4565b60405180910390fd5b600073ffffffffffffffffffffffffffffffffffffffff168473ffffffffffffffffffffffffffffffffffffffff1614156108f9576040517f08c379a00000000000000000000000000000000000000000000000000000000081526004016108f090614244565b60405180910390fd5b6000610903611a5f565b9050610931818686866040518060200160405280600081525060405180602001604052806000815250611c32565b61095d818686866040518060200160405280600081525060405180602001604052806000815250611da8565b6000603b60008773ffffffffffffffffffffffffffffffffffffffff1673ffffffffffffffffffffffffffffffffffffffff16815260200190815260200160002060008373ffffffffffffffffffffffffffffffffffffffff1673ffffffffffffffffffffffffffffffffffffffff16815260200190815260200160002054905083811015610a21576040517f08c379a0000000000000000000000000000000000000000000000000000000008152600401610a1890614224565b60405180910390fd5b610a3786838684610a3291906144e1565b611a67565b610a658287878760405180602001604052806000815250604051806020016040528060008152506000611fc5565b6001925050509392505050565b600060976000838152602001908152602001600020600101549050919050565b7f3c11d16cbaffd01df69ce1c404f6340ee057498f5f00246190ea54220576a84881565b610abf82610a72565b610ad081610acb611a5f565b6121a6565b610ada8383612243565b505050565b60006012905090565b610af0611a5f565b73ffffffffffffffffffffffffffffffffffffffff168173ffffffffffffffffffffffffffffffffffffffff1614610b5d576040517f08c379a0000000000000000000000000000000000000000000000000000000008152600401610b54906142c4565b60405180910390fd5b610b678282612277565b5050565b60006001905090565b610b85610b7f611a5f565b8661146e565b610bc4576040517f08c379a0000000000000000000000000000000000000000000000000000000008152600401610bbb906141e4565b60405180910390fd5b610bd3858585858560016122ab565b5050505050565b610be76000801b82610ab6565b610c117f9f2df0fed2c77648de5860a4cc508cd0818c85b8b8a1ab4ceeef8d981c8956a682610ab6565b610c3b7f3c11d16cbaffd01df69ce1c404f6340ee057498f5f00246190ea54220576a84882610ab6565b610c657f3c11d16cbaffd01df69ce1c404f6340ee057498f5f00246190ea54220576a84833611445565b610c8f7f9f2df0fed2c77648de5860a4cc508cd0818c85b8b8a1ab4ceeef8d981c8956a633611445565b610c9c6000801b33611445565b50565b6000603360008373ffffffffffffffffffffffffffffffffffffffff1673ffffffffffffffffffffffffffffffffffffffff168152602001908152602001600020549050919050565b600060019054906101000a900460ff16610d105760008054906101000a900460ff1615610d19565b610d186123cb565b5b610d58576040517f08c379a0000000000000000000000000000000000000000000000000000000008152600401610d4f90614164565b60405180910390fd5b60008060019054906101000a900460ff161590508015610da8576001600060016101000a81548160ff02191690831515021790555060016000806101000a81548160ff0219169083151502179055505b610db06123dc565b610e946040518060400160405280600b81526020017f5374616b656420415641580000000000000000000000000000000000000000008152506040518060400160405280600581526020017f7841564158000000000000000000000000000000000000000000000000000000815250600067ffffffffffffffff811115610e60577f4e487b7100000000000000000000000000000000000000000000000000000000600052604160045260246000fd5b604051908082528060200260200182016040528015610e8e5781602001602082028036833780820191505090505b5061242d565b610e9c6126c4565b610ea4612715565b610eac612766565b610eb96000801b33612243565b610ee37f9f2df0fed2c77648de5860a4cc508cd0818c85b8b8a1ab4ceeef8d981c8956a633612243565b610f0d7f3c11d16cbaffd01df69ce1c404f6340ee057498f5f00246190ea54220576a84833612243565b8015610f2e5760008060016101000a81548160ff0219169083151502179055505b50565b6000610f588260c960008681526020019081526020016000206127b790919063ffffffff16565b905092915050565b60006097600084815260200190815260200160002060000160008373ffffffffffffffffffffffffffffffffffffffff1673ffffffffffffffffffffffffffffffffffffffff16815260200190815260200160002060009054906101000a900460ff16905092915050565b8073ffffffffffffffffffffffffffffffffffffffff16610fea611a5f565b73ffffffffffffffffffffffffffffffffffffffff161415611041576040517f08c379a000000000000000000000000000000000000000000000000000000000815260040161103890614124565b60405180910390fd5b603860008273ffffffffffffffffffffffffffffffffffffffff1673ffffffffffffffffffffffffffffffffffffffff16815260200190815260200160002060009054906101000a900460ff161561112b57603a600061109f611a5f565b73ffffffffffffffffffffffffffffffffffffffff1673ffffffffffffffffffffffffffffffffffffffff16815260200190815260200160002060008273ffffffffffffffffffffffffffffffffffffffff1673ffffffffffffffffffffffffffffffffffffffff16815260200190815260200160002060006101000a81549060ff02191690556111c8565b600160396000611139611a5f565b73ffffffffffffffffffffffffffffffffffffffff1673ffffffffffffffffffffffffffffffffffffffff16815260200190815260200160002060008373ffffffffffffffffffffffffffffffffffffffff1673ffffffffffffffffffffffffffffffffffffffff16815260200190815260200160002060006101000a81548160ff0219169083151502179055505b6111d0611a5f565b73ffffffffffffffffffffffffffffffffffffffff168173ffffffffffffffffffffffffffffffffffffffff167ff4caeb2d6ca8932a215a353d0703c326ec2d81fc68170f320eb2ab49e9df61f960405160405180910390a350565b60606036805461123b9061460c565b80601f01602080910402602001604051908101604052809291908181526020018280546112679061460c565b80156112b45780601f10611289576101008083540402835291602001916112b4565b820191906000526020600020905b81548152906001019060200180831161129757829003601f168201915b5050505050905090565b6112e36112c9611a5f565b8484846040518060200160405280600081525060016122ab565b505050565b6000801b81565b60008073ffffffffffffffffffffffffffffffffffffffff168373ffffffffffffffffffffffffffffffffffffffff161415611360576040517f08c379a0000000000000000000000000000000000000000000000000000000008152600401611357906141c4565b60405180910390fd5b600061136a611a5f565b9050611398818286866040518060200160405280600081525060405180602001604052806000815250611c32565b6113c4818286866040518060200160405280600081525060405180602001604052806000815250611da8565b6113f28182868660405180602001604052806000815250604051806020016040528060008152506000611fc5565b600191505092915050565b600061141a60c960008481526020019081526020016000206127d1565b9050919050565b7f9f2df0fed2c77648de5860a4cc508cd0818c85b8b8a1ab4ceeef8d981c8956a681565b61144e82610a72565b61145f8161145a611a5f565b6121a6565b6114698383612277565b505050565b60008173ffffffffffffffffffffffffffffffffffffffff168373ffffffffffffffffffffffffffffffffffffffff1614806115865750603860008473ffffffffffffffffffffffffffffffffffffffff1673ffffffffffffffffffffffffffffffffffffffff16815260200190815260200160002060009054906101000a900460ff1680156115855750603a60008373ffffffffffffffffffffffffffffffffffffffff1673ffffffffffffffffffffffffffffffffffffffff16815260200190815260200160002060008473ffffffffffffffffffffffffffffffffffffffff1673ffffffffffffffffffffffffffffffffffffffff16815260200190815260200160002060009054906101000a900460ff16155b5b806116175750603960008373ffffffffffffffffffffffffffffffffffffffff1673ffffffffffffffffffffffffffffffffffffffff16815260200190815260200160002060008473ffffffffffffffffffffffffffffffffffffffff1673ffffffffffffffffffffffffffffffffffffffff16815260200190815260200160002060009054906101000a900460ff165b905092915050565b7f9f2df0fed2c77648de5860a4cc508cd0818c85b8b8a1ab4ceeef8d981c8956a66116518161164c611a5f565b6121a6565b61165d858585856127e6565b5050505050565b6000603b60008473ffffffffffffffffffffffffffffffffffffffff1673ffffffffffffffffffffffffffffffffffffffff16815260200190815260200160002060008373ffffffffffffffffffffffffffffffffffffffff1673ffffffffffffffffffffffffffffffffffffffff16815260200190815260200160002054905092915050565b6116f3611a5f565b73ffffffffffffffffffffffffffffffffffffffff168173ffffffffffffffffffffffffffffffffffffffff161415611761576040517f08c379a000000000000000000000000000000000000000000000000000000000815260040161175890614144565b60405180910390fd5b603860008273ffffffffffffffffffffffffffffffffffffffff1673ffffffffffffffffffffffffffffffffffffffff16815260200190815260200160002060009054906101000a900460ff1615611854576001603a60006117c1611a5f565b73ffffffffffffffffffffffffffffffffffffffff1673ffffffffffffffffffffffffffffffffffffffff16815260200190815260200160002060008373ffffffffffffffffffffffffffffffffffffffff1673ffffffffffffffffffffffffffffffffffffffff16815260200190815260200160002060006101000a81548160ff0219169083151502179055506118e8565b60396000611860611a5f565b73ffffffffffffffffffffffffffffffffffffffff1673ffffffffffffffffffffffffffffffffffffffff16815260200190815260200160002060008273ffffffffffffffffffffffffffffffffffffffff1673ffffffffffffffffffffffffffffffffffffffff16815260200190815260200160002060006101000a81549060ff02191690555b6118f0611a5f565b73ffffffffffffffffffffffffffffffffffffffff168173ffffffffffffffffffffffffffffffffffffffff167f50546e66e5f44d728365dc3908c63bc5cfeeab470722c1677e3073a6ac294aa160405160405180910390a350565b7f3c11d16cbaffd01df69ce1c404f6340ee057498f5f00246190ea54220576a84861197e81611979611a5f565b6121a6565b61198a858585856127fa565b5050505050565b7f3c11d16cbaffd01df69ce1c404f6340ee057498f5f00246190ea54220576a8486119c3816119be611a5f565b6121a6565b6119cd838361285c565b505050565b600080823b905060008111915050919050565b60007f7965db0b000000000000000000000000000000000000000000000000000000007bffffffffffffffffffffffffffffffffffffffffffffffffffffffff1916827bffffffffffffffffffffffffffffffffffffffffffffffffffffffff19161480611a585750611a5782612882565b5b9050919050565b600033905090565b600073ffffffffffffffffffffffffffffffffffffffff168373ffffffffffffffffffffffffffffffffffffffff161415611ad7576040517f08c379a0000000000000000000000000000000000000000000000000000000008152600401611ace906140a4565b60405180910390fd5b600073ffffffffffffffffffffffffffffffffffffffff168273ffffffffffffffffffffffffffffffffffffffff161415611b47576040517f08c379a0000000000000000000000000000000000000000000000000000000008152600401611b3e906142a4565b60405180910390fd5b80603b60008573ffffffffffffffffffffffffffffffffffffffff1673ffffffffffffffffffffffffffffffffffffffff16815260200190815260200160002060008473ffffffffffffffffffffffffffffffffffffffff1673ffffffffffffffffffffffffffffffffffffffff168152602001908152602001600020819055508173ffffffffffffffffffffffffffffffffffffffff168373ffffffffffffffffffffffffffffffffffffffff167f8c5be1e5ebec7d5bd14f71427d1e84f3dd0314c0f7b2291e5b200ac8c7c3b92583604051611c2591906142e4565b60405180910390a3505050565b6000731820a4b7618bde71dce8cdc73aab6c95905fad2473ffffffffffffffffffffffffffffffffffffffff1663aabbb8ca877f29ddb589b1fb5fc7cf394961c1adf5f8c6454761adf795e67fe149f658abe8956040518363ffffffff1660e01b8152600401611ca3929190613faa565b60206040518083038186803b158015611cbb57600080fd5b505afa158015611ccf573d6000803e3d6000fd5b505050506040513d601f19601f82011682018060405250810190611cf391906136e5565b9050600073ffffffffffffffffffffffffffffffffffffffff168173ffffffffffffffffffffffffffffffffffffffff1614611d9f578073ffffffffffffffffffffffffffffffffffffffff166375ab97828888888888886040518763ffffffff1660e01b8152600401611d6c96959493929190613f3b565b600060405180830381600087803b158015611d8657600080fd5b505af1158015611d9a573d6000803e3d6000fd5b505050505b50505050505050565b611db4868686866128ec565b6000603360008773ffffffffffffffffffffffffffffffffffffffff1673ffffffffffffffffffffffffffffffffffffffff16815260200190815260200160002054905083811015611e3b576040517f08c379a0000000000000000000000000000000000000000000000000000000008152600401611e32906140e4565b60405180910390fd5b838103603360008873ffffffffffffffffffffffffffffffffffffffff1673ffffffffffffffffffffffffffffffffffffffff1681526020019081526020016000208190555083603360008773ffffffffffffffffffffffffffffffffffffffff1673ffffffffffffffffffffffffffffffffffffffff1681526020019081526020016000206000828254611ed09190614431565b925050819055508473ffffffffffffffffffffffffffffffffffffffff168673ffffffffffffffffffffffffffffffffffffffff168873ffffffffffffffffffffffffffffffffffffffff167f06b541ddaa720db2b10a4d0cdac39b8d360425fc073085fac19bc82614677987878787604051611f4f939291906142ff565b60405180910390a48473ffffffffffffffffffffffffffffffffffffffff168673ffffffffffffffffffffffffffffffffffffffff167fddf252ad1be2c89b69c2b068fc378daa952ba7f163c4a11628f55a4df523b3ef86604051611fb491906142e4565b60405180910390a350505050505050565b6000731820a4b7618bde71dce8cdc73aab6c95905fad2473ffffffffffffffffffffffffffffffffffffffff1663aabbb8ca877fb281fc8c12954d22544db45de3159a39272895b169a852b314f9cc762e44c53b6040518363ffffffff1660e01b8152600401612036929190613faa565b60206040518083038186803b15801561204e57600080fd5b505afa158015612062573d6000803e3d6000fd5b505050506040513d601f19601f8201168201806040525081019061208691906136e5565b9050600073ffffffffffffffffffffffffffffffffffffffff168173ffffffffffffffffffffffffffffffffffffffff1614612135578073ffffffffffffffffffffffffffffffffffffffff166223de298989898989896040518763ffffffff1660e01b81526004016120fe96959493929190613f3b565b600060405180830381600087803b15801561211857600080fd5b505af115801561212c573d6000803e3d6000fd5b5050505061219c565b811561219b5761215a8673ffffffffffffffffffffffffffffffffffffffff166119d2565b1561219a576040517f08c379a0000000000000000000000000000000000000000000000000000000008152600401612191906141a4565b60405180910390fd5b5b5b5050505050505050565b6121b08282610f60565b61223f576121d58173ffffffffffffffffffffffffffffffffffffffff1660146128f2565b6121e38360001c60206128f2565b6040516020016121f4929190613ee6565b6040516020818303038152906040526040517f08c379a00000000000000000000000000000000000000000000000000000000081526004016122369190614062565b60405180910390fd5b5050565b61224d8282612bec565b6122728160c96000858152602001908152602001600020612ccd90919063ffffffff16565b505050565b6122818282612cfd565b6122a68160c96000858152602001908152602001600020612ddf90919063ffffffff16565b505050565b600073ffffffffffffffffffffffffffffffffffffffff168673ffffffffffffffffffffffffffffffffffffffff16141561231b576040517f08c379a0000000000000000000000000000000000000000000000000000000008152600401612312906140c4565b60405180910390fd5b600073ffffffffffffffffffffffffffffffffffffffff168573ffffffffffffffffffffffffffffffffffffffff16141561238b576040517f08c379a000000000000000000000000000000000000000000000000000000000815260040161238290614284565b60405180910390fd5b6000612395611a5f565b90506123a5818888888888611c32565b6123b3818888888888611da8565b6123c281888888888888611fc5565b50505050505050565b60006123d6306119d2565b15905090565b600060019054906101000a900460ff1661242b576040517f08c379a000000000000000000000000000000000000000000000000000000000815260040161242290614204565b60405180910390fd5b565b600060019054906101000a900460ff1661247c576040517f08c379a000000000000000000000000000000000000000000000000000000000815260040161247390614204565b60405180910390fd5b82603590805190602001906124929291906134be565b5081603690805190602001906124a99291906134be565b5080603790805190602001906124c0929190613544565b5060005b81518110156125785760016038600084848151811061250c577f4e487b7100000000000000000000000000000000000000000000000000000000600052603260045260246000fd5b602002602001015173ffffffffffffffffffffffffffffffffffffffff1673ffffffffffffffffffffffffffffffffffffffff16815260200190815260200160002060006101000a81548160ff02191690831515021790555080806125709061466f565b9150506124c4565b50731820a4b7618bde71dce8cdc73aab6c95905fad2473ffffffffffffffffffffffffffffffffffffffff166329965a1d307fac7fbab5f54a3ca8194167523c6753bfeb96a445279294b6125b68cce2177054306040518463ffffffff1660e01b81526004016125ea93929190613fd3565b600060405180830381600087803b15801561260457600080fd5b505af1158015612618573d6000803e3d6000fd5b50505050731820a4b7618bde71dce8cdc73aab6c95905fad2473ffffffffffffffffffffffffffffffffffffffff166329965a1d307faea199e31a596269b42cdafd93407f14436db6e4cad65417994c2eb37381e05a306040518463ffffffff1660e01b815260040161268d93929190613fd3565b600060405180830381600087803b1580156126a757600080fd5b505af11580156126bb573d6000803e3d6000fd5b50505050505050565b600060019054906101000a900460ff16612713576040517f08c379a000000000000000000000000000000000000000000000000000000000815260040161270a90614204565b60405180910390fd5b565b600060019054906101000a900460ff16612764576040517f08c379a000000000000000000000000000000000000000000000000000000000815260040161275b90614204565b60405180910390fd5b565b600060019054906101000a900460ff166127b5576040517f08c379a00000000000000000000000000000000000000000000000000000000081526004016127ac90614204565b60405180910390fd5b565b60006127c68360000183612e0f565b60001c905092915050565b60006127df82600001612e60565b9050919050565b6127f4848484846001612e71565b50505050565b61280b612805611a5f565b8561146e565b61284a576040517f08c379a0000000000000000000000000000000000000000000000000000000008152600401612841906141e4565b60405180910390fd5b61285684848484613050565b50505050565b61287e612867611a5f565b838360405180602001604052806000815250613050565b5050565b60007f01ffc9a7000000000000000000000000000000000000000000000000000000007bffffffffffffffffffffffffffffffffffffffffffffffffffffffff1916827bffffffffffffffffffffffffffffffffffffffffffffffffffffffff1916149050919050565b50505050565b6060600060028360026129059190614487565b61290f9190614431565b67ffffffffffffffff81111561294e577f4e487b7100000000000000000000000000000000000000000000000000000000600052604160045260246000fd5b6040519080825280601f01601f1916602001820160405280156129805781602001600182028036833780820191505090505b5090507f3000000000000000000000000000000000000000000000000000000000000000816000815181106129de577f4e487b7100000000000000000000000000000000000000000000000000000000600052603260045260246000fd5b60200101907effffffffffffffffffffffffffffffffffffffffffffffffffffffffffffff1916908160001a9053507f780000000000000000000000000000000000000000000000000000000000000081600181518110612a68577f4e487b7100000000000000000000000000000000000000000000000000000000600052603260045260246000fd5b60200101907effffffffffffffffffffffffffffffffffffffffffffffffffffffffffffff1916908160001a90535060006001846002612aa89190614487565b612ab29190614431565b90505b6001811115612b9e577f3031323334353637383961626364656600000000000000000000000000000000600f861660108110612b1a577f4e487b7100000000000000000000000000000000000000000000000000000000600052603260045260246000fd5b1a60f81b828281518110612b57577f4e487b7100000000000000000000000000000000000000000000000000000000600052603260045260246000fd5b60200101907effffffffffffffffffffffffffffffffffffffffffffffffffffffffffffff1916908160001a905350600485901c945080612b97906145e2565b9050612ab5565b5060008414612be2576040517f08c379a0000000000000000000000000000000000000000000000000000000008152600401612bd990614084565b60405180910390fd5b8091505092915050565b612bf68282610f60565b612cc95760016097600084815260200190815260200160002060000160008373ffffffffffffffffffffffffffffffffffffffff1673ffffffffffffffffffffffffffffffffffffffff16815260200190815260200160002060006101000a81548160ff021916908315150217905550612c6e611a5f565b73ffffffffffffffffffffffffffffffffffffffff168173ffffffffffffffffffffffffffffffffffffffff16837f2f8788117e7eff1d82e926ec794901d17c78024a50270940304540a733656f0d60405160405180910390a45b5050565b6000612cf5836000018373ffffffffffffffffffffffffffffffffffffffff1660001b6132a5565b905092915050565b612d078282610f60565b15612ddb5760006097600084815260200190815260200160002060000160008373ffffffffffffffffffffffffffffffffffffffff1673ffffffffffffffffffffffffffffffffffffffff16815260200190815260200160002060006101000a81548160ff021916908315150217905550612d80611a5f565b73ffffffffffffffffffffffffffffffffffffffff168173ffffffffffffffffffffffffffffffffffffffff16837ff6391f5c32d9c69d2a47ea670b442974b53935d1edc7fd64eb21e047a839171b60405160405180910390a45b5050565b6000612e07836000018373ffffffffffffffffffffffffffffffffffffffff1660001b613315565b905092915050565b6000826000018281548110612e4d577f4e487b7100000000000000000000000000000000000000000000000000000000600052603260045260246000fd5b9060005260206000200154905092915050565b600081600001805490509050919050565b600073ffffffffffffffffffffffffffffffffffffffff168573ffffffffffffffffffffffffffffffffffffffff161415612ee1576040517f08c379a0000000000000000000000000000000000000000000000000000000008152600401612ed890614184565b60405180910390fd5b6000612eeb611a5f565b9050612efa81600088886128ec565b8460346000828254612f0c9190614431565b9250508190555084603360008873ffffffffffffffffffffffffffffffffffffffff1673ffffffffffffffffffffffffffffffffffffffff1681526020019081526020016000206000828254612f629190614431565b92505081905550612f798160008888888888611fc5565b8573ffffffffffffffffffffffffffffffffffffffff168173ffffffffffffffffffffffffffffffffffffffff167f2fe5be0146f74c5bce36c0b80911af6c7d86ff27e89d5cfa61fc681327954e5d878787604051612fda939291906142ff565b60405180910390a38573ffffffffffffffffffffffffffffffffffffffff16600073ffffffffffffffffffffffffffffffffffffffff167fddf252ad1be2c89b69c2b068fc378daa952ba7f163c4a11628f55a4df523b3ef8760405161304091906142e4565b60405180910390a3505050505050565b600073ffffffffffffffffffffffffffffffffffffffff168473ffffffffffffffffffffffffffffffffffffffff1614156130c0576040517f08c379a00000000000000000000000000000000000000000000000000000000081526004016130b790614104565b60405180910390fd5b60006130ca611a5f565b90506130db81866000878787611c32565b6130e881866000876128ec565b6000603360008773ffffffffffffffffffffffffffffffffffffffff1673ffffffffffffffffffffffffffffffffffffffff1681526020019081526020016000205490508481101561316f576040517f08c379a000000000000000000000000000000000000000000000000000000000815260040161316690614264565b60405180910390fd5b848103603360008873ffffffffffffffffffffffffffffffffffffffff1673ffffffffffffffffffffffffffffffffffffffff1681526020019081526020016000208190555084603460008282546131c791906144e1565b925050819055508573ffffffffffffffffffffffffffffffffffffffff168273ffffffffffffffffffffffffffffffffffffffff167fa78a9be3a7b862d26933ad85fb11d80ef66b8f972d7cbba06621d583943a409887878760405161322f939291906142ff565b60405180910390a3600073ffffffffffffffffffffffffffffffffffffffff168673ffffffffffffffffffffffffffffffffffffffff167fddf252ad1be2c89b69c2b068fc378daa952ba7f163c4a11628f55a4df523b3ef8760405161329591906142e4565b60405180910390a3505050505050565b60006132b1838361349b565b61330a57826000018290806001815401808255809150506001900390600052602060002001600090919091909150558260000180549050836001016000848152602001908152602001600020819055506001905061330f565b600090505b92915050565b6000808360010160008481526020019081526020016000205490506000811461348f57600060018261334791906144e1565b905060006001866000018054905061335f91906144e1565b905081811461341a5760008660000182815481106133a6577f4e487b7100000000000000000000000000000000000000000000000000000000600052603260045260246000fd5b90600052602060002001549050808760000184815481106133f0577f4e487b7100000000000000000000000000000000000000000000000000000000600052603260045260246000fd5b90600052602060002001819055508387600101600083815260200190815260200160002081905550505b85600001805480613454577f4e487b7100000000000000000000000000000000000000000000000000000000600052603160045260246000fd5b600190038181906000526020600020016000905590558560010160008681526020019081526020016000206000905560019350505050613495565b60009150505b92915050565b600080836001016000848152602001908152602001600020541415905092915050565b8280546134ca9061460c565b90600052602060002090601f0160209004810192826134ec5760008555613533565b82601f1061350557805160ff1916838001178555613533565b82800160010185558215613533579182015b82811115613532578251825591602001919060010190613517565b5b50905061354091906135ce565b5090565b8280548282559060005260206000209081019282156135bd579160200282015b828111156135bc5782518260006101000a81548173ffffffffffffffffffffffffffffffffffffffff021916908373ffffffffffffffffffffffffffffffffffffffff16021790555091602001919060010190613564565b5b5090506135ca91906135ce565b5090565b5b808211156135e75760008160009055506001016135cf565b5090565b60006135fe6135f984614384565b61435f565b90508281526020810184848401111561361657600080fd5b6136218482856145a0565b509392505050565b60008135905061363881614d39565b92915050565b60008151905061364d81614d39565b92915050565b60008135905061366281614d50565b92915050565b60008135905061367781614d67565b92915050565b600082601f83011261368e57600080fd5b813561369e8482602086016135eb565b91505092915050565b6000813590506136b681614d7e565b92915050565b6000602082840312156136ce57600080fd5b60006136dc84828501613629565b91505092915050565b6000602082840312156136f757600080fd5b60006137058482850161363e565b91505092915050565b6000806040838503121561372157600080fd5b600061372f85828601613629565b925050602061374085828601613629565b9150509250929050565b60008060006060848603121561375f57600080fd5b600061376d86828701613629565b935050602061377e86828701613629565b925050604061378f868287016136a7565b9150509250925092565b600080600080600060a086880312156137b157600080fd5b60006137bf88828901613629565b95505060206137d088828901613629565b94505060406137e1888289016136a7565b935050606086013567ffffffffffffffff8111156137fe57600080fd5b61380a8882890161367d565b925050608086013567ffffffffffffffff81111561382757600080fd5b6138338882890161367d565b9150509295509295909350565b6000806040838503121561385357600080fd5b600061386185828601613629565b9250506020613872858286016136a7565b9150509250929050565b60008060006060848603121561389157600080fd5b600061389f86828701613629565b93505060206138b0868287016136a7565b925050604084013567ffffffffffffffff8111156138cd57600080fd5b6138d98682870161367d565b9150509250925092565b600080600080608085870312156138f957600080fd5b600061390787828801613629565b9450506020613918878288016136a7565b935050604085013567ffffffffffffffff81111561393557600080fd5b6139418782880161367d565b925050606085013567ffffffffffffffff81111561395e57600080fd5b61396a8782880161367d565b91505092959194509250565b60006020828403121561398857600080fd5b600061399684828501613653565b91505092915050565b600080604083850312156139b257600080fd5b60006139c085828601613653565b92505060206139d185828601613629565b9150509250929050565b600080604083850312156139ee57600080fd5b60006139fc85828601613653565b9250506020613a0d858286016136a7565b9150509250929050565b600060208284031215613a2957600080fd5b6000613a3784828501613668565b91505092915050565b60008060408385031215613a5357600080fd5b6000613a61858286016136a7565b925050602083013567ffffffffffffffff811115613a7e57600080fd5b613a8a8582860161367d565b9150509250929050565b6000613aa08383613aac565b60208301905092915050565b613ab581614515565b82525050565b613ac481614515565b82525050565b6000613ad5826143c5565b613adf81856143f3565b9350613aea836143b5565b8060005b83811015613b1b578151613b028882613a94565b9750613b0d836143e6565b925050600181019050613aee565b5085935050505092915050565b613b3181614527565b82525050565b613b4081614533565b82525050565b6000613b51826143d0565b613b5b8185614404565b9350613b6b8185602086016145af565b613b7481614745565b840191505092915050565b6000613b8a826143db565b613b948185614415565b9350613ba48185602086016145af565b613bad81614745565b840191505092915050565b6000613bc3826143db565b613bcd8185614426565b9350613bdd8185602086016145af565b80840191505092915050565b6000613bf6602083614415565b9150613c0182614756565b602082019050919050565b6000613c19602583614415565b9150613c248261477f565b604082019050919050565b6000613c3c602283614415565b9150613c47826147ce565b604082019050919050565b6000613c5f602783614415565b9150613c6a8261481d565b604082019050919050565b6000613c82602283614415565b9150613c8d8261486c565b604082019050919050565b6000613ca5602483614415565b9150613cb0826148bb565b604082019050919050565b6000613cc8602183614415565b9150613cd38261490a565b604082019050919050565b6000613ceb602e83614415565b9150613cf682614959565b604082019050919050565b6000613d0e602083614415565b9150613d19826149a8565b602082019050919050565b6000613d31604d83614415565b9150613d3c826149d1565b606082019050919050565b6000613d54602483614415565b9150613d5f82614a46565b604082019050919050565b6000613d77602c83614415565b9150613d8282614a95565b604082019050919050565b6000613d9a602b83614415565b9150613da582614ae4565b604082019050919050565b6000613dbd602983614415565b9150613dc882614b33565b604082019050919050565b6000613de0601783614426565b9150613deb82614b82565b601782019050919050565b6000613e03602683614415565b9150613e0e82614bab565b604082019050919050565b6000613e26602383614415565b9150613e3182614bfa565b604082019050919050565b6000613e49602083614415565b9150613e5482614c49565b602082019050919050565b6000613e6c602383614415565b9150613e7782614c72565b604082019050919050565b6000613e8f601183614426565b9150613e9a82614cc1565b601182019050919050565b6000613eb2602f83614415565b9150613ebd82614cea565b604082019050919050565b613ed181614589565b82525050565b613ee081614593565b82525050565b6000613ef182613dd3565b9150613efd8285613bb8565b9150613f0882613e82565b9150613f148284613bb8565b91508190509392505050565b6000602082019050613f356000830184613abb565b92915050565b600060c082019050613f506000830189613abb565b613f5d6020830188613abb565b613f6a6040830187613abb565b613f776060830186613ec8565b8181036080830152613f898185613b46565b905081810360a0830152613f9d8184613b46565b9050979650505050505050565b6000604082019050613fbf6000830185613abb565b613fcc6020830184613b37565b9392505050565b6000606082019050613fe86000830186613abb565b613ff56020830185613b37565b6140026040830184613abb565b949350505050565b600060208201905081810360008301526140248184613aca565b905092915050565b60006020820190506140416000830184613b28565b92915050565b600060208201905061405c6000830184613b37565b92915050565b6000602082019050818103600083015261407c8184613b7f565b905092915050565b6000602082019050818103600083015261409d81613be9565b9050919050565b600060208201905081810360008301526140bd81613c0c565b9050919050565b600060208201905081810360008301526140dd81613c2f565b9050919050565b600060208201905081810360008301526140fd81613c52565b9050919050565b6000602082019050818103600083015261411d81613c75565b9050919050565b6000602082019050818103600083015261413d81613c98565b9050919050565b6000602082019050818103600083015261415d81613cbb565b9050919050565b6000602082019050818103600083015261417d81613cde565b9050919050565b6000602082019050818103600083015261419d81613d01565b9050919050565b600060208201905081810360008301526141bd81613d24565b9050919050565b600060208201905081810360008301526141dd81613d47565b9050919050565b600060208201905081810360008301526141fd81613d6a565b9050919050565b6000602082019050818103600083015261421d81613d8d565b9050919050565b6000602082019050818103600083015261423d81613db0565b9050919050565b6000602082019050818103600083015261425d81613df6565b9050919050565b6000602082019050818103600083015261427d81613e19565b9050919050565b6000602082019050818103600083015261429d81613e3c565b9050919050565b600060208201905081810360008301526142bd81613e5f565b9050919050565b600060208201905081810360008301526142dd81613ea5565b9050919050565b60006020820190506142f96000830184613ec8565b92915050565b60006060820190506143146000830186613ec8565b81810360208301526143268185613b46565b9050818103604083015261433a8184613b46565b9050949350505050565b60006020820190506143596000830184613ed7565b92915050565b600061436961437a565b9050614375828261463e565b919050565b6000604051905090565b600067ffffffffffffffff82111561439f5761439e614716565b5b6143a882614745565b9050602081019050919050565b6000819050602082019050919050565b600081519050919050565b600081519050919050565b600081519050919050565b6000602082019050919050565b600082825260208201905092915050565b600082825260208201905092915050565b600082825260208201905092915050565b600081905092915050565b600061443c82614589565b915061444783614589565b9250827fffffffffffffffffffffffffffffffffffffffffffffffffffffffffffffffff0382111561447c5761447b6146b8565b5b828201905092915050565b600061449282614589565b915061449d83614589565b9250817fffffffffffffffffffffffffffffffffffffffffffffffffffffffffffffffff04831182151516156144d6576144d56146b8565b5b828202905092915050565b60006144ec82614589565b91506144f783614589565b92508282101561450a576145096146b8565b5b828203905092915050565b600061452082614569565b9050919050565b60008115159050919050565b6000819050919050565b60007fffffffff0000000000000000000000000000000000000000000000000000000082169050919050565b600073ffffffffffffffffffffffffffffffffffffffff82169050919050565b6000819050919050565b600060ff82169050919050565b82818337600083830152505050565b60005b838110156145cd5780820151818401526020810190506145b2565b838111156145dc576000848401525b50505050565b60006145ed82614589565b91506000821415614601576146006146b8565b5b600182039050919050565b6000600282049050600182168061462457607f821691505b60208210811415614638576146376146e7565b5b50919050565b61464782614745565b810181811067ffffffffffffffff8211171561466657614665614716565b5b80604052505050565b600061467a82614589565b91507fffffffffffffffffffffffffffffffffffffffffffffffffffffffffffffffff8214156146ad576146ac6146b8565b5b600182019050919050565b7f4e487b7100000000000000000000000000000000000000000000000000000000600052601160045260246000fd5b7f4e487b7100000000000000000000000000000000000000000000000000000000600052602260045260246000fd5b7f4e487b7100000000000000000000000000000000000000000000000000000000600052604160045260246000fd5b6000601f19601f8301169050919050565b7f537472696e67733a20686578206c656e67746820696e73756666696369656e74600082015250565b7f4552433737373a20617070726f76652066726f6d20746865207a65726f20616460008201527f6472657373000000000000000000000000000000000000000000000000000000602082015250565b7f4552433737373a2073656e642066726f6d20746865207a65726f20616464726560008201527f7373000000000000000000000000000000000000000000000000000000000000602082015250565b7f4552433737373a207472616e7366657220616d6f756e7420657863656564732060008201527f62616c616e636500000000000000000000000000000000000000000000000000602082015250565b7f4552433737373a206275726e2066726f6d20746865207a65726f20616464726560008201527f7373000000000000000000000000000000000000000000000000000000000000602082015250565b7f4552433737373a20617574686f72697a696e672073656c66206173206f70657260008201527f61746f7200000000000000000000000000000000000000000000000000000000602082015250565b7f4552433737373a207265766f6b696e672073656c66206173206f70657261746f60008201527f7200000000000000000000000000000000000000000000000000000000000000602082015250565b7f496e697469616c697a61626c653a20636f6e747261637420697320616c72656160008201527f647920696e697469616c697a6564000000000000000000000000000000000000602082015250565b7f4552433737373a206d696e7420746f20746865207a65726f2061646472657373600082015250565b7f4552433737373a20746f6b656e20726563697069656e7420636f6e747261637460008201527f20686173206e6f20696d706c656d656e74657220666f7220455243373737546f60208201527f6b656e73526563697069656e7400000000000000000000000000000000000000604082015250565b7f4552433737373a207472616e7366657220746f20746865207a65726f2061646460008201527f7265737300000000000000000000000000000000000000000000000000000000602082015250565b7f4552433737373a2063616c6c6572206973206e6f7420616e206f70657261746f60008201527f7220666f7220686f6c6465720000000000000000000000000000000000000000602082015250565b7f496e697469616c697a61626c653a20636f6e7472616374206973206e6f74206960008201527f6e697469616c697a696e67000000000000000000000000000000000000000000602082015250565b7f4552433737373a207472616e7366657220616d6f756e7420657863656564732060008201527f616c6c6f77616e63650000000000000000000000000000000000000000000000602082015250565b7f416363657373436f6e74726f6c3a206163636f756e7420000000000000000000600082015250565b7f4552433737373a207472616e736665722066726f6d20746865207a65726f206160008201527f6464726573730000000000000000000000000000000000000000000000000000602082015250565b7f4552433737373a206275726e20616d6f756e7420657863656564732062616c6160008201527f6e63650000000000000000000000000000000000000000000000000000000000602082015250565b7f4552433737373a2073656e6420746f20746865207a65726f2061646472657373600082015250565b7f4552433737373a20617070726f766520746f20746865207a65726f206164647260008201527f6573730000000000000000000000000000000000000000000000000000000000602082015250565b7f206973206d697373696e6720726f6c6520000000000000000000000000000000600082015250565b7f416363657373436f6e74726f6c3a2063616e206f6e6c792072656e6f756e636560008201527f20726f6c657320666f722073656c660000000000000000000000000000000000602082015250565b614d4281614515565b8114614d4d57600080fd5b50565b614d5981614533565b8114614d6457600080fd5b50565b614d708161453d565b8114614d7b57600080fd5b50565b614d8781614589565b8114614d9257600080fd5b5056fea2646970667358221220dafa649d72e19e030f80a24013b7471289d934d9b110cda5c9de63d10bad912e64736f6c63430008040033",
  "linkReferences": {},
  "deployedLinkReferences": {}
}